:020000040800F2
:10000000004001201D3E00087D1700087F170008F2
:1000100081170008831700088517000800000000FA
:10002000000000000000000000000000871700082A
:1000300089170008000000008B1700088D170008C2
:10004000653E0008653E0008653E0008653E000804
:10005000653E0008653E0008653E0008653E0008F4
:10006000653E0008653E0008653E000895170008DB
:10007000653E0008653E0008653E0008653E0008D4
:10008000653E0008653E0008A5170008653E0008AB
:10009000653E0008653E0008653E0008B51700088B
:1000A000653E0008C5170008D5170008E5170008C9
:1000B000F517000805180008653E0008653E0008B1
:1000C000653E0008653E0008653E0008653E000884
:1000D000653E0008653E0008653E0008653E000874
:1000E00015180008653E0008653E0008653E0008DA
:1000F000653E000800000000653E0008653E0008FF
:10010000653E0008653E0008653E0008653E000843
:10011000653E0008653E0008653E000800000000DE
:10012000653E000800000000000000000000000024
:0C01300000000000000000005FF808F173
:1001400081F0004102E000BF83F0004330B54FEA88
:1001500041044FEA430594EA050F08BF90EA020FF5
:100160001FBF54EA000C55EA020C7FEA645C7FEA88
:10017000655C00F0E2804FEA5454D4EB5555B8BFAB
:100180006D420CDD2C4480EA020281EA030382EA1C
:10019000000083EA010180EA020281EA0303362DAE
:1001A00088BF30BD11F0004F4FEA01314FF4801C81
:1001B0004CEA113102D0404261EB410113F0004F93
:1001C0004FEA03334CEA133302D0524263EB43034A
:1001D00094EA050F00F0A780A4F10104D5F1200EE8
:1001E0000DDB02FA0EFC22FA05F2801841F1000143
:1001F00003FA0EF2801843FA05F359410EE0A5F117
:1002000020050EF1200E012A03FA0EFC28BF4CF047
:10021000020C43FA05F3C01851EBE37101F00045FD
:1002200007D54FF0000EDCF1000C7EEB00006EEB0A
:100230000101B1F5801F1BD3B1F5001F0CD3490894
:100240005FEA30004FEA3C0C04F101044FEA4452EB
:1002500012F5800F80F09A80BCF1004F08BF5FEA72
:10026000500C50F1000041EB045141EA050130BD52
:100270005FEA4C0C404141EB0101013C28BFB1F564
:10028000801FE9D291F0000F04BF01460020B1FAAF
:1002900081F308BF2033A3F10B03B3F120020CDA82
:1002A0000C3208DD02F1140CC2F10C0201FA0CF060
:1002B00021FA02F10CE002F11402D8BFC2F1200CC5
:1002C00001FA02F120FA0CFCDCBF41EA0C0190407B
:1002D000E41AA2BF01EB0451294330BD6FEA0404C4
:1002E0001F3C1CDA0C340EDC04F11404C4F12002AF
:1002F00020FA04F001FA02F340EA030021FA04F3C1
:1003000045EA030130BDC4F10C04C4F1200220FA17
:1003100002F001FA04F340EA0300294630BD21FA55
:1003200004F0294630BD94F0000F83F4801306BF1B
:1003300081F480110134013D4EE77FEA645C18BF0F
:100340007FEA655C29D094EA050F08BF90EA020FA6
:1003500005D054EA000C04BF1946104630BD91EA9E
:10036000030F1EBF0021002030BD5FEA545C05D1A1
:100370004000494128BF41F0004130BD14F58004E0
:100380003CBF01F5801130BD01F0004545F0FE4154
:1003900041F470014FF0000030BD7FEA645C1ABF89
:1003A000194610467FEA655C1CBF0B46024650EAC0
:1003B000013406BF52EA033591EA030F41F40021EC
:1003C00030BD00BF90F0000F04BF0021704730B572
:1003D0004FF4806404F132044FF000054FF0000147
:1003E00050E700BF90F0000F04BF0021704730B508
:1003F0004FF4806404F1320410F0004548BF4042DD
:100400004FF000013EE700BF42004FEAE2014FEA31
:1004100031014FEA02701FBF12F07F4393F07F4F0C
:1004200081F06051704732F07F4208BF704793F00F
:100430007F4F04BF41F40021704730B54FF4607422
:1004400001F0004521F000411CE700BF50EA010225
:1004500008BF704730B54FF000050AE050EA0102CE
:1004600008BF704730B511F0004502D5404261EB3E
:1004700041014FF4806404F132045FEA915C3FF47F
:10048000D8AE4FF003025FEADC0C18BF03325FEA1C
:10049000DC0C18BF033202EBDC02C2F1200300FACD
:1004A00003FC20FA02F001FA03FE40EA0E0021FAF2
:1004B00002F11444BDE600BF70B54FF0FF0C4CF4E0
:1004C000E06C1CEA11541DBF1CEA135594EA0C0F92
:1004D00095EA0C0F00F0DEF82C4481EA030621EACD
:1004E0004C5123EA4C5350EA013518BF52EA033508
:1004F00041F4801143F4801338D0A0FB02CE4FF0BA
:100500000005E1FB02E506F00042E0FB03E54FF0E9
:100510000006E1FB03569CF0000F18BF4EF0010EE1
:10052000A4F1FF04B6F5007F64F5407404D25FEADD
:100530004E0E6D4146EB060642EAC62141EA555190
:100540004FEAC52040EA5E504FEACE2EB4F1FD0CD2
:1005500088BFBCF5E06F1ED8BEF1004F08BF5FEA50
:10056000500E50F1000041EB045170BD06F0004602
:1005700046EA010140EA020081EA0301B4EB5C04AF
:10058000C2BFD4EB0C0541EA045170BD41F48011A7
:100590004FF0000E013C00F3AB8014F1360FDEBFCC
:1005A000002001F0004170BDC4F10004203C35DAA8
:1005B0000C341BDC04F11404C4F1200500FA05F32B
:1005C00020FA04F001FA05F240EA020001F00042CC
:1005D00021F0004110EBD37021FA04F642EB060142
:1005E0005EEA430E08BF20EAD37070BDC4F10C046C
:1005F000C4F1200500FA04F320FA05F001FA04F230
:1006000040EA020001F0004110EBD37041F100011B
:100610005EEA430E08BF20EAD37070BDC4F1200526
:1006200000FA05F24EEA020E20FA04F301FA05F28E
:1006300043EA020321FA04F001F0004121FA04F236
:1006400020EA020000EBD3705EEA430E08BF20EA06
:10065000D37070BD94F0000F0FD101F00046400040
:1006600041EB010111F4801F08BF013CF7D041EAC2
:10067000060195F0000F18BF704703F000465200C6
:1006800043EB030313F4801F08BF013DF7D043EA97
:100690000603704794EA0C0F0CEA135518BF95EA4D
:1006A0000C0F0CD050EA410618BF52EA4306D1D1D4
:1006B00081EA030101F000414FF0000070BD50EAF3
:1006C000410606BF1046194652EA430619D094EA7D
:1006D0000C0F02D150EA013613D195EA0C0F05D167
:1006E00052EA03361CBF104619460AD181EA0301BB
:1006F00001F0004141F0FE4141F470014FF0000073
:1007000070BD41F0FE4141F4780170BD70B54FF00D
:10071000FF0C4CF4E06C1CEA11541DBF1CEA13558D
:1007200094EA0C0F95EA0C0F00F0A7F8A4EB05046F
:1007300081EA030E52EA03354FEA013100F0888066
:100740004FEA03334FF0805545EA131343EA12632F
:100750004FEA022245EA111545EA10654FEA0026E4
:100760000EF000419D4208BF964244F1FD0404F59D
:10077000407402D25B084FEA3202B61A65EB0305F9
:100780005B084FEA32024FF480104FF4002CB6EBB6
:10079000020E75EB030E22BFB61A754640EA0C0036
:1007A0005B084FEA3202B6EB020E75EB030E22BF76
:1007B000B61A754640EA5C005B084FEA3202B6EBB7
:1007C000020E75EB030E22BFB61A754640EA9C0076
:1007D0005B084FEA3202B6EB020E75EB030E22BF46
:1007E000B61A754640EADC0055EA060E18D04FEA04
:1007F000051545EA16754FEA06164FEAC30343EAA4
:1008000052734FEAC2025FEA1C1CC0D111F4801F70
:100810000BD141EA00014FF000004FF0004CB6E769
:1008200011F4801F04BF01430020B4F1FD0C88BF08
:10083000BCF5E06F3FF6AFAEB5EB030C04BFB6EB13
:10084000020C5FEA500C50F1000041EB045170BD06
:100850000EF0004E4EEA113114EB5C04C2BFD4EB33
:100860000C0541EA045170BD41F480114FF0000EB7
:10087000013C90E645EA060E8DE60CEA135594EA33
:100880000C0F08BF95EA0C0F3FF43BAF94EA0C0F36
:100890000AD150EA01347FF434AF95EA0C0F7FF4AB
:1008A00025AF104619462CE795EA0C0F06D152EAFF
:1008B00003353FF4FDAE1046194622E750EA4106E3
:1008C00018BF52EA43067FF4C5AE50EA41047FF4F4
:1008D0000DAF52EA43057FF4EBAE12E74FF0FF3C59
:1008E00006E000BF4FF0010C02E000BF4FF0010C2A
:1008F0004DF804CD4FEA410C7FEA6C5C4FEA430CA3
:1009000018BF7FEA6C5C1BD001B050EA410C0CBFF1
:1009100052EA430C91EA030F02BF90EA020F002053
:10092000704710F1000F91EA030F58BF994208BFBA
:1009300090422CBFD8176FEAE37040F00100704777
:100940004FEA410C7FEA6C5C02D150EA013C07D1CE
:100950004FEA430C7FEA6C5CD6D152EA033CD3D019
:100960005DF8040B704700BF8446104662468C4613
:100970001946634600E000BF01B5FFF7B7FF002846
:1009800048BF10F1000F01BD4DF808EDFFF7F4FF6F
:100990000CBF012000205DF808FB00BF4DF808EDFA
:1009A000FFF7EAFF34BF012000205DF808FB00BF1D
:1009B0004DF808EDFFF7E0FF94BF012000205DF83F
:1009C00008FB00BF4DF808EDFFF7CEFF94BF0120F4
:1009D00000205DF808FB00BF4DF808EDFFF7C4FFED
:1009E00034BF012000205DF808FB00BF4FEA410240
:1009F00012F5001215D211D56FF47873B3EB625271
:100A000012D94FEAC12343F0004343EA505311F097
:100A1000004F23FA02F018BF404270474FF0000029
:100A2000704750EA013005D111F0004008BF6FF067
:100A3000004070474FF00000704700BF4A0011D2DD
:100A400012F5001211D20DD56FF47873B3EB625228
:100A50000ED44FEAC12343F0004343EA505323FA34
:100A600002F070474FF00000704750EA013002D1A9
:100A70004FF0FF3070474FF00000704753B94AB94C
:100A8000002908BF00281CBF4FF0FF314FF0FF3096
:100A900000F00CB8ADF1080C6DE904CE05F00EF8CD
:100AA000DDF804E0DDE9022304B07047704700BFC1
:100AB0000348044B834202D0034B03B118477047ED
:100AC0007000002070000020000000000548064B68
:100AD0001B1AD90F01EBA301491002D0034B03B13C
:100AE00018477047700000207000002000000000D0
:100AF00010B5064C237843B9FFF7DAFF044B13B166
:100B00000448AFF300800123237010BD7000002063
:100B100000000000705D000808B5054B1BB10549D9
:100B20000548AFF30080BDE80840FFF7CFBF00BF26
:100B30000000000074000020705D00082DE9F04105
:100B40008AB0002405940694079408940994374BBE
:100B5000DA6942F00402DA61DA6902F00402019211
:100B6000019ADA6942F02002DA61DA6902F02002C1
:100B70000292029ADA6942F00102DA61DA6902F05D
:100B800001020392039ADA6942F00202DA61DB6938
:100B900003F002030493049BDFF8948022464FF491
:100BA0000051404602F0DEF8224D22464FF480719B
:100BB000284602F0D7F8602305934FF4881606966E
:100BC000079405A91C4801F0D9FF4FF40053059381
:100BD000012706970794089405A9404601F0CEFF27
:100BE0004FF48073059306970794089405A9284647
:100BF00001F0C4FF4FF4C05305930696079405A96E
:100C0000284601F0BBFF22462146172002F012FAC7
:100C1000172002F01FFA22462146282002F00AFA85
:100C2000282002F017FA0AB0BDE8F081003802402F
:100C300000040240000002400008024000B583B0FA
:100C40000A4BDA6942F08072DA61DB6903F0807383
:100C50000193019B002211460B2002F0EBF90B20BF
:100C600002F0F8F903B05DF804FB00BF0038024061
:100C700007490B680748084A00FB0322074BA3FB00
:100C80000203DB0BC3EB0343D31A0B60704700BFB7
:100C9000B00000200D6619005FF36E3C01800080FB
:100CA00082B0144B0193012213E0511C124B1B68BC
:100CB000B3FBF1F001FB103308326A4412F8040C64
:100CC00008336B4413F804CC02F804CC03F8040C8A
:100CD000CAB2032AE9D9002308E003F108026A44F2
:100CE00012F8041C054AD1540133DBB2032BF4D9AA
:100CF00002B0704701020304B0000020A0000020F1
:100D000038B50D461446FFF75DFB15A3D3E9002364
:100D1000FFF7FCFC0022164BFFF7CEFB0022154B21
:100D2000FFF7CAFB03F040FD0FA3D3E90023FFF751
:100D3000C3FBFFF783FE80B214B92B68586338BD3C
:100D4000042C04D0082C05D02B681864F7E72B6816
:100D50009863F4E72B68D863F1E700BFAFF3008036
:100D60000000000000FEAF4000000000E0FFEF4088
:100D7000000018400000E03F10B50F4B1B780F4AF1
:100D8000D25C824208D000220B4B1A704FF4005103
:100D90000B4801F0E7FF10BD074C0133237001221F
:100DA0004FF40051064801F0DDFF2378042BF2D107
:100DB000044B01221A70EEE7A4000020A0000020DE
:100DC00000040240A500002010B582B08DF8040098
:100DD0008DF805100A4C00224FF48071204601F076
:100DE000C1FF4FF47A73022201A9064802F04BFAC0
:100DF00001224FF48071204601F0B4FF02B010BD13
:100E0000000002408402002010B52F4B1B782F4AAF
:100E1000D25C824208D000222B4B1A704FF4005152
:100E20002B4801F09FFF10BD274C01332370012296
:100E30004FF40051264801F095FF2378012B28D06C
:100E4000214B1B78022B29D01F4B1B78032B2ED054
:100E50001D4B1B78042BE6D104210846FFF7B4FF95
:100E600003210846FFF7B0FF02210846FFF7ACFF59
:100E700001210846FFF7A8FF164B01221A70002235
:100E80004FF40051124801F06DFF0F4B00221A7011
:100E9000C9E701210420FFF797FFD1E702210420D1
:100EA000FFF792FF01210320FFF78EFFCCE703211C
:100EB0000420FFF789FF02210320FFF785FF0121AE
:100EC0000220FFF781FFC3E7A600002000000020FA
:100ED00000040240A700002070B5054601210C2047
:100EE000FFF772FF0F210920FFF76EFF03210B2090
:100EF000FFF76AFF01210A20FFF766FF00240EE0DA
:100F0000FF210846FFF760FF322001F0E5F90021DC
:100F1000FF20FFF759FF322001F0DEF90134022CE7
:100F2000EEDD1B4EA6FB05367309C6F34716C3EB71
:100F30000313A5EB8304E4B2092E25D91549A1FBBF
:100F40000631CB08194603EB8303A6EB4303DEB25D
:100F5000092C1BD90F4DA5FB0435EB081D4603EBEF
:100F60008303A4EB4303DCB20120FFF72DFF3146DE
:100F70000220FFF729FF29460320FFF725FF21461E
:100F80000420FFF721FF70BD0021E1E70025EBE71A
:100F900089888888CDCCCCCC00283AD0F8B5441EBE
:100FA000A4B21D4EA6FB04367509C6F34716C5EB61
:100FB0000515A4EB8505EDB2092D0AD9174FA7FB3E
:100FC0000537FB081F4603EB8303A5EB4303DDB2A4
:100FD00000E00027092E0AD91049A1FB0631CB08F1
:100FE000194603EB8303A6EB4303DEB200E00021C6
:100FF0000120FFF7E9FE31460220FFF7E5FE394602
:101000000320FFF7E1FE29460420FFF7DDFE20461E
:10101000F8BD0020704700BF89888888CDCCCCCC33
:1010200000B583B0AA238DF8003007238DF8013076
:1010300002238DF8023000238DF803308DF8040070
:101040004D388DF805004FF47A730622694603483F
:1010500002F084FE03B05DF804FB00BFFC0000203A
:1010600008B5B0F5006F3AD01DD820285DD04028D3
:101070003DD101F02BF93B4B9B6803F596739842E9
:1010800035D9394803F008F801F020F9354B98605C
:101090000520FFF7C5FF354B1B78002B41D10320FE
:1010A000FFF7B2FE23E0B0F5805F20D101F00EF92A
:1010B0002C4B5B6803F59673984218D92C4802F0C4
:1010C000EBFF01F003F9274B58600520FFF7A8FF5D
:1010D000264B1B780BBB0220FFF796FE07E001F0C2
:1010E000F5F8204B1B6803F59673984200D808BDAD
:1010F000204802F0D1FF01F0E9F81A4B18600520F2
:10110000FFF78EFF194B1B781BB90120FFF77CFE00
:10111000EDE70120FFF730FEE9E70220FFF72CFEA4
:10112000E5E70320FFF728FEE1E701F0CFF80D4BDC
:10113000DB6803F596739842D9D90F4802F0ACFFEB
:1011400001F0C4F8074BD8600520FFF769FF074B93
:101150001B781BB90420FFF757FEC8E70420FFF7F0
:101160000BFEC4E790000020985D00088C00002072
:10117000905D0008885D0008A05D000838B5044651
:101180000368B3F1804F04D02268174B9A4225D0F0
:1011900038BD164D02222946154800F0EFFF042203
:1011A00014492888FFF7ACFD002213496888FFF72F
:1011B000A7FDFFF75DFD114A1378013313702B88EB
:1011C000B3F5714FE0D96B88B3F5714FDCD90C4B97
:1011D00001221A700B4802F05FFFD5E70A4C207815
:1011E000FFF7DAFE2070D3E7000C0140AC000020CE
:1011F00020030020C401002044010020A900002099
:10120000AA000020A85D00080400002072B6FEE7D6
:1012100008B50A480A4B03604FF4E13343600023EA
:101220008360C36003610C2242618361C36102F089
:1012300065FD00B908BDFFF7E9FF00BFB40000205D
:101240000044004000B585B000230193029303934E
:101250001B481C4A026043608360C3604FF4807285
:10126000026143618361C361036280F8243002221A
:10127000826280F82C30102242638363012380F85D
:101280003C3000F0B1FCA8B9002301930122029286
:10129000039301A90A4800F05BFE68B9012301939A
:1012A0000223029301A9064800F052FE30B905B0AE
:1012B0005DF804FBFFF7AAFFFFF7A8FFFFF7A6FF03
:1012C000200300200024014008B50E480E4B0360A7
:1012D0004FF4827343604FF4004383600023C36084
:1012E000036143614FF400728261C3610362436230
:1012F00083620A23C36201F067FF00B908BDFFF7EC
:1013000085FF00BF840200200030014000B585B099
:10131000002300930193029303930F480F4A026046
:1013200040F2E7324260836047F6FF42C2600361E9
:10133000436102F079F950B94FF480530093694644
:10134000054802F0D5FA20B905B05DF804FBFFF7B7
:101350005DFFFFF75BFF00BF84010020000C014030
:1013600008B50A480A4B03604FF416534360002344
:101370008360C36003610C2242618361C36102F038
:10138000BDFC00B908BDFFF741FF00BFFC00002015
:10139000004C004000B587B00023029303930493F0
:1013A00005930093019314484FF08042026040F689
:1013B0007F42426083603122C2600361436102F078
:1013C00033F990B94FF48053029302A90A4802F00E
:1013D0008FFA60B90023009301936946064802F032
:1013E000A7FB30B907B05DF804FBFFF70FFFFFF76D
:1013F0000DFFFFF70BFF00BF4402002000B587B0D0
:1014000000230493059300930193029303931648DA
:10141000164A0260436083604FF6FF72C260036148
:10142000436102F06DF9C8B900230493059304A940
:101430000D4802F07DFB98B96023009300230193CF
:101440000293039304226946074802F0E3F948B97E
:10145000054800F023FB07B05DF804FBFFF7D6FE5C
:10146000FFF7D4FEFFF7D2FEC401002000080140C0
:1014700000B585B0002300930193029303931148B4
:10148000114A0260436083604FF6FF72C2600361DD
:10149000436102F035F980B9602300930022019284
:1014A000029203926946074802F0B4F938B9054838
:1014B00000F0F4FA05B05DF804FBFFF7A7FEFFF7B4
:1014C000A5FE00BF440100200010014000B587B018
:1014D000002302930393049305930093019314480C
:1014E000144A026040F2F3124260836043F67F6266
:1014F000C2600361436102F097F890B94FF48053E2
:10150000029302A90A4802F0F3F960B9002300939C
:1015100001936946064802F00BFB30B907B05DF84D
:1015200004FBFFF773FEFFF771FEFFF76FFE00BFCE
:10153000040200200004004000B593B034220021D2
:1015400005A802F089FE0023009301930293039300
:10155000049316490A6822F4C05242F400620A60F9
:101560000222059201210891102109910E920F93F8
:101570004FF4002310934FF40003119305A800F0DB
:1015800007FF78B90F2300930323019300230293ED
:10159000039304930121684601F0E4F920B913B0E4
:1015A0005DF804FBFFF732FEFFF730FE00700040ED
:1015B00008B500F06FFEFFF7BFFFFFF7BFFAFFF7B8
:1015C0003DFBFFF725FEFFF73DFEFFF77DFEFFF732
:1015D0009DFEFFF7C5FEFFF7DDFEFFF70FFFFFF7EC
:1015E00047FFFFF773FF534802F056FD524802F0E1
:1015F0003FF80021514802F0A7F80421504802F0BA
:10160000A3F8504802F034F80020FFF765FC0220F0
:10161000FFF706FD20E04C4802F03EFD4B4B1B78E7
:10162000D3B10620FFF7FCFC40F2DC5000F054FE82
:10163000474B1878FFF750FCFFF732FB434B002273
:101640001A70444B01221A7006E0434802F010F869
:10165000404B1B78012B0FD03E4B1B78032BFBD844
:1016600001A252F823F000BF171600084B1600081D
:10167000F716000815170008384802F00DFD344B26
:101680001B7813B9334B03221A70354B1B7813BBED
:101690002F4B1B780F2B02D9324AC82111700F2B08
:1016A00002D8304A642111700A2B02D82D4A322107
:1016B0001170052B02D82B4B1E221A702A4B1A7858
:1016C000284B1B789A42C7D90120FFF7A9FC264B6B
:1016D00000221A70C0E74FF40051244801F048FB83
:1016E000C82000F0F9FD224B1B78002BD0D0194BFD
:1016F00002221A70CCE7022BAED11E4802F0CCFCBD
:10170000154801F0E9FF0320FFF78AFC114B002286
:101710001A70A1E7032B9FD1174802F0BDFC0E48B9
:1017200001F0DAFF0420FFF77BFC0A4B00221A705D
:1017300092E700BFB05D0008440200204401002091
:10174000C401002004020020BC5D0008A7000020A6
:10175000040000208C00002084010020D45D0008DB
:10176000A5000020A8000020A900002000040240DD
:10177000AA000020E05D0008F05D0008FEE7FEE73B
:10178000FEE7FEE7FEE770477047704708B500F0D8
:1017900091FD08BD08B5024801F0A3FB08BD00BFDC
:1017A000DC02002008B5024800F034FB08BD00BF91
:1017B0002003002008B5202001F0E4FA402001F0C9
:1017C000E1FA08BD08B5024802F015F908BD00BFEE
:1017D000C401002008B5024802F00DF908BD00BFA1
:1017E0008401002008B5024802F005F908BD00BFD9
:1017F0004401002008B5024802F0FDF808BD00BF12
:101800004402002008B5024802F0F5F808BD00BF08
:101810000402002008B54FF4006001F0B3FA4FF461
:10182000805001F0AFFA08BD00B585B0104B5A6A80
:1018300042F000425A625A6A02F000420192019A52
:101840001A6A42F001021A621A6A02F00102029256
:10185000029A5A6A42F080525A625B6A03F08053DD
:101860000393039B072001F0D3FB05B05DF804FB55
:101870000038024010B588B0002303930493059309
:10188000069307930268234B9A4201D008B010BD1B
:10189000044603F58A331A6A42F400721A621A6A1D
:1018A00002F400720192019ADA6942F00102DA61EF
:1018B000DB6903F001030293029B03230393049368
:1018C00003A9154801F05AF91448154B0360002389
:1018D000436083608023C3604FF4807303614FF4DF
:1018E00080634361202383614FF48053C36101F01F
:1018F00073FA58B9094B63645C6205220021122017
:1019000001F098FB122001F0A5FBBFE7FFF77EFC7A
:10191000F0E700BF0024014000000240DC0200208C
:101920000860024000B589B0002303930493059337
:10193000069307930268134B9A4202D009B05DF8F0
:1019400004FB03F584331A6A42F480521A621A6A5D
:1019500002F480520192019ADA6942F00102DA61DE
:10196000DB6903F001030293029BA023039302238C
:101970000493032306930523079303A9024801F068
:10198000FDF8DBE7003001400000024000B585B003
:101990000368B3F1804F08D0214A934219D0214AFD
:1019A000934229D005B05DF804FB03F50E335A6A63
:1019B00042F001025A625B6A03F001030193019B4A
:1019C000012200211C2001F035FB1C2001F042FB0C
:1019D000E8E7154B5A6A42F002025A625B6A03F06A
:1019E00002030293029B032200211D2001F022FB2F
:1019F0001D2001F02FFBD5E70B4B1A6A42F00802BD
:101A00001A621B6A03F008030393039B022200215E
:101A10001A2001F00FFB1A2001F01CFBC2E700BFE7
:101A200000040040000C01400038024000B583B0C3
:101A30000368174A934205D0164A934215D003B063
:101A40005DF804FB144B1A6A42F004021A621B6A26
:101A500003F004030093009B04220021192001F0ED
:101A6000E9FA192001F0F6FAE9E70B4B1A6A42F09D
:101A700010021A621B6A03F010030193019B0422F7
:101A800000211B2001F0D6FA1B2001F0E3FAD6E773
:101A900000080140001001400038024000B589B044
:101AA00000230393049305930693079303681A4A4C
:101AB000934205D0194A934218D009B05DF804FB4F
:101AC000174BDA6942F00202DA61DB6903F00203C4
:101AD0000193019B4FF48043039302230493032358
:101AE000079303A90F4801F049F8E6E70C4BDA69C0
:101AF00042F00202DA61DB6903F002030293029B07
:101B00004FF400430393022304930323079303A991
:101B1000044801F033F8D0E700080140001001400C
:101B2000003802400004024000B58BB0002305934A
:101B300006930793089309930368264A934205D0B6
:101B4000254A934225D00BB05DF804FB234B5A6A1B
:101B500042F400225A625A6A02F400220192019A67
:101B6000DA6942F00402DA61DB6903F004030293EC
:101B7000029B4FF4406305930223069301230793CE
:101B8000032308930823099305A9154800F0F6FFDD
:101B9000D9E7124B5A6A42F400325A625A6A02F486
:101BA00000320392039ADA6942F00102DA61DB69DA
:101BB00003F001030493049B0C2305930223069373
:101BC000032308930723099305A9064800F0D6FFCD
:101BD000B9E700BF004C004000440040003802401C
:101BE0000008024000000240002800F0BC8070B5F0
:101BF00082B00446C36C002B5FD0E36C13F0100F6F
:101C000040F0B380E36C23F4885323F0020343F0E5
:101C10000203E364564A536823F4403361680B437C
:101C20005360E3686269134394F83C104FF4007208
:101C300092FAA2F2B2FA82F201FA02F21343226A93
:101C4000134394F82400022292FAA2F2B2FA82F22A
:101C500000FA02F21343626B102A02D0A16B0A430E
:101C6000134325682A6812F0400214D1A1690B437E
:101C7000A168E66931432669B6F5807F30D0012E30
:101C80002BD00A4394F82C1001292BD068683949CD
:101C900001401143696021688868374A02401A434D
:101CA0008A602269B2F5807F33D0012A31D0216861
:101CB0000A6B22F0F8720A633AE0036580F8483054
:101CC0002E4B1A6A42F001021A621B6A03F00103EA
:101CD0000193019BFFF7CEFD8FE74FF48072D0E7B1
:101CE0003246CEE760B9216B01394FF4604090FA7B
:101CF000A0F0B0FA80F0814041F400610A43C5E7EA
:101D0000E16C41F02001E164216D41F001012165A8
:101D1000BCE725682A6B22F0F872A16A01394FF0FE
:101D2000F87090FAA0F0B0FA80F081400A432A637C
:101D300022689168124A0A409A420BD0E36C23F061
:101D4000120343F01003E364236D43F001032365A2
:101D500001200BE000202065E36C23F0030343F037
:101D60000103E36402E001207047012002B070BD6E
:101D700000270140FF16FCFC89F1FFC0003802403B
:101D8000FEFF80BF704708B5436ADA6C12F0500F4F
:101D900027D1DA6C42F40072DA641A68916811F0A3
:101DA000405F1AD193F82410B9B9116B11F0F87F84
:101DB00003D0916811F4806F0FD1516821F0200198
:101DC0005160DA6C22F48072DA64DA6C12F4805FAB
:101DD00003D1DA6C42F00102DA641846FFF7D2FF51
:101DE00008BD5B6C1B6B9847FAE7704708B5406A03
:101DF000FFF7FBFF08BD7047704708B5406AC36C2A
:101E000043F04003C364036D43F004030365FFF72D
:101E1000F3FF08BD70B5044603681E685D6815F0E1
:101E2000200F30D016F0020F2DD0C26C12F0100F20
:101E300003D1C26C42F40072C2649A6812F0405F2F
:101E40001AD194F82420BAB91A6B12F0F87F03D093
:101E50009A6812F4806F0FD15A6822F020025A60FB
:101E6000E36C23F48073E364E36C13F4805F03D1C9
:101E7000E36C43F00103E3642046FFF783FF23682C
:101E80006FF012021A6015F0800F39D016F0040FAF
:101E900036D0E36C13F0100F03D1E36C43F400531E
:101EA000E36423689A6812F4401F22D15A6C12F43A
:101EB000401F03D09A6812F4806F1AD15A6812F446
:101EC000806F16D19A6812F0405F12D194F82420E6
:101ED0007AB95A6822F080025A60E36C23F4805386
:101EE000E364E36C13F4807F03D1E36C43F00103FC
:101EF000E364204600F0A4F923686FF00C021A6036
:101F000015F0400F02D016F0010F06D115F0806FCA
:101F100002D016F0200F0CD170BDE36C43F4803377
:101F2000E3642046FFF767FF23686FF001021A6041
:101F3000ECE7236D43F00203236523686FF020056F
:101F40001D602046FFF758FF23681D60E4E700008E
:101F500030B482B00023019390F84830012B00F098
:101F6000BE800246012380F848304B68062B2BD8F0
:101F70000468206C03EB8303053B4FF01F0C0CFA45
:101F800003FC20EA0C000D6805FA03F30343236405
:101F90000B68092B56D81468606903EB43034FF0B4
:101FA000070C0CFA03FC20EA0C008D6805FA03F319
:101FB000034363610B68103B012B71D9002082F849
:101FC000480002B030BC70470C2B0DD80568E86B98
:101FD00003EB8303233B1F249C4020EA04000C688E
:101FE0009C402043E863D3E7122B0DD80568A86B0B
:101FF00003EB8303413B1F249C4020EA04000C6850
:102000009C402043A863C3E7182B0DD80568686B74
:1020100003EB83035F3B1F249C4020EA04000C6811
:102020009C4020436863B3E70568286B03EB830398
:102030007D3B1F249C4020EA04000C689C40204308
:102040002863A5E7132B0DD81568286903EB430314
:102050001E3B07249C4020EA04008C689C402043DF
:102060002861A7E71D2B0DD81568E86803EB43032B
:102070003C3B07249C4020EA04008C689C402043A1
:10208000E86097E71568E86D03EB43035A3B0724C4
:102090009C4020EA04008C689C402043E86589E766
:1020A000104B5B6813F4000F88D10E48436843F46B
:1020B000000343600B68102B80D10B4B1B680B494E
:1020C000A1FB03139B0C03EB83035B00019302E072
:1020D000019B013B0193019B002BF9D16EE702208C
:1020E0006FE700BF002701401000002083DE1B4384
:1020F00030B583B00023019303681A6812F0400FD3
:1021000035D104469A6842F001029A60194B1B6867
:10211000194AA2FB03239B0C03EB4303019302E048
:10212000019B013B0193019B002BF9D100F0CEF8FC
:10213000054623681B6813F0400F16D100F0C6F85F
:10214000431B022BF5D923681B6813F0400FF0D115
:10215000E36C43F01003E364236D43F00103236554
:10216000002384F84830012002E0002000E0002035
:1021700003B030BD1000002083DE1B43F8B50D46D0
:1021800090F84810012952D004461646012380F8E1
:102190004830FFF7ADFF0746002849D1E16C21F434
:1021A000E06121F0010141F48071E16423685B6822
:1021B00013F4806F05D0E36C23F4405343F4805351
:1021C000E364E36C13F4805F2ED0236D23F00603E9
:1021D0002365002384F84830636C164A9A62636C66
:1021E000154ADA62636C154A1A6323686FF022029B
:1021F0001A602268536843F08063536022689368D2
:1022000043F480739360216833462A465831606CEA
:1022100000F02CFE23689A6812F0405F08D19A689B
:1022200042F080429A6003E000232365D1E7022751
:102230003846F8BD871D0008ED1D0008FB1D00088D
:1022400070470000104B1B680BB90120704710B598
:1022500004464FF47A70B0FBF3F30C4A1068B0FBFD
:10226000F3F000F005FF68B90F2C01D901200AE056
:10227000002221464FF0FF3000F0DCFE044B1C60D2
:10228000002000E0012010BD080000201000002008
:102290000C00002010B5032000F0BAFE0020FFF76C
:1022A000D1FF10B10124204610BD0446FFF7BCFA4F
:1022B000F9E70000034A1368034909680B441360F7
:1022C000704700BF7403002008000020014B18680D
:1022D000704700BF7403002038B50446FFF7F6FFCF
:1022E0000546B4F1FF3F02D0044B1B681C44FFF7C6
:1022F000EDFF401BA042FAD338BD00BF080000200C
:1023000010B483B01F4B9B6813F0F00328D11D4A13
:10231000526A12F0805F10D01B4A126802F4C05259
:10232000B2F5C05F1DD1B0F5404F1AD1174A1368FE
:1023300043F004031360012313E012494A6A42F098
:1023400080524A624A6A02F080520192019A0E4A11
:10235000126802F4C0524C6A24F080544C62DFE7E9
:1023600000230A490A6822F001021A430A600A6837
:1023700002F001029A4203D1002003B010BC704762
:102380000120FAE70038024000700040003C0240A3
:10239000002800F05E82F0B583B00446A24B9D6831
:1023A00005F00C059E6806F48036036813F0010FF3
:1023B0001DD0082D12D00C2D0ED06368012B35D006
:1023C000002B49D1984B1A6822F480321A601A689F
:1023D00022F480221A602EE0002EEED0924B1B6871
:1023E00013F4003F03D06368002B00F034822368AD
:1023F00013F0020F68D0042D55D00C2D51D0E36896
:10240000002B00F0C780894B01221A60FFF75EFFA6
:102410000646854B1B6813F0020F40F0B280FFF7B1
:1024200055FF801B0228F4D903201DE27E4A136861
:1024300043F480331360636823B3FFF747FF074615
:10244000794B1B6813F4003FD1D1FFF73FFFC01B4E
:102450006428F5D9032007E2052B09D0724B1A68CE
:1024600022F480321A601A6822F480221A60E2E7AD
:102470006D4B1A6842F480221A601A6842F4803266
:102480001A60D8E7FFF722FF0746674B1B6813F473
:10249000003FACD0FFF71AFFC01B6428F5D903201A
:1024A000E2E1002EABD1604B1B6813F0020F03D0AA
:1024B000E368012B40F0D1815B4A536823F4F85361
:1024C000216943EA01235360236813F0100F3BD0C6
:1024D000002D40F08580544B1B6813F4007F03D01F
:1024E000A369002B00F0BB81206A4F4B5B6803F4AB
:1024F0006043984260D9FFF703FF002840F0B181A4
:10250000494A536823F46043216A0B43536053687C
:1025100023F07F43E16943EA01635360236A5B0B65
:102520005A1C4FF4004393403F4A9268C2F303128F
:102530003F498A5CD3403F4A13603F4B1868FFF71E
:1025400081FE002840F09081236813F0080F00F00E
:102550009B806369002B00F08480344B0122C3F818
:102560008026FFF7B3FE06462F4B5B6B13F0020F7E
:1025700040F08A80FFF7AAFE801B0228F4D90320CE
:1025800072E1294A536823F4F853216943EA01238D
:10259000536099E7254B00221A60FFF797FE064625
:1025A000214B1B6813F0020F8ED0FFF78FFE801BAC
:1025B0000228F5D9032057E11B4A536823F46043EE
:1025C00018435060536823F07F43E16943EA016395
:1025D0005360206AFFF794FE00289FD0012043E15A
:1025E000A3695BB3114B01221A62FFF76FFE064627
:1025F0000D4B1B6813F4007F06D1FFF767FE801BAD
:102600000228F5D903202FE1074A536823F46043D9
:10261000216A0B435360536823F07F43E16943EA27
:102620000163536090E700BF00380240000047425A
:10263000085E0008100000200C0000208F4B0022D4
:102640001A62FFF743FE06468D4B1B6813F4007FAA
:102650003FF47AAFFFF73AFE801B0228F4D903203B
:1026600002E1864B0022C3F88026FFF72FFE0646C4
:10267000834B5B6B13F0020F06D0FFF727FE801B26
:102680000228F5D90320EFE0236813F0040F79D076
:102690007B4B5B6A13F0805F0BD1794B5A6A42F037
:1026A00080525A625B6A03F080530193019B0126BA
:1026B00000E00026734B1B6813F4807F0ED0A368E4
:1026C000012B1FD0002B35D16D4B5A6B22F4807239
:1026D0005A635A6B22F480625A6318E0694A13689D
:1026E00043F480731360FFF7F1FD0746654B1B68E9
:1026F00013F4807FE3D1FFF7E9FDC01B6428F5D90F
:102700000320B1E05E4A536B43F480735363A368C4
:1027100033B3FFF7DBFD0746594B5B6B13F4007FC8
:102720002FD1FFF7D3FDC01B41F288339842F3D974
:10273000032099E0052B09D0514B5A6B22F480728B
:102740005A635A6B22F480625A63E0E74C4B5A6B2F
:1027500042F480625A635A6B42F480725A63D6E73D
:10276000FFF7B4FD0746464B5B6B13F4007F08D0C0
:10277000FFF7ACFDC01B41F288339842F3D9032028
:1027800072E0C6B9636A002B6DD00C2D4CD0022BC1
:1027900017D03A4B00221A66FFF798FD0446384BD3
:1027A0001B6813F0007F3DD0FFF790FD001B02284F
:1027B000F5D9032058E0324A536A23F0805353621C
:1027C000E0E72E4B00221A66FFF780FD05462C4BF2
:1027D0001B6813F0007F06D0FFF778FD401B02282E
:1027E000F5D9032040E026498B6823F47D03A26AD3
:1027F000E06A0243206B024313438B601F4B0122AC
:102800001A66FFF763FD04461D4B1B6813F0007F3B
:1028100006D1FFF75BFD001B0228F5D9032023E05A
:10282000002021E000201FE0012B1FD0144B9B68EB
:1028300003F48031A26A91421AD103F47012E16A62
:102840008A4217D103F44003226B934214D1002033
:102850000AE001207047012006E0012004E0012089
:1028600002E0012000E0002003B0F0BD0120FBE702
:102870000120F9E70120F7E70120F5E700004742D2
:10288000003802400070004008B5324B9A6802F0F0
:102890000C03082B5AD00C2B0AD0042B58D02D4BEC
:1028A0005B68C3F3423301334FF40040984008BDE6
:1028B000C2F383432849C85CC2F381520132254BDD
:1028C0009B6813F4803F20D04FEA401CBCEB000C07
:1028D0006EEB0E0E4FEA8E1343EA9C634FEA8C11A7
:1028E000B1EB0C0163EB0E03DB0043EA5173C9004B
:1028F00011EB000C43F10003590200234FEA4C2076
:1029000041EADC51FEF7BAF8D1E74FEA401CBCEBD4
:10291000000C6EEB0E0E4FEA8E1343EA9C634FEAF7
:102920008C11B1EB0C0163EB0E03DB0043EA517336
:10293000C90011EB000C43F10003990200234FEA98
:102940008C2041EA9C51FEF799F8B0E70348AEE7C6
:102950000348ACE700380240185E000800127A0015
:102960000024F400002800F0D18070B50C46054624
:102970006A4B1B6803F001038B420DD2012928D05A
:10298000664A136823F0010323431360136803F0BE
:102990000103A34240F0BC802B6813F0020F06D065
:1029A0005F4A936823F0F003A9680B4393602B6898
:1029B00013F0010F72D06B68022B10D0032B32D0B2
:1029C000012B37D0564A126812F4007F0DD1012036
:1029D0009BE0524A136843F004031360D0E7504A67
:1029E000126812F4003F00F095804D498A6822F089
:1029F000030213438B60FFF769FC06466B68022BEA
:102A00001FD0032B2CD0012B39D0454B9B6813F0E2
:102A10000C0F43D0FFF75AFC801B41F288339842D9
:102A2000F3D9032071E03E4A126812F0007FDCD136
:102A300001206AE03A4A126812F0020FD5D1012053
:102A400063E0374B9B6803F00C03082B26D0FFF79D
:102A50003DFC831B41F288329342F2D9032054E0BB
:102A60002F4B9B6803F00C030C2B17D0FFF72EFCA9
:102A7000801B41F288339842F2D9032045E0284B6D
:102A80009B6803F00C03042B08D0FFF71FFC801B8E
:102A900041F288339842F2D9032036E01F4B1B687D
:102AA00003F00103A3420AD91C4A136823F001036F
:102AB00023431360136803F00103A3422CD12B6856
:102AC00013F0040F06D0164A936823F4E063E96814
:102AD0000B4393602B6813F0080F07D0104A9368DC
:102AE00023F46053296943EAC1039360FFF7CCFEE6
:102AF0000B4B9B68C3F303130A4AD35CD8400A4BC1
:102B000018600A4B1868FFF79DFB70BD01207047E5
:102B10000120FAE70120F8E70120F6E7003C024037
:102B200000380240085E0008100000200C00002061
:102B3000014B1868704700BF1000002008B5FFF770
:102B4000F7FF044B9B68C3F30223034AD35CD840CE
:102B500008BD00BF00380240005E000808B5FFF75E
:102B6000E7FF044B9B68C3F3C223034AD35CD840FE
:102B700008BD00BF00380240005E000870B582B09A
:102B8000002365E085685E000324B44025EA04055F
:102B9000CC68B4402C438460456825EA0C054C6839
:102BA000C4F300149C402C43446062E0DD08083507
:102BB00050F8254003F0070C4FEA8C0C4FF00F0E35
:102BC0000EFA0CFE24EA0E0E0C6904FA0CF444EA28
:102BD0000E0440F8254063E0062400E0002404FAD7
:102BE0000EF42C430CF1020C5A4D45F82C405A4C73
:102BF000A568D44325EA0206D1F804C01CF4801F5E
:102C000001D042EA0506544DAE60ED6804EA0506BF
:102C1000D1F804C01CF4001F01D042EA05064E4D55
:102C2000EE606D6804EA0506D1F804C01CF4003FAC
:102C300001D042EA0506484D6E602D682C404E6872
:102C400016F4803F01D042EA0504434A1460013380
:102C50000A6832FA03F47BD04FF0010C0CFA03FC43
:102C60001CEA0202F3D04C6804F00304013C012C7E
:102C700088D94C6804F00304032C0CD0C4685D00B0
:102C80004FF0030C0CFA05FC24EA0C0C8C68AC40E9
:102C900044EA0C04C4604C6804F00304022C85D0A0
:102CA00004684FEA430E4FF0030C0CFA0EFC24EAC2
:102CB0000C0C4C6804F0030404FA0EF444EA0C040F
:102CC00004604C6814F4403FC1D0244C256A45F0A0
:102CD00001052562246A04F001040194019C4FEA75
:102CE000930C0CF102051B4C54F8255003F0030E15
:102CF0004FEA8E0E0F2404FA0EF425EA0405184C50
:102D0000A0423FF46BAF04F58064A04216D004F5F6
:102D10008064A04214D004F58064A04212D004F56F
:102D20008064A04210D004F58064A0420ED004F567
:102D30008064A0423FF450AF072450E701244EE7DF
:102D400002244CE703244AE7042448E7052446E725
:102D500002B070BD00000140000401400038024094
:102D6000000002400AB18161704709048161704727
:102D7000436901EA030221EA030141EA0241816158
:102D80007047000008B5054B5B69034200D108BDE0
:102D9000024B5861FEF764F9F9E700BF00040140F7
:102DA00010B4046C04F01C0C012404FA0CF4D0F8E8
:102DB0003CC0CCF80440046863604368102B05D025
:102DC000036899600368DA6010BC704703689A6012
:102DD0000368D960F8E70000002838D010B4024634
:102DE00001681C4B994227D81B4B0B441B48A0FB86
:102DF00003031B099B001364194BD363022382F85E
:102E0000213008686FF30E10536894682343D46828
:102E10002343146923435469234394692343D469A6
:102E2000234303430B6000209063012382F8213089
:102E300082F8200010BC70470A4B0B440748A0FBE7
:102E400003031B099B001364074BD363D6E70120E0
:102E5000704700BF07640240F89FFDBFCDCCCCCCCB
:102E600000600240F89BFDBF0064024038B5044694
:102E700090F82000012832D0012084F8200094F836
:102E80002100C0B2012804D0002384F820300220A1
:102E900038BD022084F821000020A063256828683E
:102EA00020F0010028602046FFF77AFFE36A5BB15B
:102EB0002268136843F00E0313602268136843F01E
:102EC000010313600020E3E72268136823F0040382
:102ED00013602268136843F00A031360EDE70220D1
:102EE000D6E738B5C36B196804682568036C03F02E
:102EF0001C0304229A400A4215D015F0040F12D088
:102F0000236813F0200F03D1236823F00403236008
:102F1000036C03F01C02C16B042393404B60C36A33
:102F200003B1984738BD02229A400A421CD015F0DE
:102F3000020F19D0236813F0200F06D1236823F065
:102F40000A032360012380F82130036C03F01C0284
:102F5000C16B022393404B60002380F82030836ACA
:102F6000002BDFD09847DDE7082202FA03F30B427B
:102F7000D8D015F0080FD5D0236823F00E032360B6
:102F8000036C03F01C03C16B012202FA03F34B60D4
:102F9000826380F82120002380F82030036B002B0F
:102FA000C0D09847BEE70000002808DB0901C9B27D
:102FB00000F1604000F5614080F80013704700F0B8
:102FC0000F000901C9B2014B1954704714ED00E01C
:102FD00000B500F00700C0F1070CBCF1040F28BFDA
:102FE0004FF0040C031D062B0FD9C31E4FF0FF3EFC
:102FF0000EFA0CF021EA000199400EFA03FE22EAD3
:103000000E0241EA02005DF804FB0023EEE7000037
:10301000074AD36823F4E0631B041B0C000200F48E
:10302000E060034343F0BF6343F40033D360704771
:1030300000ED00E010B50446054BD868C0F302204F
:10304000FFF7C6FF01462046FFF7AEFF10BD00BFE9
:1030500000ED00E0002807DB00F01F02400901231B
:103060009340024A42F82030704700BF00E100E080
:103070000138B0F1807F0BD24FF0E0235861054A50
:10308000F02182F823100020986107221A6170470E
:103090000120704700ED00E02DE9F04782B00546C1
:1030A000884617461E46FFF711F90A9B1B1A03EBC9
:1030B0000609FFF70BF98246284B1B68C3F3CB3395
:1030C00009FB03F301932B689C6838EA04040CBFE6
:1030D00001230023BB423DD0B6F1FF3FF3D0FFF701
:1030E000F5F8A0EB0A00484507D2019A02B14A461A
:1030F000019B013B01939146E5E72A68536823F061
:10310000E00353606B68B3F5827F0BD0AB6AB3F515
:10311000005F14D0012385F85130002385F850302A
:10312000032018E0AB68B3F5004F02D0B3F5806F11
:10313000ECD12A68136823F040031360E6E72A689D
:10314000136823F4005313602A68136843F4005390
:103150001360DFE7002002B0BDE8F0871000002018
:1031600010B584B00446164B1868164BA3FB00300C
:10317000400D4FF47A7303FB00F003906368B3F5DE
:10318000827F0BD0039BBBB1039B013B039323685E
:103190009B6813F0800FF5D100200EE000920B46E3
:1031A000002280212046FFF777FF30B1636D43F0A6
:1031B00020036365032000E0002004B010BD00BFC1
:1031C00010000020819F5E1600285AD010B50446DA
:1031D000436A33B94368B3F5827F05D00023C361E6
:1031E00002E00023036143610023A36294F851309D
:1031F000002B40D0022384F851302268136823F05A
:1032000040031360636803F48273A26802F404420B
:103210001343E26802F400621343226902F00202DF
:103220001343626902F001021343A26902F40072BF
:103230001343E26902F038021343226A02F080026B
:103240001343A26A02F40052216813430B60638B9C
:1032500003F00403626A02F01002216813434B601A
:103260002268D36923F40063D361002060650123E1
:1032700084F8513010BD84F850302046FEF752FBE0
:10328000B8E7012070472DE9F04383B01D4690F860
:103290005030012B00F0D18004468846914601232E
:1032A00080F85030FFF712F8074694F85160F6B2F4
:1032B000012E40F0BA80B8F1000F00F0B780B9F1EC
:1032C000000F00F0B380032384F8513000236365BE
:1032D000C4F83080A4F83490A4F83690A363A38790
:1032E000E38763642364A368B3F5004F1ED02368AB
:1032F0001A6812F0400F03D11A6842F040021A60B7
:10330000E368B3F5006F1CD0636813B1B9F1010F26
:1033100055D1226B236812781A73236B0133236310
:10332000E38E9BB2013B9BB2E38648E022681368C0
:1033300023F0400313602268136843F48043136052
:10334000D5E7636813B1B9F1010F15D1226B23687A
:103350001288DA60236B02332363E38E9BB2013B56
:103360009BB2E38608E0FEF7B1FFC01BA84202D380
:10337000B5F1FF3F15D1A5B1E38E9BB2002B3CD038
:1033800023689A6812F0020FEDD0226B1288DA607F
:10339000236B02332363E38E9BB2013B9BB2E38634
:1033A000EAE7012384F8513003263FE0FEF78EFF61
:1033B000C01BA84202D3B5F1FF3F19D1C5B1E38EBE
:1033C0009BB2D3B123689A6812F0020FEED0226B41
:1033D00012781A73236B01332363B4F836C01FFAD3
:1033E0008CFC0CF1FF3C1FFA8CFCA4F836C0E6E71D
:1033F000012384F85130032618E03A462946204636
:10340000FFF7AEFE08B120236365A36833B90193CB
:103410002368DA6801929B680193019B636D2BB965
:10342000012384F85130002600E00226002384F8AE
:103430005030304603B0BDE8F0830226F9E70000C3
:103440000368B0F1804F0ED01E4A90420BD002F5B7
:103450008062904207D002F58062904203D002F56C
:103460007C42904203D123F070034A681343B0F1C9
:10347000804F16D0134A904213D002F580629042DA
:103480000FD002F5806290420BD002F57C42904250
:1034900007D002F58062904203D002F5806290422C
:1034A00003D123F44073CA68134323F080030A69ED
:1034B000134303608B68C3620B688362012343611B
:1034C000704700BF0004004030B4046A036A23F070
:1034D000010303624568826922F073020B681A4394
:1034E00024F0020C8B6843EA0C03456082614A6851
:1034F0004263036230BC704710B4036A026A22F070
:10350000100202624468826922F4E642D1F800C0E7
:1035100042EA0C2223F02003D1F808C043EA0C133E
:10352000446082614A688263036210BC704710B4D1
:10353000036A026A22F4807202624468C26922F05D
:10354000730C0A6842EA0C0223F40073D1F808C035
:1035500043EA0C234460C2614A68C263036210BC40
:10356000704710B4036A026A22F48052026244680F
:10357000C26922F4E642D1F800C042EA0C2223F4E8
:103580000053D1F808C043EA0C334460C2614A6872
:103590000264036210BC704710B4036A046A24F02A
:1035A00001040462846924F0F00C4CEA021223F056
:1035B0000A030B438261036210BC704710B4036AB4
:1035C000046A24F010040462846924F4704C4CEA08
:1035D000023223F0A00343EA01138261036210BCAC
:1035E0007047836823F070030B4343F00703836045
:1035F000704710B4846824F47F4C42EA03220A43E3
:1036000042EA0C02826010BC704701F01F014FF0CB
:10361000010C0CFA01FC036A23EA0C030362036A3F
:103620008A4013430362704700B310B5044690F814
:103630003930B3B1022384F83930214651F8040BF4
:10364000FFF7FEFE012384F83E3084F83A3084F818
:103650003B3084F83C3084F83D3084F83930002029
:1036600010BD80F83830FEF791F9E3E7012070478C
:1036700090F83930DBB2012B27D1022380F83930A2
:103680000268D36843F00103D3600368B3F1804F4D
:1036900010D0104A93420DD002F58062934209D0B7
:1036A00002F58032934205D01A6842F001021A6096
:1036B000002070479A6802F00702062A07D01A68AD
:1036C00042F001021A60002070470120704700207C
:1036D000704700BF000400400268D36823F0010374
:1036E000D3600368196A41F21112114203D11A68BA
:1036F00022F001021A60012380F83930002070475F
:1037000000B310B5044690F83930B3B1022384F801
:103710003930214651F8040BFFF792FE012384F85B
:103720003E3084F83A3084F83B3084F83C3084F8FA
:103730003D3084F83930002010BD80F83830FEF775
:1037400075F9E3E70120704710B50446084631BB20
:1037500094F83A30DBB2013B18BF0123002B52D161
:10376000002835D1022384F83A300122014620682E
:10377000FFF74BFF2368B3F1804F39D0244A9342BF
:1037800036D002F58062934232D002F58032934205
:103790002ED01A6842F001021A60002034E0042999
:1037A00008D008290DD094F83D30DBB2013B18BF9A
:1037B0000123D3E794F83B30DBB2013B18BF012370
:1037C000CCE794F83C30DBB2013B18BF0123C5E7DE
:1037D000042805D0082807D0022384F83D30C4E728
:1037E000022384F83B30C0E7022384F83C30BCE776
:1037F0009A6802F00702062A07D01A6842F001020E
:103800001A60002000E0012010BD0020FCE700BF8E
:103810000004004038B590F83830012B66D00446DB
:103820000D46012380F838300C2A5AD8DFE802F020
:10383000075959591B595959305959594400006869
:10384000FFF742FE2268936943F008039361226800
:10385000936923F00403936122689369E9680B4339
:10386000936100203EE00068FFF746FE22689369FE
:1038700043F4006393612268936923F48063936146
:1038800022689369E96843EA01239361002029E0F3
:103890000068FFF74CFE2268D36943F00803D36148
:1038A0002268D36923F00403D3612268D369E968ED
:1038B0000B43D361002015E00068FFF752FE226839
:1038C000D36943F40063D3612268D36923F480632E
:1038D000D3612268D369E96843EA0123D3610020F8
:1038E00000E00120002384F8383038BD0220FCE7D6
:1038F00090F83830012B78D010B50446012380F8B9
:103900003830022380F839300268936823F47F430B
:1039100023F0770393600B68602B4CD023D8402BA7
:1039200054D011D8202B03D00AD80BB1102B05D1BD
:1039300019462068FFF755FE002028E0012026E008
:10394000302BF5D0012022E0502B0AD1CA684968FB
:103950000068FFF721FE50212068FFF742FE00209B
:1039600015E0012013E0B3F5805F3AD0B3F5005FB6
:1039700014D0702B37D1CB684A6889680068FFF78C
:1039800038FE2268936843F0770393600020012398
:1039900084F83930002384F8383010BDCB684A6889
:1039A00089680068FFF725FE2268936843F4804326
:1039B00093600020EBE7CA6849680068FFF7FEFDE6
:1039C00060212068FFF70DFE0020E0E7CA68496823
:1039D0000068FFF7E1FD40212068FFF702FE0020AC
:1039E000D5E70020D3E70120D1E7022070477047D8
:1039F00070477047704710B5044603681A6912F0A3
:103A0000020F11D0DA6812F0020F0DD06FF002022F
:103A10001A610123037603689B6913F0030F5ED0DC
:103A2000FFF7E6FF0023237623681A6912F0040FDC
:103A300012D0DA6812F0040F0ED06FF004021A618F
:103A40000223237623689B6913F4407F4DD02046E0
:103A5000FFF7CEFF0023237623681A6912F0080FC0
:103A600012D0DA6812F0080F0ED06FF008021A6157
:103A7000042323762368DB6913F0030F3CD0204630
:103A8000FFF7B6FF0023237623681A6912F0100FA0
:103A900012D0DA6812F0100F0ED06FF010021A6117
:103AA000082323762368DB6913F4407F2BD020465C
:103AB000FFF79EFF0023237623681A6912F0010F97
:103AC00003D0DA6812F0010F24D123681A6912F0CA
:103AD000400F03D0DA6812F0400F22D110BDFFF77B
:103AE00086FF2046FFF785FF9CE72046FFF77FFF14
:103AF0002046FFF77EFFADE72046FFF778FF204620
:103B0000FFF777FFBEE72046FFF771FF2046FFF77C
:103B100070FFCFE76FF001021A612046FDF72EFB20
:103B2000D3E76FF040021A612046FFF763FFD5E745
:103B300090F83820012A2CD010B40346012280F8D6
:103B40003820022280F8392002685068946820F0FA
:103B5000700C086840EA0C0050601A68B2F1804F9F
:103B60000AD00D48824207D000F58060824203D01F
:103B700000F58030824204D124F08004496821435A
:103B80009160012283F83920002083F8380010BCAE
:103B900070470220704700BF0004004010B5044683
:103BA0000268136923F44053C1680B4313618368AF
:103BB00002691A4343691A43C3691A430168CB680F
:103BC00023F4164323F00C031343CB6002685369BC
:103BD00023F4407381690B4353610268244B9A427A
:103BE00023D0FEF7ABFFE369B3F5004F20D000EB25
:103BF000800202EB820263689B00B2FBF3F21D4875
:103C0000A0FB02314909642303FB11231B0132335A
:103C1000A0FB03035B0903F0F00202EB011203F0C7
:103C20000F03216813448B6010BDFEF797FFDAE79E
:103C300000EB800000EB800063685B00B0FBF3F0FA
:103C40000C4AA2FB00314909642303FB1103DB008A
:103C50003233A2FB03235B095A0002F4F87202EB31
:103C6000011203F00703216813448B60DCE700BFF7
:103C7000003801401F85EB512DE9F84305460F46FA
:103C800016469946DDF820802B681C6837EA040444
:103C90000CBF01240024B4422DD1B8F1FF3FF3D072
:103CA000B8F1000F05D0FEF711FBA0EB090040456D
:103CB000EAD92A6802F10C0353E8003F23F4D073D9
:103CC0000C3242E800310029F3D12A6802F11403D2
:103CD00053E8003F23F00103143242E80031002989
:103CE000F3D1202385F8413085F84230002385F850
:103CF0004030032000E00020BDE8F88360B310B539
:103D0000044690F8413013B3242384F841302268EC
:103D1000D36823F40053D3602046FFF73FFF2268A7
:103D2000136923F4904313612268536923F02A0333
:103D300053612268D36843F40053D3600020606469
:103D4000202384F8413084F84230606310BD80F84D
:103D50004030FDF7E9FED7E7012070472DE9F0413B
:103D600082B01E4690F84130DBB2202B4BD1044686
:103D70000D46904600294AD00AB9012044E00023AC
:103D80004364212380F84130FEF7A0FA0746A4F8E7
:103D90002480A4F82680A368B3F5805F02D04FF09A
:103DA00000080FE02369FBB14FF000080AE038F883
:103DB000023B2268C3F308035360E28C92B2013ADB
:103DC00092B2E284E38C9BB28BB100963B46002218
:103DD00080212046FFF750FFD8B9002DE7D015F815
:103DE000012B23685A60E8E7A8460025EAE7009619
:103DF0003B46002240212046FFF73EFF58B92023D2
:103E000084F8413000E0022002B0BDE8F0810120DA
:103E1000FAE70320F8E70320F6E77047FFF7FDFF16
:103E20000B480C490C4A002302E0D458C450043318
:103E3000C4188C42F9D3094A094C002301E01360ED
:103E40000432A242FBD300F055FAFDF7B1FB7047F4
:103E500000000020700000201060000870000020AA
:103E6000C8040020FEE70000002310B50446C0E9A6
:103E70000033C0E90433836081814366C28183617A
:103E8000194608225C3000F0E7F90D4B24626362AA
:103E90000C4BA3620C4BE3620C4B23630C4B9C4218
:103EA00006D003F16802944202D0D0339C4205D17F
:103EB00004F15800BDE8104000F040BA10BD00BF4A
:103EC000A9400008CB400008034100082741000832
:103ED00078030020024A0349034800F069B800BF94
:103EE00014000020314600082400002041680C4BDB
:103EF00010B59942044601D000F09AFBA168094B25
:103F0000994202D0204600F093FBE168064B9942AB
:103F100004D02046BDE8104000F08ABB10BD00BFB1
:103F200078030020E00300204804002010B50B4B6C
:103F30000B4C0C4A20461A6004210022FFF794FF24
:103F400004F1680001220921FFF78EFF04F1D0007F
:103F50000222BDE810401221FFF786BFB004002006
:103F600078030020D53E0008014800F0E8B900BF02
:103F7000B9040020014800F0E3B900BFB9040020F3
:103F800010B50446FFF7F0FF236A1BB1BDE81040EF
:103F9000FFF7F0BF044B2362044B1B68002BF5D1E5
:103FA000FFF7C4FFF2E700BFED3E0008B0040020B9
:103FB0002DE9F8430746884614460026D4E90195C2
:103FC000B9F1010905D52468002CF7D13046BDE8C8
:103FD000F883AB89012B07D9B5F90E30013303D033
:103FE00029463846C04706436835E9E7036A70B595
:103FF00005460E4684680BB9FFF7C2FF636EDB0708
:1040000005D4A389980502D4A06D00F098F9A3897E
:10401000190702D52369002B35D12146284600F027
:10402000C5F880B34FF0FF35636EDA0705D4A38976
:104030009B0502D4A06D00F083F9284670BD002BCB
:1040400004DAA2699A4217DC0A2915D023685A1C9F
:1040500022601970A36816F8011F013BA3600029B4
:10406000EDD1002B11DA22460A21284600F05FF834
:104070000130D7D00A25D7E72246284600F057F866
:104080000130E7D1CEE7013EE4E723685A1C226005
:104090000A221A70EEE70000024B01461868FFF78B
:1040A000A5BF00BF2000002010B50C46B1F90E10CE
:1040B00000F0FCF80028ABBF636DA3891B1823F444
:1040C0008053ACBF6365A38110BD2DE9F0411F464D
:1040D0008B890546DB050C46164605D502230022D2
:1040E000B1F90E1000F0D0F8A389324623F48053C2
:1040F000A38128463B46B4F90E10BDE8F04100F01C
:10410000E7B810B50C46B1F90E1000F0BDF8431C2D
:10411000A38915BF606523F4805343F48053A381C2
:1041200018BFA38110BDB1F90E1000F09DB8F8B50D
:104130000E461446054618B1036A0BB9FFF720FF77
:10414000A369A360A3891A0701D5236943B921464E
:10415000284600F02BF818B14FF0FF373846F8BD6D
:1041600023682269F6B2981A63693746834205DCF0
:104170002146284600F05CFA0028EDD1A368013BF7
:10418000A36023685A1C22601E706269431C9A4215
:1041900004D0A389DB07E1D50A2EDFD121462846CA
:1041A00000F046FA0028D9D0D6E7000038B5294BF0
:1041B000054618680C4618B1036A0BB9FFF7E0FE14
:1041C000B4F90C30190722D4DA0607D409222A6080
:1041D00043F040034FF0FF30A38133E0580712D57E
:1041E000616B41B104F14403994202D0284600F0CA
:1041F000A9F800236363A38923F02403A381002388
:10420000636023692360A38943F00803A3812369C2
:104210004BB9A38903F42073B3F5007F03D0214683
:10422000284600F052FAB4F90C3013F001020AD01B
:104230000022A26062695242A261226942B913F06F
:104240008000C5D138BD990758BF6269A260F4E704
:104250000020F7E72000002003460244934200D1EB
:10426000704703F8011BF9E738B50023054D0446F4
:1042700008462B6001F0E4FB431C02D12B6803B11C
:10428000236038BDB404002038B504460846114602
:104290000022054D2A601A4601F0EAFB431C02D1B8
:1042A0002B6803B1236038BDB404002038B5044640
:1042B000084611460022054D2A601A4601F0E0FB2F
:1042C000431C02D12B6803B1236038BDB404002025
:1042D00038B50446084611460022054D2A601A46A4
:1042E00001F0E4FB431C02D12B6803B1236038BD0D
:1042F000B404002070B500260C4D0D4C641BA410B6
:10430000A64209D101F034FD00260A4D0A4C641B77
:10431000A410A64205D170BD55F8043B984701365C
:10432000EEE755F8043B98470136F2E708600008CD
:1043300008600008086000080C60000870477047BB
:104340007047000038B50546002940D051F8043CBC
:104350000C1F002BB8BFE41800F0DEF81C4A1368ED
:1043600033B9636014602846BDE8384000F0DAB81D
:10437000A34208D9206821188B4201BF19685B68E5
:1043800009182160EDE71A465B680BB1A342FAD920
:1043900011685018A0420BD1206801445018834284
:1043A0001160E0D118685B68084410605360DAE778
:1043B00002D90C232B60D6E7206821188B4201BF5D
:1043C00019685B680918216063605460CBE738BDE9
:1043D000C004002070B50F4E0C463168054611B977
:1043E00000F0D2F930602146284600F0CDF9431C98
:1043F00003D14FF0FF34204670BDC41C24F00304E9
:10440000A042F8D0211A284600F0BEF90130F2D1BE
:10441000EFE700BFBC0400202DE9F843CD1C25F0D8
:10442000030508350C2D38BF0C25002D064601DB91
:10443000A94204D90C2333600020BDE8F883DFF8DB
:10444000D48000F069F8D8F800301C4644BB2946F7
:104450003046FFF7BFFF431C044658D1D8F8004050
:104460002746002F43D1002C4BD0236839463046D5
:1044700004EB030900F088F9814542D121683046F8
:104480006D1A2946FFF7A6FF01303AD023682B4466
:104490002360D8F800305A6862BBC8F800700FE09B
:1044A0002268521B20D40B2A17D96119A342256018
:1044B00018BF5960636808BFC8F8001062514B60AC
:1044C000304600F02FF804F10B00231D20F0070008
:1044D000C21A1CBF1B1AA350AFE76268A3420CBFED
:1044E000C8F800205A60EBE723466468AEE73C4614
:1044F0007F68B6E71A465B68A342FBD1002353608E
:10450000DEE70C233046336000F00CF894E70560DA
:10451000D6E700BFC00400200148FFF710BF00BF6E
:10452000B80400200148FFF70BBF00BFB80400200B
:10453000B1F90C20F8B5160705460C4654D44B6863
:10454000002B02DC0B6C002B48DDE66A002E45D008
:10455000002312F480522F68216A2B6030D0626DE4
:10456000A389590705D56368D21A636B0BB1236C15
:10457000D21A00232846E66A216AB047431CA38961
:1045800006D129681D292BD8284ACA40D60727D525
:10459000002262602269D904226004D5421C01D144
:1045A0002B6803B96065616B2F60B9B104F14403F6
:1045B000994202D02846FFF7C5FE002363630DE051
:1045C00001232846B0470246501CC9D12B68002B56
:1045D000C6D01D2B01D0162B1DD12F60002021E04D
:1045E00043F040031BB21AE00F69002FF6D0930787
:1045F00018BF00230E6808BF4B69F61B0F608B6065
:10460000002EEBDD33463A462846216AD4F828C00E
:10461000E047002807DCB4F90C3043F040034FF0CA
:10462000FF30A381F8BD0744361AE9E701004020B6
:1046300038B50B6905460C4613B90025284638BD28
:1046400018B1036A0BB9FFF79BFCB4F90C30002BCF
:10465000F3D0626ED00704D4990502D4A06DFFF7A1
:104660006EFE28462146FFF763FF636E0546DA07B4
:10467000E4D4A3899B05E1D4A06DFFF761FEDDE7DB
:1046800070B50C46B1F90E10154600291E4696B0BD
:104690000CDAA389002113F0800F14BF40234FF4DC
:1046A0008063002031602B6016B070BD6A4600F058
:1046B00049F80028EDDB019901F47041A1F50053A0
:1046C000594259414FF48063EBE78B89F7B59D0759
:1046D00006460C4607D504F14703236023610123F6
:1046E000636103B0F0BD6A4601ABFFF7C9FF009FED
:1046F000054639463046FFF78FFE48B9B4F90C300D
:104700009A05EED423F0030343F00203A381E2E70A
:10471000A389C4E9040743F08003A381019B2060BF
:104720005BB13046B4F90E1000F01EF828B1A38931
:1047300023F0030343F00103A381A3891D43A58153
:10474000CFE7000038B50023064D04460846114661
:104750002B6001F07DF9431C02D12B6803B123606B
:1047600038BD00BFB404002038B50023054D044611
:1047700008462B6001F074F9431C02D12B6803B189
:10478000236038BDB404002038B50023054D04462D
:1047900008462B6001F07CF9431C02D12B6803B161
:1047A000236038BDB404002030B5224A21F0004314
:1047B000934287B01BD9204A934205D902460B4643
:1047C000FBF7C2FC07B030BD02AA00F019FA00F0F6
:1047D000030001281FD0022811D018BBDDE90423F3
:1047E000DDE902010124009400F052F9EAE7002417
:1047F00000220023009400F04BF907B030BD0124E3
:10480000DDE90423DDE90201009400F041F901F142
:10481000004107B030BDDDE90423DDE9020100F00D
:104820000FF8CFE7DDE90423DDE9020100F008F825
:10483000EDE700BFFB21E93FFFFFEF7F0000000035
:104840002DE9F04F21F00048B8F1795F06460F4698
:1048500092469B4685B06DD2FCF7C8F8002800F060
:10486000ED8032463B4630463946FBF725FE76A3BF
:10487000D3E9002304460D46FBF71EFE74A3D3E9DB
:104880000023FBF763FC22462B46FBF715FE72A3C1
:10489000D3E90023FBF758FC22462B46FBF70CFE1E
:1048A0006FA3D3E90023FBF751FC22462B46FBF70D
:1048B00003FE6DA3D3E90023FBF746FC22462B46FB
:1048C000FBF7FAFD6AA3D3E90023FBF73FFC22467E
:1048D0002B46FBF7F1FDCDE90001002220462946D9
:1048E000654BFBF7E9FDDDE900238046894620465C
:1048F0002946FBF7E1FD44464D468046894652462F
:104900005B4630463946FBF7D7FD02460B4640462C
:104910004946FBF719FC02460B4620462946FBF7A1
:1049200013FC02460B4600205449FBF70DFC05B072
:10493000BDE8F08F02460B46FBF7BEFD42A3D3E96C
:10494000002304460D46FBF7B7FD41A3D3E900233E
:10495000FBF7FCFB22462B46FBF7AEFD3EA3D3E95B
:104960000023FBF7F1FB22462B46FBF7A5FD3CA3FA
:10497000D3E90023FBF7EAFB22462B46FBF79CFD1D
:1049800039A3D3E90023FBF7DFFB22462B46FBF7D5
:1049900093FD37A3D3E90023FBF7D8FB2B46224630
:1049A000FBF78AFD364BCDE90001984595D9354B8B
:1049B000002298453AD8A8F5001300202F499046C8
:1049C0009946FBF7C1FBCDE90201002220462946AA
:1049D000294BFBF771FD42464B46FBF7B5FBDDE982
:1049E00000238046894620462946FBF765FD44465C
:1049F0004D468046894652465B4630463946FBF76F
:104A00005BFD02460B4640464946FBF79DFB0246CE
:104A10000B4620462946FBF797FB02460B46DDE98D
:104A20000201FBF791FB05B0BDE8F08F164B4FF08C
:104A30000008CDE90223DFF85490C6E700200F49B3
:104A400005B0BDE8F08F00BFD43888BEE9FAA8BD34
:104A5000C4B1B4BD9EEE213EAD529C804F7E923ECD
:104A60009015CB19A001FA3E7751C1166CC1563F83
:104A70004C5555555555A53F0000E03F0000F03F0F
:104A80003233D33F0000E93F0000E73F0000D23F50
:104A90002DE9F04F83B0CDE9002321F00043B3F1BD
:104AA000795F04460D4604D2FBF7A0FF002800F012
:104AB000858022462B4620462946FBF7FDFC06460C
:104AC0000F4632463B4620462946FBF7F5FC3EA3FF
:104AD000D3E9002382468B4630463946FBF7ECFC8F
:104AE0003BA3D3E90023FBF72FFB32463B46FBF702
:104AF000E3FC39A3D3E90023FBF728FB32463B460E
:104B0000FBF7DAFC36A3D3E90023FBF71DFB3246A3
:104B10003B46FBF7D1FC34A3D3E90023FBF716FB9C
:104B20000C9B804689469BB3DDE900010022324B95
:104B3000FBF7C2FC42464B468046894650465946E2
:104B4000FBF7BAFC02460B4640464946FBF7FCFA27
:104B500032463B46FBF7B0FCDDE90023FBF7F4FAF5
:104B600023A3D3E9002306460F4650465946FBF7D8
:104B7000A3FC02460B4630463946FBF7E7FA0246ED
:104B80000B4620462946FBF7DFFA03B0BDE8F08F5D
:104B900002460B4630463946FBF78EFC14A3D3E998
:104BA0000023FBF7D1FA52465B46FBF785FC224611
:104BB0002B46FBF7CBFA03B0BDE8F08F2046294621
:104BC00003B0BDE8F08F00BF7CD5CF5A3AD9E53DA0
:104BD000EB9C2B8AE6E55A3E7DFEB157E31DC73EAE
:104BE000D561C119A0012A3FA6F810111111813F0A
:104BF000495555555555C53F0000E03F00000000A0
:104C00002DE9F04F844B21F000459D4280468946B6
:104C100014468FB040F28A80804B0E469D4228D8C1
:104C200073A3D3E90023002940F39D81FBF78CFA9D
:104C30007B4B06469D420F4600F089806EA3D3E968
:104C40000023FBF781FA02460B46304639461646EA
:104C50001F46FBF779FA68A3D3E90023FBF774FA40
:104C6000C4E900670127C4E9020138460FB0BDE876
:104C7000F08F6C4B9D4240F284806B4B9D425DD81F
:104C80002F15A7F21647A5EB07518946FBF7AEFE95
:104C9000FBF7A8FB02460B4640464946CDE90823F0
:104CA000FBF752FA0022614BFBF706FC894680466F
:104CB000FBF79CFEFBF796FB02460B464046494637
:104CC000CDE90A23FBF740FA0022584BFBF7F4FB2F
:104CD00003254FF000084FF00009CDE90C010DF15C
:104CE000380A42467AE902014B46AB46013DFBF7E2
:104CF0004BFE0028F5D102254D493A4601915B460D
:104D0000214608A8009500F085F9002E0746ACDA88
:104D100060682268E16800F10043C4E90023A268EA
:104D200001F10043C4E902237F429EE700220023F1
:104D3000C4E90089C4E90223002796E702460B462E
:104D4000FBF702FAC4E90201C4E90001F4E72CA36D
:104D5000D3E90023FBF7F8F92BA3D3E9002380461E
:104D60008946FBF7F1F906460F4632463B46404678
:104D70004946FBF7E9F924A3D3E90023FBF7E4F95B
:104D80006EE700F043F922A3D3E900238046894669
:104D9000FBF792FB0022274BFBF7D8F9FBF726FE27
:104DA0000746FBF71FFB02460B46CDE9042310A381
:104DB000D3E90023FBF780FB02460B4640464946F9
:104DC000FBF7C2F90CA3D3E9002382468B46DDE949
:104DD0000401FBF771FB1F2FCDE902012EDC164BFE
:104DE0007A1E53F82230AB4228D002460B4699E097
:104DF00000004054FB21F93F3163621A61B4D03D99
:104E00000000601A61B4D03D7370032E8A19A33B71
:104E100083C8C96D305FE43FFB21E93F7BD9024085
:104E2000FB21F93FFB213941FFFFEF7F000070417B
:104E3000A45E00080000E03F245E0008DDE90223D4
:104E400050465946FBF780F92B150793C1F30A53D7
:104E5000C3EB1553102B8046894669DD60A3D3E967
:104E60000023DDE90401FBF727FB80468946424623
:104E70004B4650465946FBF767F902460B465046EB
:104E8000594692469B46FBF75FF942464B46FBF775
:104E90005BF955A3D3E9002380468946DDE9040187
:104EA000FBF70AFB42464B46FBF74EF902460B4620
:104EB00050465946CDE90223FBF746F9079AC1F35C
:104EC0000A53D31A312B8046894631DD48A3D3E9F2
:104ED0000023DDE90401FBF7EFFA804689464246EC
:104EE0004B4650465946FBF72FF902460B465046B3
:104EF000594692469B46FBF727F942464B46FBF73D
:104F000023F93DA3D3E9002380468946DDE9040166
:104F1000FBF7D2FA42464B46FBF716F902460B4620
:104F2000CDE9022350465946FBF70EF980468946E3
:104F300042464B4650465946C4E90089FBF704F9FE
:104F4000DDE90223FBF700F9002EC4E90201BFF6F8
:104F50008CAE09F10042C4E9008201F10042C4E9CB
:104F600002027F4281E6FBF7F1F8274B06469D429D
:104F70000F4618D022A3D3E90023FBF7E7F8024637
:104F80000B463046394616461F46FBF7DDF81CA394
:104F9000D3E90023FBF7DAF8C4E90067C4E90201AA
:104FA0004FF0FF3761E60EA3D3E90023FBF7CEF8FD
:104FB0000DA3D3E9002380468946FBF7C7F80646D0
:104FC0000F4632463B4640464946FBF7BDF806A32E
:104FD000D3E90023FBF7BAF8DEE700BFAFF30080A8
:104FE0000000601A61B4D03D7370032E8A19A33B90
:104FF0000000002E8A19A33BC14920259A837B39E2
:105000003163621A61B4D03DFB21F93F21F00043C6
:10501000194670472DE9F04FADF51B7DBD4CA49DA1
:105020009C4654F82540013B12F1140F814605942B
:105030000C910393C0F2A882B749D31E81FB0301F0
:10504000DB17C3EBA10307930133A3EB8303DB005F
:10505000D318079A0D930CF1FF33D61A059A12EB69
:1050600003081CD408F1010800240025E346DDF8FC
:1050700094A2B04422AF08E05AF82600FBF7B2F938
:1050800001364645E7E8020108D0002EF4DA204652
:10509000294601364645E7E80201F6D1DC46059B84
:1050A000002BA9F108030493B8BF4FEACC0637DB05
:1050B000DDF80C9003EBCC084B460DF5E47BD946AC
:1050C0009B4622AA02EBCC0A059A4FEACC06624420
:1050D0000192CDF808C00696039B002BC0F29A817E
:1050E000574600240025049E77E90223F6E90201D1
:1050F000FBF7E2F902460B4620462946FBF726F865
:10510000464504460D46EFD1019B0BF1010B9B4533
:10511000E9E802450AF1080ADED1DDF808C0069E7A
:10512000059A049B934603EB060A0EAB03EB82033E
:10513000043B08930EAB03EB8206CDE909A60D9F55
:10514000CDF82CC09AAB4FEACB0203EBCB03BBF1FB
:10515000000F019253E928452BDD0DF5E47A0DF19E
:1051600038090AEB0208029700226C4B20462946B8
:10517000FBF7A2F9FBF73AFCFBF734F90022684B86
:1051800006460F46FBF798F902460B46204629468D
:10519000FAF7DAFFFBF72AFC78E9022349F8040B57
:1051A00039463046FAF7D2FFD04504460D46DBD1EA
:1051B000029F204629463A4600F03EFB00224FF06F
:1051C0007F5304460D46FBF777F900F0B5FB00224C
:1051D000544BFBF771F902460B4620462946FAF775
:1051E000B3FF0D460446FBF701FC0646FBF7FAF851
:1051F00002460B4620462946FAF7A6FF002F8046B6
:10520000894640F391800BF1FF300EAB53F820300C
:10521000C7F1180243FA02F101FA02F29B1A0EAA30
:1052200042F82030C7F1170243FA02F5002D0E4470
:1052300000F3D8800022002340464946FBF7A4FB38
:10524000002800F05282059B9B450DDD00220EAB2D
:105250000A9803EB8B0353F8041D834242EA0102D0
:10526000F9D1002A40F0D980059B0EAA013B52F8E3
:105270002330002B40F0CA800123089A52F8041D05
:1052800001330029FAD05B440BF1010807990B9A0E
:1052900008EB010A0AF1804AA5990AF1FF3A5A443B
:1052A000019E01EB8A0A22A901EBC209DDF824B0B4
:1052B00072AA164402930697CDF804A0019B53F8F6
:1052C000040F0193FBF78EF8039BE9E80201002B22
:1052D0001DDBCA4600240025049F7AE90223F7E972
:1052E0000201FBF7E9F802460B4620462946FAF789
:1052F0002DFF5F4504460D46EFD1029B08F10108E2
:105300004345E6E90245D9DA9B46069F1AE70024A1
:105310000025F2E7F05F0008ABAAAA2A0000703E61
:10532000000070410000204053D10BF1FF330EAA62
:1053300052F82350ED15002D7FF77CAFBBF1000F25
:1053400006F1010640F3418200220EAB53F8044BF4
:10535000002C3AD0C4F180746FF07F4043F8044CC5
:1053600003E01968411A43F8041B01329345F8DC45
:105370000124002F0DDD012F3DD0022F09D10BF1AB
:10538000FF320EAB53F822300EA9C3F3150341F8D8
:105390002230022D7FF44EAF42464B4600208F490B
:1053A000FAF7D2FE80468946002C3FF443AF3A46D6
:1053B00000208A4900F040FA02460B464046494622
:1053C000FAF7C2FE8046894634E701329345BDDCD8
:1053D000CFE70022824BFBF7F5FA002840F0C280AD
:1053E000054627E7BBF1000FD8BF002406F10106F0
:1053F000AADC012FC1D10BF1FF320EAB53F82230E2
:105400000EA9C3F3160341F82230C2E70BF10108DD
:1054100043463BE70024002576E60D9B0BF1FF3465
:10542000A3F118020EAB53F82430069604950D92A2
:1054300063B90BF18043013B0EA901EB830353F8E1
:10544000041D013C183A0029F9D00D9200200D9A54
:10545000624900F0F1F9002C06460F46C0F2C18106
:1054600004F1010A4FEACA024FF0000893460EAB5E
:1054700003EB8A05DFF86C9172AB03EBCA0A55F8AF
:10548000040DFAF7AFFF32463B46FBF715F84B46E3
:105490006AE90201424630463946FBF70DF80EAB89
:1054A0009D4206460F46EAD15A464FF00009ABF13D
:1054B00008034AA972A800EB030AA3460B46CDE9EC
:1054C00007425246CA46DDF814900391B9F1000F25
:1054D000C0F281809046002600240025CDE90132EB
:1054E000414F01E0564510DCF7E90223F8E80201DC
:1054F000FAF7E2FF02460B4620462946FAF726FE57
:105500000136B14504460D46ECDADDE901320BF116
:10551000FF3BBBF1FF3FE3E802450AF1010AA2F1BC
:105520000802D3D1DDE90742A49B022B5EDC002BED
:105530002FDC10D100200021039DAC1874E9022358
:10554000FAF704FEAC42F9D1049B002B40F03981FC
:105550000C9BC3E90001069B03F007000DF51B7DC2
:10556000BDE8F08FBBF1000FC8BF022506F10106B0
:105570003FF7EAAE42464B4600201849FAF7E4FDF1
:1055800002258046894655E600216FF017030791F2
:105590005EE5039B0026002798469D18304675E976
:1055A00002233946FAF7D2FD454506460F46F5D1A6
:1055B0000B460246DDE94A01FAF7C6FD049B002BC3
:1055C00000F0E2800C9D07F10042C5E90062002C6A
:1055D00040F0DE80E8E00024002598E70000F03F7E
:1055E0000000E03F0000703EA85F0008A49B032B72
:1055F000B1D1002C00F00581039B4FEAC40803EBF6
:10560000C405A946D5E9006701950294059559E9B5
:1056100002453046394622462B46FAF797FDB246F8
:10562000BB4606460F4632463B4620462946FAF719
:105630008BFD5B465246FAF789FDC9E9000169E92D
:105640000267039B9945E2D1029C059D012C00F065
:10565000D880D5E90045039BDDF8049003F1080BE1
:10566000CDF80480D84659E90267204629463246DB
:105670003B46FAF76BFDA246AB4604460D46224672
:105680002B4630463946FAF75FFD52465B46FAF73D
:105690005DFDC9E9000169E90245C845E3D1002083
:1056A0000021DDF80480039B08F108041C4403F189
:1056B000100574E90223FAF749FDA542F9D1DDE9A5
:1056C0004A56039BD3E90278049B002B46D10C9BDE
:1056D000C3E90401C3E90056C3E90278069B03F05D
:1056E00007000DF51B7DBDE8F08F06960D9E404628
:1056F00049467242049500F09FF800224B4B5F46EA
:1057000080468946FBF75EF9F8B10022484B4046D7
:105710004946FAF7D1FEFBF769F90546FAF762FE4A
:105720000022424BFAF7C8FE0B4602464946404665
:10573000FAF70AFDFBF75AF97C1C0EAB183643F852
:105740002B000D9643F8245080E640464946FBF76F
:105750004DF90EAB5C4643F82B0077E60C9B2C46CC
:1057600006F100455D601D461C6008F10043C5E977
:105770000273069B01F10042C5E9040203F0070031
:105780000DF51B7DBDE8F08F0C9BC3E9006774B17C
:105790000125DDF80C800135F8E90223FAF7D6FC83
:1057A000AC42F8DA049B13B101F1004319460C9B9B
:1057B000C3E90201069B03F007000DF51B7DBDE860
:1057C000F08F01F100431946C2E6022D7FF432AD9D
:1057D00002460B4600201749FAF7B6FC8046894678
:1057E00028E5A49B022B06DC002B0DDC7FF4B3AE76
:1057F00000200021A8E6A49B032B7FF4ACAE4AABAB
:105800000393002000215AE7049BDDE94A0133B1EC
:1058100000224FF000430C9CC4E90023C4E700229F
:1058200000230C9CC4E90023C1E700BF00007041C5
:105830000000703E0000F03F2DE9F0411646C1F334
:105840000A52074688460B466ABB21F000430343D1
:1058500027D0334B0022FAF72FFE324B07469E42E9
:1058600088463CDB0B46C1F30A52363A4CF25031C3
:105870008E4221DC164440F2FE7296421CDC002E61
:1058800026DC16F1350F31DB23F0FF4121F4E00176
:10589000363641EA0655002238462946224BFAF7A9
:1058A0000BFEBDE8F08140F2FF7C6245DED102468E
:1058B000FAF74CFCBDE8F081454615A3D3E9002377
:1058C00063F31E0529461948FAF7F6FDBDE8F08195
:1058D0006FF31E53384643EA0651BDE8F0810EA32C
:1058E000D3E90023FAF7E8FDBDE8F08108F00044B1
:1058F00044F0D27141F4B73107A3D3E900230C4837
:1059000041F01F01FAF7D8FDCBE700BFAFF30080ED
:105910009C7500883CE4377E59F3F8C21F6EA501E0
:1059200000005043B03CFFFF0000903C9C75008895
:1059300059F3F8C200000000C1F30A5C2DE9F04100
:10594000ACF2FF35132D02460B460C46064632DC00
:10595000002D20DBDFF8E0800F4648FA05F801EA69
:10596000080C5CEA000C2BD031A3D3E90023FAF732
:10597000EDFB00220023FBF72FF840B1002C03DAE7
:105980004FF480132B411F44002627EA08042146C8
:105990003046BDE8F08126A3D3E90023FAF7D6FB11
:1059A00000220023FBF718F80028F0D0002C27DB9A
:1059B00000263446EBE7332D06DDB5F5806F1CD0AD
:1059C00010461946BDE8F0814FF0FF37ACF2134C9A
:1059D00027FA0CF70742F3D015A3D3E90023FAF70F
:1059E000B5FB00220023FAF7F7FF0028CFD0002CE8
:1059F00033460CDB23EA0706C9E7FAF7A7FBE1E722
:105A000024F0004426430DD14FF00044BFE7142D8D
:105A100006D00122C5F13405AA401344B342E9D2AD
:105A20000134E7E70026054CB1E700BFAFF3008083
:105A30009C7500883CE4377EFFFF0F000000F0BF3C
:105A40005822024B4FF0FF301A607047B404002018
:105A50005822024B4FF0FF301A607047B404002008
:105A60005822024B00201A60704700BFB404002087
:105A70005822024B4FF0FF301A607047B4040020E8
:105A80005822024B4FF0FF301A607047B4040020D8
:105A9000044A05491368002B08BF0B4618441060E0
:105AA00018467047C4040020C80400205822024B46
:105AB0004FF0FF301A607047B40400202DE9F04722
:105AC000089D0E4604468E46002B4CD18A429446D1
:105AD000B2FA82F362D953B102FA03FCC3F1200295
