:020000040800F2
:1000000000400120BD290008A9090008AB0900082B
:10001000AD090008AF090008B109000800000000A0
:10002000000000000000000000000000B30900080C
:10003000B509000800000000B7090008B909000868
:10004000052A0008052A0008052A0008052A0008D4
:10005000052A0008052A0008052A0008052A0008C4
:10006000052A0008052A0008052A0008C109000819
:10007000052A0008052A0008052A0008052A0008A4
:10008000052A0008052A0008D1090008052A0008E9
:10009000052A0008052A0008052A0008E1090008C9
:1000A000052A0008F1090008052A0008010A0008CD
:1000B000110A0008052A0008052A0008052A000878
:1000C000052A0008052A0008052A0008052A000854
:1000D000052A0008052A0008052A0008052A000844
:1000E000210A0008052A0008052A0008052A000838
:1000F000052A000800000000052A0008052A00085B
:10010000052A0008052A0008052A0008052A000813
:10011000052A0008052A0008052A0008000000003A
:10012000052A000800000000000000000000000098
:0C01300000000000000000005FF808F173
:10013C0010B5054C237833B9044B13B10448AFF315
:10014C0000800123237010BD680000200000000017
:10015C009833000808B5034B1BB103490348AFF3B0
:10016C00008008BD000000006C00002098330008DF
:10017C0053B94AB9002908BF00281CBF4FF0FF3102
:10018C004FF0FF3000F072B9ADF1080C6DE904CE00
:10019C0000F006F8DDF804E0DDE9022304B0704756
:1001AC002DE9F047089E0D4604468E46002B4CD197
:1001BC008A42944667D9B2FA82F353B102FA03FC2D
:1001CC00C3F1200201FA03FE20FA02F242EA0E0EFB
:1001DC009C404FEA1C47BEFBF7F11FFA8CF507FB5E
:1001EC0011EE01FB05F0220C42EA0E4290420AD9B4
:1001FC001CEB020201F1FF3E80F01981904240F2AB
:10020C00168102396244121AB2FBF7F007FB102276
:10021C0000FB05F5A4B244EA0244A5420AD91CEB42
:10022C00040400F1FF3280F00481A54240F2018108
:10023C006444023840EA01400021641B1EB1DC40DA
:10024C000023C6E90043BDE8F0878B4208D9002E95
:10025C0000F0EA800021C6E900050846BDE8F087F9
:10026C00B3FA83F1002948D1AB4202D3824200F2A7
:10027C00F880841A65EB030201209646002EE2D02A
:10028C00C6E9004EDFE702B9FFDEB2FA82F3002BBB
:10029C0040F08E80881A0121170C1FFA82FEB0FBE9
:1002AC00F7F507FB1500220C42EA00420EFB05F0A5
:1002BC00904208D91CEB020205F1FF3802D29042A1
:1002CC0000F2CC804546121AB2FBF7F007FB102265
:1002DC000EFB00FEA4B244EA0244A64508D91CEB6E
:1002EC00040400F1FF3202D2A64500F2B48010469D
:1002FC00A4EB0E0440EA0540A0E7C1F120078B40B7
:10030C0022FA07FC4CEA030C25FA07FA4FEA1C49BF
:10031C00BAFBF9F88D4020FA07F309FB18AA1FFA6B
:10032C008CFE2B4300FA01F508FB0EF01C0C44EA82
:10033C000A44A04202FA01F20BD91CEB040408F1A6
:10034C00FF3A80F08680A04240F28380A8F1020838
:10035C006444241A98B2B4FBF9F309FB134403FB6D
:10036C000EFE40EA0444A64508D91CEB040403F134
:10037C00FF306AD2A64568D9023B644443EA084080
:10038C00A0FB0293A4EB0E049C42C8469E4654D399
:10039C0051D0002E67D0B5EB080364EB0E04CB40B4
:1003AC0004FA07F71F43CC40C6E9007400214AE762
:1003BC0002FA03FCC3F12000C1409D4024FA00F076
:1003CC004FEA1C472843B1FBF7F507FB15111FFA41
:1003DC008CFE020C42EA014205FB0EF1914204FA3A
:1003EC0003F408D91CEB020205F1FF382FD291421D
:1003FC002DD9023D6244521AB2FBF7F107FB1122D0
:10040C0080B240EA024001FB0EF2824208D91CEB9A
:10041C00000001F1FF3816D2824214D9023960442F
:10042C00801A41EA05413AE7314630460BE77146FE
:10043C00E9E61046FEE64D45ABD2B9EB020863EB9C
:10044C000C0E0138A5E74146EAE7034696E7454618
:10045C00D1E7D0467DE76444023849E7023D624467
:10046C0031E708460AE73146EDE600BF704700BFAA
:10047C0070B58AB0002405940694079408940994E6
:10048C002D4BDA6942F00402DA61DA6902F00402F7
:10049C000192019ADA6942F02002DA61DA6902F01B
:1004AC0020020292029ADA6942F00102DA61DA69F8
:1004BC0002F001020392039ADA6942F00202DA6155
:1004CC00DB6903F002030493049B1C4D224620219C
:1004DC00284601F0ADFC42F2600305934FF48816F8
:1004EC000696079405A9164801F0AEFB2023059348
:1004FC00012306930794089405A9284601F0A4FB50
:10050C004FF4C05305930696079405A9284601F0AD
:10051C009BFB22462146172001F0B6FD172001F067
:10052C00EBFD22462146282001F0AEFD282001F0EB
:10053C00E3FD0AB070BD00BF00380240000002406D
:10054C000008024000B583B00A4BDA6942F08072B1
:10055C00DA61DB6903F080730193019B0022114681
:10056C000B2001F091FD0B2001F0C6FD03B05DF8EE
:10057C0004FB00BF0038024007490B680748084AD3
:10058C0000FB0322074BA3FB02035B0903EB0313E2
:10059C005800131A0B607047380200200D661900C2
:1005AC005FF36E3CF1F0F0F008B5B0F5006F27D0BA
:1005BC0013D8202835D040282AD100F0F9FE214B41
:1005CC009B6803F59673984222D91F4802F01AFBD8
:1005DC0000F0EEFE1B4B98601AE0B0F5805F17D16F
:1005EC0000F0E6FE174B5B6803F5967398420FD943
:1005FC00164802F007FB00F0DBFE124B586007E0D8
:10060C0000F0D6FE0F4B1B6803F59673984200D88A
:10061C0008BD0F4802F0F6FA00F0CAFE094B18604C
:10062C00F6E700F0C5FE074BDB6803F596739842BE
:10063C00EED9084802F0E6FA00F0BAFE014BD86099
:10064C00E6E700BF88000020C0330008B83300087C
:10065C00B0330008C8330008C0EB00400D4B83FBDF
:10066C0000C30344C017C0EBE3201AB90B6880B277
:10067C0058637047042A05D0082A07D00B6880B24B
:10068C00186470470B6880B2986370470B6880B22F
:10069C00D8637047810008800368B3F1804F00D0A5
:1006AC00704710B5094C02222146094800F0D8FDCC
:1006BC00042208492088FFF7CFFF002206496088F2
:1006CC00FFF7CAFFFFF758FF10BD00BF84000020E2
:1006DC0098000020B00100203001002072B6FEE727
:1006EC0008B50A480A4B03604FF4E133436000231A
:1006FC008360C36003610C2242618361C36102F0B9
:10070C0025F900B908BDFFF7E9FF00BFF001002093
:10071C000044004000B585B000230193029303937D
:10072C001B481C4A026043608360C3604FF48072B4
:10073C00026143618361C361036280F82430022249
:10074C00826280F82C30102242638363012380F88C
:10075C003C3000F0BBFAA8B90023019301220292AD
:10076C00039301A90A4800F065FC68B901230193C1
:10077C000223029301A9064800F05CFC30B905B0D5
:10078C005DF804FBFFF7AAFFFFF7A8FFFFF7A6FF32
:10079C00980000200024014000B587B0002302938C
:1007AC000393049305930093019314484FF08042F4
:1007BC00026040F67F42426083603122C260036176
:1007CC00436101F0AFFD90B94FF48053029302A93D
:1007DC000A4801F0F7FE60B90023009301936946C3
:1007EC00064802F00FF830B907B05DF804FBFFF7CC
:1007FC0075FFFFF773FFFFF771FF00BF700100205B
:10080C0000B587B0002304930593009301930293E2
:10081C0003931648164A0260436083604FF6FF72DA
:10082C00C2600361436101F0D5FDC8B90023049394
:10083C00059304A90D4801F0E5FF98B960230093D6
:10084C00002301930293039304226946074801F0A5
:10085C004BFE48B9054800F0BFF907B05DF804FB42
:10086C00FFF73CFFFFF73AFFFFF738FFB00100201E
:10087C000008014000B585B000230093019302935A
:10088C0003931148114A0260436083604FF6FF7274
:10089C00C2600361436101F09DFD80B96023009348
:1008AC0000220192029203926946074801F01CFE55
:1008BC0038B9054800F090F905B05DF804FBFFF776
:1008CC000DFFFFF70BFF00BF3001002000100140AF
:1008DC0000B593B03422002105A802F073FA00236E
:1008EC000093019302930393049316490A6822F42C
:1008FC00C05242F400620A60022205920121089162
:10090C00102109910E920F934FF4002310934FF482
:10091C000003119305A800F099FD78B90F230093FB
:10092C00032301930023029303930493012168464C
:10093C0001F076F820B913B05DF804FBFFF7CEFE9A
:10094C00FFF7CCFE0070004008B500F015FDFFF776
:10095C00BFFFFFF78DFDFFF7F5FDFFF7C1FEFFF7BA
:10096C00D9FEFFF719FFFFF74BFFFFF783FF07488F
:10097C0001F0FCFC0021064801F050FD0421054863
:10098C0001F04CFD044802F03DF9FEE77001002037
:10099C0030010020B0010020D0330008FEE7FEE754
:1009AC00FEE7FEE7FEE770477047704708B500F0BA
:1009BC00F3FC08BD08B5024801F0F1FA08BD00BF10
:1009CC00EC00002008B5024800F096FA08BD00BF04
:1009DC009800002008B5202001F030FA402001F0EA
:1009EC002DFA08BD08B5024801F06FFE08BD00BF26
:1009FC00B001002008B5024801F067FE08BD00BF39
:100A0C003001002008B5024801F05FFE08BD00BFB0
:100A1C007001002008B54FF4006001F00FFA4FF49C
:100A2C00805001F00BFA4FF4005001F007FA08BDAA
:100A3C0000B585B0104B5A6A42F000425A625A6AAD
:100A4C0002F000420192019A1A6A42F001021A6203
:100A5C001A6A02F001020292029A5A6A42F0805219
:100A6C005A625B6A03F080530393039B072001F0E7
:100A7C00F9FA05B05DF804FB0038024010B588B0F7
:100A8C000023039304930593069307930268234B67
:100A9C009A4201D008B010BD044603F58A331A6A95
:100AAC0042F400721A621A6A02F400720192019AFC
:100ABC00DA6942F00102DA61DB6903F001030293A7
:100ACC00029B03230393049303A9154801F0BCF87C
:100ADC001448154B03600023436083608023C3607C
:100AEC004FF4807303614FF480634361202383616F
:100AFC004FF48053C36101F0CBF958B9094B6364CF
:100B0C005C6200221146122001F0BEFA122001F0A4
:100B1C00F3FABFE7FFF7E2FDF0E700BF0024014066
:100B2C0000000240EC000020086002400368B3F1B2
:100B3C00804F00D0704700B583B003F50E335A6A6E
:100B4C0042F001025A625B6A03F001030193019BBC
:100B5C00002211461C2001F097FA1C2001F0CCFA5F
:100B6C0003B05DF804FB000000B583B00368174ABE
:100B7C00934205D0164A934215D003B05DF804FB9E
:100B8C00144B1A6A42F004021A621B6A03F0040343
:100B9C000093009B00221146192001F075FA1920D0
:100BAC0001F0AAFAE9E70B4B1A6A42F010021A623A
:100BBC001B6A03F010030193019B002211461B20BA
:100BCC0001F062FA1B2001F097FAD6E70008014009
:100BDC00001001400038024000B589B00023039397
:100BEC00049305930693079303681A4A934205D01E
:100BFC00194A934218D009B05DF804FB174BDA6917
:100C0C0042F00202DA61DB6903F002030193019BFB
:100C1C004FF480430393022304930323079303A904
:100C2C000F4801F011F8E6E70C4BDA6942F00202CA
:100C3C00DA61DB6903F002030293029B4FF4004379
:100C4C000393022304930323079303A9044800F09E
:100C5C00FBFFD0E7000801400010014000380240C3
:100C6C000004024000B589B000230393049305935C
:100C7C00069307930268134B9A4202D009B05DF8B1
:100C8C0004FB03F5FA335A6A42F400325A625A6A88
:100C9C0002F400320192019ADA6942F00102DA613F
:100CAC00DB6903F001030293029B0C2303930223E1
:100CBC000493032306930723079303A9024800F028
:100CCC00C3FFDBE70044004000000240002800F0B6
:100CDC00BC8070B582B00446C36C002B5FD0E36C53
:100CEC0013F0100F40F0B380E36C23F4885323F01F
:100CFC00020343F00203E364564A536823F440337F
:100D0C0061680B435360E3686269134394F83C10C9
:100D1C004FF4007292FAA2F2B2FA82F201FA02F2E3
:100D2C001343226A134394F82400022292FAA2F28B
:100D3C00B2FA82F200FA02F21343626B102A02D06A
:100D4C00A16B0A43134325682A6812F0400214D1A0
:100D5C00A1690B43A168E66931432669B6F5807F2A
:100D6C0030D0012E2BD00A4394F82C1001292BD013
:100D7C006868394901401143696021688868374ABD
:100D8C0002401A438A602269B2F5807F33D0012A6F
:100D9C0031D021680A6B22F0F8720A633AE00365DD
:100DAC0080F848302E4B1A6A42F001021A621B6A14
:100DBC0003F001030193019BFFF760FE8FE74FF4F3
:100DCC008072D0E73246CEE760B9216B01394FF41F
:100DDC00604090FAA0F0B0FA80F0814041F40061DC
:100DEC000A43C5E7E16C41F02001E164216D41F05B
:100DFC0001012165BCE725682A6B22F0F872A16A13
:100E0C0001394FF0F87090FAA0F0B0FA80F0814000
:100E1C000A432A6322689168124A0A409A420BD00C
:100E2C00E36C23F0120343F01003E364236D43F0EF
:100E3C000103236501200BE000202065E36C23F007
:100E4C00030343F00103E36402E001207047012037
:100E5C0002B070BD00270140FF16FCFC89F1FFC0F9
:100E6C0000380240FEFF80BF704708B5436ADA6C59
:100E7C0012F0500F27D1DA6C42F40072DA641A685F
:100E8C00916811F0405F1AD193F82410B9B9116B25
:100E9C0011F0F87F03D0916811F4806F0FD1516875
:100EAC0021F020015160DA6C22F48072DA64DA6C81
:100EBC0012F4805F03D1DA6C42F00102DA64184656
:100ECC00FFF7D2FF08BD5B6C1B6B9847FAE77047C6
:100EDC0008B5406AFFF7FBFF08BD7047704708B5BF
:100EEC00406AC36C43F04003C364036D43F00403D6
:100EFC000365FFF7F3FF08BD70B5044603681E6871
:100F0C005D6815F0200F30D016F0020F2DD0C26C9A
:100F1C0012F0100F03D1C26C42F40072C2649A68D2
:100F2C0012F0405F1AD194F82420BAB91A6B12F05F
:100F3C00F87F03D09A6812F4806F0FD15A6822F0B0
:100F4C0020025A60E36C23F48073E364E36C13F4C3
:100F5C00805F03D1E36C43F00103E3642046FFF7A9
:100F6C0083FF23686FF012021A6015F0800F39D0DE
:100F7C0016F0040F36D0E36C13F0100F03D1E36CB2
:100F8C0043F40053E36423689A6812F4401F22D19F
:100F9C005A6C12F4401F03D09A6812F4806F1AD165
:100FAC005A6812F4806F16D19A6812F0405F12D111
:100FBC0094F824207AB95A6822F080025A60E36CC3
:100FCC0023F48053E364E36C13F4807F03D1E36C6C
:100FDC0043F00103E364204600F0A4F923686FF0AA
:100FEC000C021A6015F0400F02D016F0010F06D15A
:100FFC0015F0806F02D016F0200F0CD170BDE36C91
:10100C0043F48033E3642046FFF767FF23686FF0F7
:10101C0001021A60ECE7236D43F002032365236899
:10102C006FF020051D602046FFF758FF23681D60F8
:10103C00E4E7000030B482B00023019390F848300C
:10104C00012B00F0BE800246012380F848304B682B
:10105C00062B2BD80468206C03EB8303053B4FF065
:10106C001F0C0CFA03FC20EA0C000D6805FA03F3C4
:10107C00034323640B68092B56D81468606903EB8F
:10108C0043034FF0070C0CFA03FC20EA0C008D68AC
:10109C0005FA03F3034363610B68103B012B71D911
:1010AC00002082F8480002B030BC70470C2B0DD8E1
:1010BC000568E86B03EB8303233B1F249C4020EA69
:1010CC0004000C689C402043E863D3E7122B0DD836
:1010DC000568A86B03EB8303413B1F249C4020EA6B
:1010EC0004000C689C402043A863C3E7182B0DD860
:1010FC000568686B03EB83035F3B1F249C4020EA6D
:10110C0004000C689C4020436863B3E70568286BB7
:10111C0003EB83037D3B1F249C4020EA04000C68F6
:10112C009C4020432863A5E7132B0DD8156828692C
:10113C0003EB43031E3B07249C4020EA04008C680D
:10114C009C4020432861A7E71D2B0DD81568E86843
:10115C0003EB43033C3B07249C4020EA04008C68CF
:10116C009C402043E86097E71568E86D03EB430368
:10117C005A3B07249C4020EA04008C689C40204386
:10118C00E86589E7104B5B6813F4000F88D10E48B3
:10119C00436843F4000343600B68102B80D10B4B66
:1011AC001B680B49A1FB03139B0C03EB83035B0034
:1011BC00019302E0019B013B0193019B002BF9D1B0
:1011CC006EE702206FE700BF0027014008000020F7
:1011DC0083DE1B4330B583B00023019303681A6888
:1011EC0012F0400F35D104469A6842F001029A6021
:1011FC00194B1B68194AA2FB03239B0C03EB4303FB
:10120C00019302E0019B013B0193019B002BF9D15F
:10121C0000F0CEF8054623681B6813F0400F16D17A
:10122C0000F0C6F8431B022BF5D923681B6813F09A
:10123C00400FF0D1E36C43F01003E364236D43F0F3
:10124C0001032365002384F84830012002E00020CC
:10125C0000E0002003B030BD0800002083DE1B43FB
:10126C00F8B50D4690F84810012952D004461646A0
:10127C00012380F84830FFF7ADFF0746002849D11D
:10128C00E16C21F4E06121F0010141F48071E16431
:10129C0023685B6813F4806F05D0E36C23F4405330
:1012AC0043F48053E364E36C13F4805F2ED0236D1E
:1012BC0023F006032365002384F84830636C164A38
:1012CC009A62636C154ADA62636C154A1A63236876
:1012DC006FF022021A602268536843F080635360F7
:1012EC002268936843F480739360216833462A46DE
:1012FC005831606C00F018FE23689A6812F0405F59
:10130C0008D19A6842F080429A6003E0002323657A
:10131C00D1E702273846F8BD770E0008DD0E00082D
:10132C00EB0E000870470000104B1B680BB9012036
:10133C00704710B504464FF47A70B0FBF3F30C4AC7
:10134C001068B0FBF3F000F0E5FE68B90F2C01D982
:10135C0001200AE0002221464FF0FF3000F094FEFD
:10136C00044B1C60002000E0012010BD0000002098
:10137C00080000200400002010B5032000F072FECD
:10138C000020FFF7D1FF10B10124204610BD044608
:10139C00FFF74EFBF9E70000034A1368034909689D
:1013AC000B441360704700BF3C020020000000207B
:1013BC00014B1868704700BF3C02002010B483B08A
:1013CC001F4B9B6813F0F00328D11D4A526A12F090
:1013DC00805F10D01B4A126802F4C052B2F5C05F95
:1013EC001DD1B0F5404F1AD1174A136843F00403CE
:1013FC001360012313E012494A6A42F080524A6298
:10140C004A6A02F080520192019A0E4A126802F462
:10141C00C0524C6A24F080544C62DFE700230A4926
:10142C000A6822F001021A430A600A6802F00102FB
:10143C009A4203D1002003B010BC70470120FAE798
:10144C000038024000700040003C0240002800F0D0
:10145C005E82F0B583B00446A24B9D6805F00C0586
:10146C009E6806F48036036813F0010F1DD0082D1A
:10147C0012D00C2D0ED06368012B35D0002B49D126
:10148C00984B1A6822F480321A601A6822F480226F
:10149C001A602EE0002EEED0924B1B6813F4003F26
:1014AC0003D06368002B00F03482236813F0020F22
:1014BC0068D0042D55D00C2D51D0E368002B00F0D2
:1014CC00C780894B01221A60FFF772FF0646854BD5
:1014DC001B6813F0020F40F0B280FFF769FF801B0E
:1014EC000228F4D903201DE27E4A136843F48033AA
:1014FC001360636823B3FFF75BFF0746794B1B68E8
:10150C0013F4003FD1D1FFF753FFC01B6428F5D96A
:10151C00032007E2052B09D0724B1A6822F48032A3
:10152C001A601A6822F480221A60E2E76D4B1A687E
:10153C0042F480221A601A6842F480321A60D8E7AA
:10154C00FFF736FF0746674B1B6813F4003FACD020
:10155C00FFF72EFFC01B6428F5D90320E2E1002E13
:10156C00ABD1604B1B6813F0020F03D0E368012B67
:10157C0040F0D1815B4A536823F4F853216943EA64
:10158C0001235360236813F0100F3BD0002D40F063
:10159C008580544B1B6813F4007F03D0A369002B88
:1015AC0000F0BB81206A4F4B5B6803F460439842A8
:1015BC0060D9FFF703FF002840F0B181494A536816
:1015CC0023F46043216A0B435360536823F07F4339
:1015DC00E16943EA01635360236A5B0B5A1C4FF4C5
:1015EC00004393403F4A9268C2F303123F498A5C1E
:1015FC00D3403F4A13603F4B1868FFF795FE002815
:10160C0040F09081236813F0080F00F09B80636911
:10161C00002B00F08480344B0122C3F88026FFF7A6
:10162C00C7FE06462F4B5B6B13F0020F40F08A800F
:10163C00FFF7BEFE801B0228F4D9032072E1294A71
:10164C00536823F4F853216943EA0123536099E763
:10165C00254B00221A60FFF7ABFE0646214B1B6898
:10166C0013F0020F8ED0FFF7A3FE801B0228F5D9D2
:10167C00032057E11B4A536823F46043184350601E
:10168C00536823F07F43E16943EA01635360206AA6
:10169C00FFF794FE00289FD0012043E1A3695BB3C0
:1016AC00114B01221A62FFF783FE06460D4B1B6895
:1016BC0013F4007F06D1FFF77BFE801B0228F5D9BF
:1016CC0003202FE1074A536823F46043216A0B433C
:1016DC005360536823F07F43E16943EA016353602D
:1016EC0090E700BF0038024000004742DC3300089E
:1016FC0008000020040000208F4B00221A62FFF724
:10170C0057FE06468D4B1B6813F4007F3FF47AAFEF
:10171C00FFF74EFE801B0228F4D9032002E1864B12
:10172C000022C3F88026FFF743FE0646834B5B6B13
:10173C0013F0020F06D0FFF73BFE801B0228F5D9F1
:10174C000320EFE0236813F0040F79D07B4B5B6A26
:10175C0013F0805F0BD1794B5A6A42F080525A6277
:10176C005B6A03F080530193019B012600E0002685
:10177C00734B1B6813F4807F0ED0A368012B1FD012
:10178C00002B35D16D4B5A6B22F480725A635A6B15
:10179C0022F480625A6318E0694A136843F4807338
:1017AC001360FFF705FE0746654B1B6813F4807F3B
:1017BC00E3D1FFF7FDFDC01B6428F5D90320B1E090
:1017CC005E4A536B43F480735363A36833B3FFF7E0
:1017DC00EFFD0746594B5B6B13F4007F2FD1FFF7DE
:1017EC00E7FDC01B41F288339842F3D9032099E0FE
:1017FC00052B09D0514B5A6B22F480725A635A6BE9
:10180C0022F480625A63E0E74C4B5A6B42F48062DC
:10181C005A635A6B42F480725A63D6E7FFF7C8FDDD
:10182C000746464B5B6B13F4007F08D0FFF7C0FDF7
:10183C00C01B41F288339842F3D9032072E0C6B939
:10184C00636A002B6DD00C2D4CD0022B17D03A4B69
:10185C0000221A66FFF7ACFD0446384B1B6813F0E8
:10186C00007F3DD0FFF7A4FD001B0228F5D9032013
:10187C0058E0324A536A23F080535362E0E72E4B10
:10188C0000221A66FFF794FD05462C4B1B6813F0DB
:10189C00007F06D0FFF78CFD401B0228F5D90320F2
:1018AC0040E026498B6823F47D03A26AE06A024378
:1018BC00206B024313438B601F4B01221A66FFF708
:1018CC0077FD04461D4B1B6813F0007F06D1FFF714
:1018DC006FFD001B0228F5D9032023E0002021E036
:1018EC0000201FE0012B1FD0144B9B6803F48031A8
:1018FC00A26A91421AD103F47012E16A8A4217D19A
:10190C0003F44003226B934214D100200AE001201F
:10191C007047012006E0012004E0012002E00120D4
:10192C0000E0002003B0F0BD0120FBE70120F9E747
:10193C000120F7E70120F5E700004742003802409C
:10194C000070004008B5324B9A6802F00C03082B6B
:10195C005AD00C2B0AD0042B58D02D4B5B68C3F3F8
:10196C00423301334FF40040984050E0C2F38343BC
:10197C002849C85CC2F381520132254B9B6813F491
:10198C00803F20D04FEA401CBCEB000C6EEB0E0EDF
:10199C004FEA8E1343EA9C634FEA8C11B1EB0C01B6
:1019AC0063EB0E03DB0043EA5173C90011EB000C2F
:1019BC0043F10003590200234FEA4C2041EADC5169
:1019CC00FEF7D6FB23E04FEA401CBCEB000C6EEBA1
:1019DC000E0E4FEA8E1343EA9C634FEA8C11B1EB67
:1019EC000C0163EB0E03DB0043EA5173C90011EBEE
:1019FC00000C43F10003990200234FEA8C2041EACA
:101A0C009C51FEF7B5FB02E0034800E0034808BD1B
:101A1C0000380240F433000800127A000024F4006D
:101A2C00002800F0D98070B50C4605466E4B1B683B
:101A3C0003F001038B420DD2012928D06A4A1368A6
:101A4C0023F0010323431360136803F00103A34243
:101A5C0040F0C4802B6813F0020F06D0634A9368E1
:101A6C0023F0F003A9680B4393602B6813F0010F6C
:101A7C0072D06B68022B10D0032B32D0012B37D0D5
:101A8C005A4A126812F4007F0DD101209DE0564A8B
:101A9C00136843F004031360D0E7544A126812F43D
:101AAC00003F00F09D8051498A6822F003021343E5
:101ABC008B60FFF77DFC06466B68022B1FD0032B57
:101ACC002CD0012B39D0494B9B6813F00C0F43D011
:101ADC00FFF76EFC801B41F288339842F3D9032048
:101AEC0073E0424A126812F0007FDCD101206CE0F6
:101AFC003E4A126812F0020FD5D1012065E03B4B33
:101B0C009B6803F00C03082B26D0FFF751FC831BBA
:101B1C0041F288329342F2D9032056E0334B9B6852
:101B2C0003F00C030C2B17D0FFF742FC801B41F287
:101B3C0088339842F2D9032047E02C4B9B6803F082
:101B4C000C03042B08D0FFF733FC801B41F28833C5
:101B5C009842F2D9032038E0234B1B6803F00103B1
:101B6C00A3420CD9012C31D01F4A136823F0010376
:101B7C0023431360136803F00103A34232D12B6893
:101B8C0013F0040F06D0194A936823F4E063E96854
:101B9C000B4393602B6813F0080F07D0134A93681C
:101BAC0023F46053296943EAC1039360FFF7CAFE2B
:101BBC000E4B9B68C3F303130D4AD35CD8400D4BFB
:101BCC0018600D4B1868FFF7AFFB70BD064A136821
:101BDC0043F004031360C7E7012070470120F4E7CA
:101BEC000120F2E70120F0E7003C024000380240FF
:101BFC00DC3300080800002004000020014B1868AA
:101C0C00704700BF0800002008B5FFF7F7FF044B32
:101C1C009B68C3F30223034AD35CD84008BD00BFC2
:101C2C0000380240EC33000808B5FFF7E7FF044B1F
:101C3C009B68C3F3C223034AD35CD84008BD00BFE2
:101C4C0000380240EC33000870B582B0002365E028
:101C5C0085685E000324B44025EA0405CC68B440D2
:101C6C002C438460456825EA0C054C68C4F30014C9
:101C7C009C402C43446062E0DD08083550F8254058
:101C8C0003F0070C4FEA8C0C4FF00F0E0EFA0CFE03
:101C9C0024EA0E0E0C6904FA0CF444EA0E0440F823
:101CAC00254063E0062400E0002404FA0EF42C43E3
:101CBC000CF1020C5A4D45F82C405A4CA568D443F3
:101CCC0025EA0206D1F804C01CF4801F01D042EAB8
:101CDC000506544DAE60ED6804EA0506D1F804C063
:101CEC001CF4001F01D042EA05064E4DEE606D68F3
:101CFC0004EA0506D1F804C01CF4003F01D042EA06
:101D0C000506484D6E602D682C404E6816F4803FD9
:101D1C0001D042EA0504434A146001330A6832FADE
:101D2C0003F47BD04FF0010C0CFA03FC1CEA02020A
:101D3C00F3D04C6804F00304013C012C88D94C68A6
:101D4C0004F00304032C0CD0C4685D004FF0030CAA
:101D5C000CFA05FC24EA0C0C8C68AC4044EA0C042C
:101D6C00C4604C6804F00304022C85D004684FEA6C
:101D7C00430E4FF0030C0CFA0EFC24EA0C0C4C68CE
:101D8C0004F0030404FA0EF444EA0C0404604C68F6
:101D9C0014F4403FC1D0244C256A45F0010525625E
:101DAC00246A04F001040194019C4FEA930C0CF199
:101DBC0002051B4C54F8255003F0030E4FEA8E0E0F
:101DCC000F2404FA0EF425EA0405184CA0423FF443
:101DDC006BAF04F58064A04216D004F58064A04279
:101DEC0014D004F58064A04212D004F58064A042A3
:101DFC0010D004F58064A0420ED004F58064A0429B
:101E0C003FF450AF072450E701244EE702244CE77F
:101E1C0003244AE7042448E7052446E702B070BDD2
:101E2C000000014000040140003802400000024064
:101E3C000AB18161704709048161704708B5054B8F
:101E4C005B69034200D108BD024B5861FEF7ACFB45
:101E5C00F9E700BF0004014010B4046C04F01C0C42
:101E6C00012404FA0CF4D0F83CC0CCF8044004680B
:101E7C0063604368102B05D0036899600368DA60CF
:101E8C0010BC704703689A600368D960F8E70000DB
:101E9C0000283AD010B4024600681D4B984229D84D
:101EAC001C4B03441C49A1FB03131B099B0013642B
:101EBC001A4BD363022382F82130016821F4FF41CD
:101ECC0021F07001536894682343D4682343146948
:101EDC0023435469234394692343D46923430B4319
:101EEC00036000209063012382F8213082F82000E7
:101EFC0010BC70470A4B03440749A1FB03131B0991
:101F0C009B001364074BD363D4E70120704700BFD9
:101F1C0007640240F89FFDBFCDCCCCCC00600240E2
:101F2C00F89BFDBF0064024038B5044690F82000D1
:101F3C00012832D0012084F8200094F82100C0B28E
:101F4C00012804D0002384F82030022038BD022060
:101F5C0084F821000020A0632568286820F0010087
:101F6C0028602046FFF778FFE36A5BB122681368AC
:101F7C0043F00E0313602268136843F001031360EF
:101F8C000020E3E72268136823F00403136022683F
:101F9C00136843F00A031360EDE70220D6E738B567
:101FAC00C36B196804682568036C03F01C030422D6
:101FBC009A400A4215D015F0040F12D0236813F082
:101FCC00200F03D1236823F004032360036C03F078
:101FDC001C02C16B042393404B60C36A03B1984746
:101FEC0038BD02229A400A421CD015F0020F19D0BB
:101FFC00236813F0200F06D1236823F00A03236013
:10200C00012380F82130036C03F01C02C16B022306
:10201C0093404B60002380F82030836A002BDFD084
:10202C009847DDE7082202FA03F30B42D8D015F0EB
:10203C00080FD5D0236823F00E032360036C03F044
:10204C001C03C16B012202FA03F34B60826380F81C
:10205C002120002380F82030036B002BC0D0984740
:10206C00BEE70000074AD36823F4E0631B041B0C93
:10207C00000200F4E060034343F0BF6343F4003319
:10208C00D360704700ED00E000B5194BDB68C3F37B
:10209C000223C3F1070CBCF1040F28BF4FF0040C52
:1020AC0003F1040EBEF1060F18D9033B4FF0FF3EAF
:1020BC000EFA0CFC21EA0C0199400EFA03FE22EAFE
:1020CC000E020A4300280BDB1201D2B200F1604071
:1020DC0000F5614080F800235DF804FB0023E5E780
:1020EC0000F00F001201D2B2024B1A54F4E700BFF9
:1020FC0000ED00E014ED00E0002807DB00F01F020B
:10210C00400901239340024A42F82030704700BF37
:10211C0000E100E00138B0F1807F0BD24FF0E023FA
:10212C005861054AF02182F823100020986107229B
:10213C001A6170470120704700ED00E00368B0F1B0
:10214C00804F0ED01E4A90420BD002F58062904216
:10215C0007D002F58062904203D002F57C42904297
:10216C0003D123F070034A681343B0F1804F16D0AB
:10217C00134A904213D002F5806290420FD002F5C0
:10218C00806290420BD002F57C42904207D002F55F
:10219C008062904203D002F58062904203D123F416
:1021AC004073CA68134323F080030A691343036026
:1021BC008B68C3620B68836201234361704700BF65
:1021CC000004004030B4046A036A23F00103036284
:1021DC004568826922F073020B681A4324F0020CE2
:1021EC008B6843EA0C03456082614A684263036270
:1021FC0030BC704710B4036A026A22F0100202620B
:10220C004468826922F4E642D1F800C042EA0C220A
:10221C0023F02003D1F808C043EA0C134460826118
:10222C004A688263036210BC704710B4036A026A86
:10223C0022F4807202624468C26922F0730C0A684C
:10224C0042EA0C0223F40073D1F808C043EA0C23D1
:10225C004460C2614A68C263036210BC704710B428
:10226C00036A026A22F4805202624468C26922F450
:10227C00E642D1F800C042EA0C2223F40053D1F814
:10228C0008C043EA0C334460C2614A6802640362CA
:10229C0010BC704710B4036A046A24F00104046291
:1022AC00846924F0F00C4CEA021223F00A030B436D
:1022BC008261036210BC704710B4036A046A24F094
:1022CC0010040462846924F4704C4CEA023223F04A
:1022DC00A00343EA01138261036210BC7047836858
:1022EC0023F070030B4343F007038360704710B473
:1022FC00846824F47F4C42EA03220A4342EA0C022B
:10230C00826010BC704701F01F014FF0010C0CFAF9
:10231C0001FC036A23EA0C030362036A8A40134339
:10232C000362704700B310B5044690F83930B3B16E
:10233C00022384F83930214651F8040BFFF7FEFED6
:10234C00012384F83E3084F83A3084F83B3084F82A
:10235C003C3084F83D3084F83930002010BD80F8D2
:10236C003830FEF7E3FBE3E70120704790F8393093
:10237C00DBB2012B27D1022380F839300268D368F5
:10238C0043F00103D3600368B3F1804F10D0104ABF
:10239C0093420DD002F58062934209D002F580324F
:1023AC00934205D01A6842F001021A60002070476F
:1023BC009A6802F00702062A07D01A6842F0010256
:1023CC001A6000207047012070470020704700BF42
:1023DC000004004000B310B5044690F83930B3B196
:1023EC00022384F83930214651F8040BFFF7A6FE7E
:1023FC00012384F83E3084F83A3084F83B3084F87A
:10240C003C3084F83D3084F83930002010BD80F821
:10241C003830FEF7A9FBE3E70120704710B50446FE
:10242C00084631BB94F83A30DBB2013B18BF0123AC
:10243C00002B52D1002835D1022384F83A300122E6
:10244C0001462068FFF75FFF2368B3F1804F39D056
:10245C00244A934236D002F58062934232D002F580
:10246C00803293422ED01A6842F001021A6000208A
:10247C0034E0042908D008290DD094F83D30DBB2A3
:10248C00013B18BF0123D3E794F83B30DBB2013B8F
:10249C0018BF0123CCE794F83C30DBB2013B18BFEA
:1024AC000123C5E7042805D0082807D0022384F8A7
:1024BC003D30C4E7022384F83B30C0E7022384F8A4
:1024CC003C30BCE79A6802F00702062A07D01A686B
:1024DC0042F001021A60002000E0012010BD002033
:1024EC00FCE700BF0004004038B590F83830012BF1
:1024FC0066D004460D46012380F838300C2A5AD891
:10250C00DFE802F0075959591B5959593059595993
:10251C0044000068FFF756FE2268936943F00803F5
:10252C0093612268936923F0040393612268936991
:10253C00E9680B43936100203EE00068FFF75AFE08
:10254C002268936943F4006393612268936923F4CE
:10255C008063936122689369E96843EA012393617C
:10256C00002029E00068FFF760FE2268D36943F081
:10257C000803D3612268D36923F00403D361226872
:10258C00D369E9680B43D361002015E00068FFF7BD
:10259C0066FE2268D36943F40063D3612268D36971
:1025AC0023F48063D3612268D369E96843EA012389
:1025BC00D361002000E00120002384F8383038BDBE
:1025CC000220FCE790F83830012B78D010B5044687
:1025DC00012380F83830022380F839300268936880
:1025EC0023F47F4323F0770393600B68602B4CD06C
:1025FC0029D8402B54D00CD9502B22D1CA68496809
:10260C000068FFF747FE50212068FFF768FE0020A6
:10261C0005E0202B0DD009D9302B0AD00120012345
:10262C0084F83930002384F8383010BD0BB1102BEE
:10263C0005D119462068FFF752FE0020EFE7012074
:10264C00EDE70120EBE7B3F5805F34D0B3F5005F25
:10265C000CD1CB684A6889680068FFF748FE22688D
:10266C00936843F4804393600020D8E7702B24D107
:10267C00CB684A6889680068FFF739FE226893685E
:10268C0043F0770393600020C9E7CA684968006883
:10269C00FFF712FE60212068FFF721FE0020BEE745
:1026AC00CA6849680068FFF7F5FD40212068FFF70C
:1026BC0016FE0020B3E70020B1E70120AFE70220AF
:1026CC007047704770477047704710B504460368F1
:1026DC001A6912F0020F11D0DA6812F0020F0DD045
:1026EC006FF002021A610123037603689B6913F0F1
:1026FC00030F5ED0FFF7E6FF0023237623681A69E9
:10270C0012F0040F12D0DA6812F0040F0ED06FF032
:10271C0004021A610223237623689B6913F4407F19
:10272C004DD02046FFF7CEFF0023237623681A698D
:10273C0012F0080F12D0DA6812F0080F0ED06FF0FA
:10274C0008021A61042323762368DB6913F0030F54
:10275C003CD02046FFF7B6FF0023237623681A6986
:10276C0012F0100F12D0DA6812F0100F0ED06FF0BA
:10277C0010021A61082323762368DB6913F4407F67
:10278C002BD02046FFF79EFF0023237623681A697F
:10279C0012F0010F03D0DA6812F0010F24D1236874
:1027AC001A6912F0400F03D0DA6812F0400F22D1F0
:1027BC0010BDFFF786FF2046FFF785FF9CE72046FC
:1027CC00FFF77FFF2046FFF77EFFADE72046FFF7C0
:1027DC0078FF2046FFF777FFBEE72046FFF771FF33
:1027EC002046FFF770FFCFE76FF001021A61204619
:1027FC00FDF752FFD3E76FF040021A612046FFF756
:10280C0063FFD5E790F83820012A2CD010B403468A
:10281C00012280F83820022280F8392002685068A2
:10282C00946820F0700C086840EA0C0050601A683C
:10283C00B2F1804F0AD00D48824207D000F580607B
:10284C00824203D000F58030824204D124F080040F
:10285C00496821439160012283F83920002083F8D4
:10286C00380010BC70470220704700BF00040040C5
:10287C0010B504460268136923F44053C1680B4336
:10288C001361836802691A4343691A43C3691A4383
:10289C000168CB6823F4164323F00C031343CB607D
:1028AC000268536923F4407381690B4353610268D6
:1028BC00244B9A4223D0FFF7A7F9E369B3F5004FF5
:1028CC0020D000EB800202EB820263689B00B2FB1B
:1028DC00F3F21D48A0FB02314909642303FB1123C9
:1028EC001B013233A0FB03035B0903F0F00202EB84
:1028FC00011203F00F03216813448B6010BDFFF726
:10290C0093F9DAE700EB800000EB800063685B0072
:10291C00B0FBF3F00C4AA2FB00314909642303FB22
:10292C001103DB003233A2FB03235B095A0002F4D0
:10293C00F87202EB011203F00703216813448B6059
:10294C00DCE700BF003801401F85EB5160B310B5C8
:10295C00044690F8413013B3242384F841302268A4
:10296C00D36823F40053D3602046FFF781FF22681D
:10297C00136923F4904313612268536923F02A03EB
:10298C0053612268D36843F40053D3600020606421
:10299C00202384F8413084F84230606310BD80F805
:1029AC004030FEF75FF9D7E7012070477047000011
:1029BC00FFF7FCFF0B480C490C4A002302E0D458EB
:1029CC00C4500433C4188C42F9D3094A094C00236F
:1029DC0001E013600432A242FBD300F041FAFDF790
:1029EC00B3FF70470000002068000020103400087E
:1029FC006800002090030020FEE70000002310B5C3
:102A0C000446C0E90033C0E9043383608181436626
:102A1C00C2818361194608225C3000F0D3F9054B62
:102A2C0024626362044BA362044BE362044B236392
:102A3C0010BD00BF212C0008432C00087B2C000883
:102A4C009F2C0008024A0349034800F069B800BFF4
:102A5C000C000020A53100081800002041680C4B28
:102A6C0010B59942044601D000F096FBA168094BC1
:102A7C00994202D0204600F08FFBE168064B994248
:102A8C0004D02046BDE8104000F086BB10BD00BF4E
:102A9C0040020020A80200201003002010B50B4BB0
:102AAC000B4C0C4A20461A6004210022FFF7A6FFAB
:102ABC0004F1680001220921FFF7A0FF04F1D00006
:102ACC000222BDE810401221FFF798BF78030020C6
:102ADC0040020020512A0008014800F0E5B900BF6F
:102AEC0081030020014800F0E0B900BF8103002001
:102AFC0010B50446FFF7F0FF236A1BB1BDE8104088
:102B0C00FFF7F0BF044B2362044B1B68002BF5D17D
:102B1C00FFF7C4FFF2E700BF692A00087803002022
:102B2C002DE9F8430746884614460026D4E901955A
:102B3C00B9F1010905D52468002CF7D13046BDE860
:102B4C00F883AB89012B07D9B5F90E30013303D0CB
:102B5C0029463846C04706436835E9E7036A70B52D
:102B6C0005460E4684680BB9FFF7C2FF636EDB07A0
:102B7C0005D4A389980502D4A06D00F095F9A3891A
:102B8C00190713D523698BB1013EA36816F8011FF1
:102B9C00013BA360E9B9002B2EDA22460A21284614
:102BAC0000F07BF8013007D00A2507E021462846C3
:102BBC0000F0B0F80028E7D04FF0FF35636EDA076D
:102BCC0005D4A3899B0502D4A06D00F06EF92846AC
:102BDC0070BD002B04DAA2699A4206DC0A2904D0E3
:102BEC0023685A1C22601970CFE72246284600F051
:102BFC0054F80130C9D1DFE70A2523685A1C22603A
:102C0C001D70DBE7024B01461868FFF7A7BF00BF3A
:102C1C006400002010B50C46B1F90E1000F0FCF861
:102C2C000028ABBF636DA3891B1823F48053ACBF82
:102C3C006365A38110BD2DE9F0411F468B890546C4
:102C4C00DB050C46164605D502230022B1F90E1001
:102C5C0000F0D0F8A389324623F48053A381284690
:102C6C003B46B4F90E10BDE8F04100F0E7B810B5E2
:102C7C000C46B1F90E1000F0BDF8431CA38915BF2A
:102C8C00606523F4805343F48053A38118BFA38160
:102C9C0010BDB1F90E1000F09DB8F8B50E461446F3
:102CAC00054618B1036A0BB9FFF722FFA369A360AD
:102CBC00A3891A0725D523691BB323682269F6B2A9
:102CCC00981A63693746834204DC2146284600F093
:102CDC0063FAE0B9A368013BA36023685A1C226025
:102CEC001E706269431C9A4204D0A389DB0706D587
:102CFC000A2E04D12146284600F04EFA38B938463F
:102D0C00F8BD2146284600F005F80028D5D04FF034
:102D1C00FF37F4E738B52A4B054618680C4618B14E
:102D2C00036A0BB9FFF7E4FEA389B4F90C2018076A
:102D3C0022D4D90607D409232B6042F040034FF06C
:102D4C00FF30A38134E0580712D5616B41B104F117
:102D5C004403994202D0284600F0A8F8002363638C
:102D6C00A38923F02403A3810023636023692360D8
:102D7C00A38943F00803A38123694BB9A38903F406
:102D8C002073B3F5007F03D02146284600F051FA9A
:102D9C00A089B4F90C2010F001030AD00023A36021
:102DAC0063695B42A361236943B910F08000C4D10D
:102DBC0038BD810758BF6369A360F4E70020F7E7CB
:102DCC006400002003460244934200D1704703F88C
:102DDC00011BF9E738B50023054D044608462B6066
:102DEC0000F096FA431C02D12B6803B1236038BD66
:102DFC007C03002038B50446084611460022054DD8
:102E0C002A601A4600F09CFA431C02D12B6803B1CD
:102E1C00236038BD7C03002038B5044608461146B3
:102E2C000022054D2A601A4600F092FA431C02D18A
:102E3C002B6803B1236038BD7C03002038B50446F1
:102E4C00084611460022054D2A601A4600F096FAF3
:102E5C00431C02D12B6803B1236038BD7C030020D6
:102E6C0070B500260C4D0D4C641BA410A64209D164
:102E7C0000F08CFA00260A4D0A4C641BA410A642E2
:102E8C0005D170BD55F8043B98470136EEE755F86F
:102E9C00043B98470136F2E7083400080834000870
:102EAC00083400080C3400087047704738B50546E4
:102EBC00002940D051F8043C0C1F002BB8BFE4187B
:102ECC0000F0DCF81C4A136833B9636014602846C0
:102EDC00BDE8384000F0D8B8A34208D920682118C2
:102EEC008B4201BF19685B6809182160EDE71A462F
:102EFC005B680BB1A342FAD911685018A0420BD1F0
:102F0C0020680144501883421160E0D118685B6856
:102F1C00084410605360DAE702D90C232B60D6E723
:102F2C00206821188B4201BF19685B680918216061
:102F3C0063605460CBE738BD8403002070B50E4E3F
:102F4C000C463168054611B900F0D2F930602146C3
:102F5C00284600F0CDF9431C0AD0C41C24F003040D
:102F6C00A04207D0211A284600F0C2F9013001D145
:102F7C004FF0FF34204670BD880300202DE9F84344
:102F8C00CD1C25F0030508350C2D38BF0C25002D64
:102F9C00074601DBA94205D90C2300263B603046CD
:102FAC00BDE8F883DFF8D08000F068F8D8F800307E
:102FBC001C465CBB29463846FFF7C0FF431C044641
:102FCC0055D1D8F800402646002E45D1002C48D0CB
:102FDC0023683146384604EB030900F089F9814532
:102FEC003FD1216838466D1A2946FFF7A7FF0130FB
:102FFC0037D023682B442360D8F80030002B38D00E
:10300C005A68A2422BD100225A600FE02268521B50
:10301C001FD40B2A17D96119A342256018BF596018
:10302C00636808BFC8F8001062514B60384604F161
:10303C000B0600F029F826F00706231DF21AAED075
:10304C009B1BA350ABE7A3426268DDD1C8F80020FC
:10305C00ECE723466468ACE734467668B4E713467D
:10306C00CCE70C2338463B6000F00EF897E7256060
:10307C00DCE75B60FFDE00BF840300200148FFF744
:10308C0013BF00BF800300200148FFF70EBF00BF35
:10309C00800300208A89F8B5054610070C4657D4E2
:1030AC004B68002B04DC0B6C002B01DC0020F8BD02
:1030BC00E66A002EFAD0002312F480522F68216A9F
:1030CC002B6032D0606DA3895A0705D56368C01A8E
:1030DC00636B0BB1236CC01A00230246E66A2846C8
:1030EC00216AB047431CA38906D129681D292BD816
:1030FC00284A0A41D60727D4002262602269D904E3
:10310C00226004D5421C01D12B6803B96065616B48
:10311C002F600029CAD004F14403994202D02846FA
:10312C00FFF7C4FE00206063C1E701232846B047C7
:10313C00411CC8D12B68002BC5D01D2B01D0162BE0
:10314C0001D12F60B2E7A38943F04003A381AEE71E
:10315C000F69002FAAD0930718BF00230E6808BF71
:10316C004B69F61B0F608B60002E9FDD33463A4691
:10317C002846216AD4F828C0E047002806DCA38939
:10318C004FF0FF3043F04003A38190E70744361A19
:10319C00EAE700BFFEFFBFDF38B50B6905460C46FA
:1031AC0013B90025284638BD18B1036A0BB9FFF7CF
:1031BC009FFCB4F90C30002BF3D0626ED00704D412
:1031CC00990502D4A06DFFF76FFE28462146FFF744
:1031DC0061FF636E0546DA07E4D4A3899B05E1D44D
:1031EC00A06DFFF762FEDDE770B50C46B1F90E106D
:1031FC00154600291E4696B00CDAA389002113F05F
:10320C00800F0CBF4FF480634023002031602B6093
:10321C0016B070BD6A4600F049F80028EDDB019944
:10322C0001F47041A1F50053594259414FF48063A8
:10323C00EBE78B8973B59D0706460C4607D504F161
:10324C004703236023610123636102B070BD6A46AA
:10325C0001ABFFF7C9FF009905463046FFF78EFE1C
:10326C0048B9B4F90C309A05EFD423F0030343F0BA
:10327C000203A381E3E7A389206043F08003A381C9
:10328C00009B20616361019B5BB13046B4F90E1069
:10329C0000F01EF828B1A38923F0030343F00103C7
:1032AC00A381A3891D43A581CFE7000038B5002376
:1032BC00064D0446084611462B6000F031F8431CBD
:1032CC0002D12B6803B1236038BD00BF7C03002002
:1032DC0038B50023054D044608462B6000F028F84D
:1032EC00431C02D12B6803B1236038BD7C03002042
:1032FC0038B50023054D044608462B6000F030F825
:10330C00431C02D12B6803B1236038BD7C03002021
:10331C005822024B4FF0FF301A6070477C0300209C
:10332C005822024B4FF0FF301A6070477C0300208C
:10333C005822024B00201A60704700BF7C0300200B
:10334C005822024B4FF0FF301A6070477C0300206C
:10335C005822024B4FF0FF301A6070477C0300205C
:10336C00044A0346116809B9034911601068034403
:10337C00136070478C030020900300205822024BEE
:10338C004FF0FF301A6070477C030020F8B500BF87
:10339C00F8BC08BC9E467047F8B500BFF8BC08BC2A
:0433AC009E46704782
:1033B00062746E20310D000062746E20320D0000C8
:1033C00062746E20330D000062746E20340D0000B4
:1033D0005374617274696E670D0000000000000094
:1033E00000000000010203040607080900000000B5
:1033F00001020304030406080C101820300000002A
:08340000ACCDFF7F01000000CC
:043408006101000856
:04340C003D01000876
:10341000010000001000000068FF1F000000000015
:1034200003000000400200200000000040020020D5
:10343000A80200201003002000000000000000008F
:10344000000000000000000000000000000000007C
:10345000000000000000000000000000000000006C
:10346000000000000000000000000000000000005C
:0834700000000000180000201C
:04000005080029BD09
:00000001FF
