:020000040800F2
:1000000000400120D53300084D0D00084F0D0008B9
:10001000510D0008530D0008550D000800000000A8
:10002000000000000000000000000000570D000864
:10003000590D0008000000005B0D00085D0D000870
:100040001D3400081D3400081D3400081D3400084C
:100050001D3400081D3400081D3400081D3400083C
:100060001D3400081D3400081D340008650D00080B
:100070001D3400081D3400081D3400081D3400081C
:100080001D3400081D340008750D00081D340008DB
:100090001D3400081D3400081D340008850D0008BB
:1000A0001D340008950D0008A50D0008B50D0008C9
:1000B000C50D0008D50D00081D3400081D340008CA
:1000C0001D3400081D3400081D3400081D340008CC
:1000D0001D3400081D3400081D3400081D340008BC
:1000E000E50D00081D3400081D3400081D3400080B
:1000F0001D340008000000001D3400081D340008F5
:100100001D3400081D3400081D3400081D3400088B
:100110001D3400081D3400081D34000800000000D4
:100120001D34000800000000000000000000000076
:0C01300000000000000000005FF808F173
:10013C0053B94AB9002908BF00281CBF4FF0FF3142
:10014C004FF0FF3000F00CB8ADF1080C6DE904CEA7
:10015C0003F03EFEDDF804E0DDE9022304B0704755
:10016C00704700BF0348044B834202D0034B03B1DA
:10017C00184770477000002070000020000000003D
:10018C000548064B1B1AD90F01EBA301491002D0ED
:10019C00034B03B11847704770000020700000201B
:1001AC000000000010B5064C237843B9FFF7DAFFC6
:1001BC00044B13B10448AFF300800123237010BD2E
:1001CC0070000020000000009040000808B5054BAE
:1001DC001BB105490548AFF30080BDE80840FFF7A7
:1001EC00CFBF00BF0000000074000020904000084A
:1001FC002DE9F0418AB000240594069407940894E4
:10020C000994374BDA6942F00402DA61DA6902F0D8
:10021C0004020192019ADA6942F02002DA61DA6989
:10022C0002F020020292029ADA6942F00102DA61CB
:10023C00DA6902F001020392039ADA6942F00202CF
:10024C00DA61DB6903F002030493049BDFF894800A
:10025C0022464FF40051404602F064F8224D2246EB
:10026C004FF48071284602F05DF8602305934FF43B
:10027C0088160696079405A91C4801F05FFF4FF4F9
:10028C0000530593012706970794089405A9404647
:10029C0001F054FF4FF4807305930697079408946C
:1002AC0005A9284601F04AFF4FF4C0530593069662
:1002BC00079405A9284601F041FF22462146172044
:1002CC0002F08EF9172002F09BF9224621462820D5
:1002DC0002F086F9282002F093F90AB0BDE8F0810B
:1002EC0000380240000402400000024000080240B6
:1002FC0000B583B00A4BDA6942F08072DA61DB69CF
:10030C0003F080730193019B002211460B2002F035
:10031C0067F90B2002F074F903B05DF804FB00BF21
:10032C000038024007490B680748084A00FB0322C3
:10033C00074BA3FB0203DB0BC3EB0343D31A0B608A
:10034C00704700BF980000200D6619005FF36E3CEB
:10035C000180008010B582B0164B0193012417E088
:10036C00FFF7E0FF621C144B1B68B3FBF2F102FBBE
:10037C00113304F108010DEB010414F8041C0833CB
:10038C006B4413F8040C04F8040C03F8041CD4B2EA
:10039C00032CE5D9002308E003F108026A4412F8A3
:1003AC00041C064AD1540133DBB2032BF4D902B03E
:1003BC0010BD00BF01020304980000209000002033
:1003CC00C0EB00400D4B83FB00C30344C017C0EBD4
:1003DC00E3201AB90B6880B258637047042A05D021
:1003EC00082A07D00B6880B2186470470B6880B27B
:1003FC00986370470B6880B2D8637047810008809F
:10040C0008B5094B1B88B3F5754F04D9064B5B88AF
:10041C00B3F5754F00D808BD044B01221A7004487F
:10042C0003F010F9F7E700BFAC0000208E000020AD
:10043C00A840000810B50F4B1B780F4AD25C8242C3
:10044C0008D000220B4B1A704FF400510B4801F0EE
:10045C0069FF10BD074C0133237001224FF400518A
:10046C00064801F05FFF2378042BF2D1044B0122E4
:10047C001A70EEE78F00002090000020000402406C
:10048C008D0000200B4B1B780B4AD25C824203D0B0
:10049C00084B00221A7070470133DBB2054A137007
:1004AC00042BF8D1054B01221A70024B00221A7052
:1004BC00704700BF95000020000000209400002031
:1004CC0010B582B08DF804008DF805100A4C00228E
:1004DC004FF48071204601F025FF4FF47A7302220D
:1004EC0001A9064802F0A5F901224FF480712046BB
:1004FC0001F018FF02B010BD000002408002002085
:10050C0070B5054601210C20FFF7DAFF0F210920F9
:10051C00FFF7D6FF03210B20FFF7D2FF01210A20A2
:10052C00FFF7CEFF00240EE0FF210846FFF7C8FFBF
:10053C00322001F0B1F90021FF20FFF7C1FF32207A
:10054C0001F0AAF90134022CEEDD1B4EA6FB053698
:10055C007309C6F34716C3EB0313A5EB8304E4B28C
:10056C00092E25D91549A1FB0631CB08194603EBF9
:10057C008303A6EB4303DEB2092C1BD90F4DA5FB5D
:10058C000435EB081D4603EB8303A4EB4303DCB2F9
:10059C000120FFF795FF31460220FFF791FF294616
:1005AC000320FFF78DFF21460420FFF789FF70BD64
:1005BC000021E1E70025EBE789888888CDCCCCCCFD
:1005CC0000283AD0F8B5441EA4B21D4EA6FB043642
:1005DC007509C6F34716C5EB0515A4EB8505EDB2F9
:1005EC00092D0AD9174FA7FB0537FB081F4603EB4C
:1005FC008303A5EB4303DDB200E00027092E0AD9E3
:10060C001049A1FB0631CB08194603EB8303A6EB7B
:10061C004303DEB200E000210120FFF751FF314619
:10062C000220FFF74DFF39460320FFF749FF29460B
:10063C000420FFF745FF2046F8BD0020704700BF9F
:10064C0089888888CDCCCCCC00B583B0AA238DF812
:10065C00003007238DF8013002238DF8023000237F
:10066C008DF803308DF804004D388DF805004FF4EB
:10067C007A7306226946034802F046FE03B05DF821
:10068C0004FB00BFF800002010B504460520FFF75E
:10069C00DBFFB4F5006F34D01AD8202C54D0402C8A
:1006AC0037D101F0F3F8354B9B6803F596739842FC
:1006BC002FD9334802F0C6FF01F0E8F82F4B9860B1
:1006CC00304B1B78002B3BD10320FFF7DBFE20E0E7
:1006DC00B4F5805F1DD101F0D9F8284B5B6803F5A8
:1006EC009673984215D9284802F0ACFF01F0CEF869
:1006FC00224B5860234B1B78F3B90220FFF7C2FE44
:10070C0007E001F0C3F81D4B1B6803F59673984284
:10071C0000D810BD1D4802F095FF01F0B7F8174B3B
:10072C001860184B1B781BB90120FFF7ABFEF0E7E4
:10073C000120FFF77FFEECE70220FFF77BFEE8E7E6
:10074C000320FFF777FEE4E701F0A0F80B4BDB6822
:10075C0003F596739842DCD90D4802F073FF01F053
:10076C0095F8064BD860074B1B781BB90420FFF794
:10077C0089FECEE70420FFF75DFECAE79C0000204F
:10078C00C04000088C000020B8400008B0400008B1
:10079C00C840000838B504460368B3F1804F04D054
:1007AC002268104B9A4217D038BD0F4D02222946B1
:1007BC000E4800F0C3FF04220D492888FFF700FE05
:1007CC0000220C496888FFF7FBFDFFF7ABFD0A4AD6
:1007DC00137801331370E3E7084C2078FFF7F0FE31
:1007EC002070E1E7000C0140AC0000201C0300204D
:1007FC00C0010020400100209700002004000020D0
:10080C0072B6FEE708B50A480A4B03604FF4E133B1
:10081C00436000238360C36003610C2242618361E7
:10082C00C36102F041FD00B908BDFFF7E9FF00BF4D
:10083C00B00000200044004000B585B000230193B7
:10084C00029303931B481C4A026043608360C3609D
:10085C004FF48072026143618361C361036280F86B
:10086C0024300222826280F82C301022426383638F
:10087C00012380F83C3000F099FCA8B900230193C7
:10088C0001220292039301A90A4800F041FE68B9C3
:10089C00012301930223029301A9064800F038FEBC
:1008AC0030B905B05DF804FBFFF7AAFFFFF7A8FF0E
:1008BC00FFF7A6FF1C0300200024014008B50E48DA
:1008CC000E4B03604FF4827343604FF4004383601C
:1008DC000023C360036143614FF400728261C36102
:1008EC000362436283620A23C36201F043FF00B9CF
:1008FC0008BDFFF785FF00BF8002002000300140DB
:10090C0000B585B0002300930193029303930F4825
:10091C000F4A026040F2E7324260836047F6FF42C2
:10092C00C2600361436102F055F950B94FF4805332
:10093C0000936946054802F0B1FA20B905B05DF89C
:10094C0004FBFFF75DFFFFF75BFF00BF800100209A
:10095C00000C014008B50A480A4B03604FF41653CB
:10096C00436000238360C36003610C224261836196
:10097C00C36102F099FC00B908BDFFF741FF00BF4D
:10098C00F8000020004C004000B587B00023029313
:10099C000393049305930093019314484FF0804202
:1009AC00026040F67F42426083603122C260036184
:1009BC00436102F00FF990B94FF48053029302A9EE
:1009CC000A4802F06BFA60B9002300930193694660
:1009DC00064802F083FB30B907B05DF804FBFFF763
:1009EC000FFFFFF70DFFFFF70BFF00BF40020020CA
:1009FC0000B587B0002304930593009301930293F1
:100A0C0003931648164A0260436083604FF6FF72E8
:100A1C00C2600361436102F049F9C8B90023049331
:100A2C00059304A90D4802F059FB98B96023009373
:100A3C00002301930293039304226946074802F0B2
:100A4C00BFF948B9054800F00BFB07B05DF804FB93
:100A5C00FFF7D6FEFFF7D4FEFFF7D2FEC001002051
:100A6C000008014000B585B0002300930193029368
:100A7C0003931148114A0260436083604FF6FF7282
:100A8C00C2600361436102F011F980B960230093E5
:100A9C0000220192029203926946074802F090F9F3
:100AAC0038B9054800F0DCFA05B05DF804FBFFF737
:100ABC00A7FEFFF7A5FE00BF40010020001001407B
:100ACC0000B587B00023029303930493059300931E
:100ADC0001931448144A026040F2F312426083609E
:100AEC0043F67F62C2600361436102F073F890B910
:100AFC004FF48053029302A90A4802F0CFF960B96F
:100B0C000023009301936946064802F0E7FA30B9D6
:100B1C0007B05DF804FBFFF773FEFFF771FEFFF7FC
:100B2C006FFE00BF000200200004004000B593B02F
:100B3C003422002105A802F065FE002300930193E6
:100B4C0002930393049316490A6822F4C05242F4A8
:100B5C0000620A600222059201210891102109917C
:100B6C000E920F934FF4002310934FF40003119344
:100B7C0005A800F0EDFE78B90F2300930323019331
:100B8C0000230293039304930121684601F0CAF9F0
:100B9C0020B913B05DF804FBFFF732FEFFF730FE0F
:100BAC000070004008B500F055FEFFF7BFFFFFF7DF
:100BBC001FFBFFF79DFBFFF725FEFFF73DFEFFF741
:100BCC007DFEFFF79DFEFFF7C5FEFFF7DDFEFFF78D
:100BDC000FFFFFF747FFFFF773FF484802F032FDA6
:100BEC00474802F01BF8474802F018F80021464825
:100BFC0002F080F80421454802F07CF8444802F0E9
:100C0C000DF80020FFF77CFC0220FFF71DFD18E01B
:100C1C00404802F017FD404B1B7893B10620FFF7BC
:100C2C0013FD40F2DC5000F037FE3C4B1878FFF718
:100C3C0067FCFFF78FFB3A4B01221A7001E0012B86
:100C4C000ED0374B1B78032BFBD801A252F823F0A4
:100C5C001D0C00084B0C0008D30C0008F10C00080C
:100C6C00304802F0EFFC2D4B1B7813B92C4A0321B2
:100C7C0011702D4A12782AB12C4A127812B1284AD6
:100C8C00022111700F2B02D9294AC82111700F2B88
:100C9C0002D8274A642111700A2B02D8244A322127
:100CAC001170042B02D8224B1E221A70214B1A7879
:100CBC001F4B1B789A42C4D90120FFF7C5FC1D4B72
:100CCC0000221A70BDE7022BBBD11B4802F0BAFC04
:100CDC000B4801F0D7FF0320FFF7B6FC104B0322A3
:100CEC001A70AEE7032BACD1144802F0ABFC042015
:100CFC00FFF7AAFC0A4B00221A70A2E7D0400008AA
:100D0C00800100204002002040010020C001002092
:100D1C0000020020DC4000089400002004000020A9
:100D2C008C000020F44000088D0000208E00002074
:100D3C009600002097000020004100081041000898
:100D4C00FEE7FEE7FEE7FEE7FEE7704770477047F9
:100D5C0008B500F08FFD08BD08B5024801F097FBFF
:100D6C0008BD00BFD802002008B5024800F033FBD4
:100D7C0008BD00BF1C03002008B5202001F0D8FAE4
:100D8C00402001F0D5FA08BD08B5024802F009F977
:100D9C0008BD00BFC001002008B5024802F001F9EF
:100DAC0008BD00BF8001002008B5024802F0F9F828
:100DBC0008BD00BF4001002008B5024802F0F1F860
:100DCC0008BD00BF4002002008B5024802F0E9F857
:100DDC0008BD00BF0002002008B54FF4006001F010
:100DEC00A7FA4FF4805001F0A3FA08BD00B585B006
:100DFC00104B5A6A42F000425A625A6A02F00042A0
:100E0C000192019A1A6A42F001021A621A6A02F0FD
:100E1C0001020292029A5A6A42F080525A625B6A4A
:100E2C0003F080530393039B072001F0C7FB05B02D
:100E3C005DF804FB0038024010B588B00023039322
:100E4C0004930593069307930268234B9A4201D0AF
:100E5C0008B010BD044603F58A331A6A42F40072D6
:100E6C001A621A6A02F400720192019ADA6942F06B
:100E7C000102DA61DB6903F001030293029B032395
:100E8C000393049303A9154801F058F91448154B22
:100E9C0003600023436083608023C3604FF480733E
:100EAC0003614FF480634361202383614FF48053CB
:100EBC00C36101F067FA58B9094B63645C6205229F
:100ECC000021122001F08CFB122001F099FBBFE7EE
:100EDC00FFF796FCF0E700BF002401400000024041
:100EEC00D80200200860024000B589B000230393AB
:100EFC0004930593069307930268134B9A4202D00E
:100F0C0009B05DF804FB03F584331A6A42F480528D
:100F1C001A621A6A02F480520192019ADA6942F05A
:100F2C000102DA61DB6903F001030293029BA02347
:100F3C00039302230493032306930523079303A926
:100F4C00024801F0FBF8DBE70030014000000240F2
:100F5C0000B585B00368B3F1804F08D0214A9342A5
:100F6C0019D0214A934229D005B05DF804FB03F552
:100F7C000E335A6A42F001025A625B6A03F00103B3
:100F8C000193019B012200211C2001F029FB1C2054
:100F9C0001F036FBE8E7154B5A6A42F002025A623E
:100FAC005B6A03F002030293029B032200211D20C3
:100FBC0001F016FB1D2001F023FBD5E70B4B1A6A41
:100FCC0042F008021A621B6A03F008030393039BA6
:100FDC00022200211A2001F003FB1A2001F010FB61
:100FEC00C2E700BF00040040000C01400038024082
:100FFC0000B583B00368174A934205D0164A934252
:10100C0015D003B05DF804FB144B1A6A42F00402CD
:10101C001A621B6A03F004030093009B0422002154
:10102C00192001F0DDFA192001F0EAFAE9E70B4B7F
:10103C001A6A42F010021A621B6A03F01003019341
:10104C00019B042200211B2001F0CAFA1B2001F095
:10105C00D7FAD6E7000801400010014000380240E2
:10106C0000B589B00023039304930593069307936B
:10107C0003681A4A934205D0194A934218D009B012
:10108C005DF804FB174BDA6942F00202DA61DB69A6
:10109C0003F002030193019B4FF48043039302235B
:1010AC0004930323079303A90F4801F047F8E6E7DD
:1010BC000C4BDA6942F00202DA61DB6903F00203DD
:1010CC000293029B4FF400430393022304930323E4
:1010DC00079303A9044801F031F8D0E70008014058
:1010EC0000100140003802400004024000B58BB0F3
:1010FC000023059306930793089309930368264AE4
:10110C00934205D0254A934225D00BB05DF804FBE1
:10111C00234B5A6A42F400225A625A6A02F40022A1
:10112C000192019ADA6942F00402DA61DB6903F098
:10113C0004030293029B4FF440630593022306932E
:10114C0001230793032308930823099305A9154842
:10115C0000F0F4FFD9E7124B5A6A42F400325A629B
:10116C005A6A02F400320392039ADA6942F00102DD
:10117C00DA61DB6903F001030493049B0C230593F0
:10118C0002230693032308930723099305A9064812
:10119C0000F0D4FFB9E700BF004C00400044004011
:1011AC00003802400008024000000240002800F015
:1011BC00BC8070B582B00446C36C002B5FD0E36C6E
:1011CC0013F0100F40F0B380E36C23F4885323F03A
:1011DC00020343F00203E364564A536823F440339A
:1011EC0061680B435360E3686269134394F83C10E5
:1011FC004FF4007292FAA2F2B2FA82F201FA02F2FF
:10120C001343226A134394F82400022292FAA2F2A6
:10121C00B2FA82F200FA02F21343626B102A02D085
:10122C00A16B0A43134325682A6812F0400214D1BB
:10123C00A1690B43A168E66931432669B6F5807F45
:10124C0030D0012E2BD00A4394F82C1001292BD02E
:10125C006868394901401143696021688868374AD8
:10126C0002401A438A602269B2F5807F33D0012A8A
:10127C0031D021680A6B22F0F8720A633AE00365F8
:10128C0080F848302E4B1A6A42F001021A621B6A2F
:10129C0003F001030193019BFFF7CEFD8FE74FF4A1
:1012AC008072D0E73246CEE760B9216B01394FF43A
:1012BC00604090FAA0F0B0FA80F0814041F40061F7
:1012CC000A43C5E7E16C41F02001E164216D41F076
:1012DC0001012165BCE725682A6B22F0F872A16A2E
:1012EC0001394FF0F87090FAA0F0B0FA80F081401C
:1012FC000A432A6322689168124A0A409A420BD028
:10130C00E36C23F0120343F01003E364236D43F00A
:10131C000103236501200BE000202065E36C23F022
:10132C00030343F00103E36402E001207047012052
:10133C0002B070BD00270140FF16FCFC89F1FFC014
:10134C0000380240FEFF80BF08B5436ADA6C12F029
:10135C00500F27D1DA6C42F40072DA641A68916883
:10136C0011F0405F1AD193F82410B9B9116B11F038
:10137C00F87F03D0916811F4806F0FD1516821F080
:10138C0020015160DA6C22F48072DA64DA6C12F4A7
:10139C00805F03D1DA6C42F00102DA641846FFF781
:1013AC002FF808BD5B6C1B6B9847FAE7704708B5C4
:1013BC00406AFFF7FBFF08BD7047704708B5406AED
:1013CC00C36C43F04003C364036D43F00403036533
:1013DC00FFF7F3FF08BD70B5044603681E685D682F
:1013EC0015F0200F30D016F0020F2DD0C26C12F079
:1013FC00100F03D1C26C42F40072C2649A6812F0EE
:10140C00405F1AD194F82420BAB91A6B12F0F87F05
:10141C0003D09A6812F4806F0FD15A6822F0200220
:10142C005A60E36C23F48073E364E36C13F4805F21
:10143C0003D1E36C43F00103E3642046FEF7E0FFC5
:10144C0023686FF012021A6015F0800F39D016F075
:10145C00040F36D0E36C13F0100F03D1E36C43F49C
:10146C000053E36423689A6812F4401F22D15A6C2B
:10147C0012F4401F03D09A6812F4806F1AD15A6884
:10148C0012F4806F16D19A6812F0405F12D194F862
:10149C0024207AB95A6822F080025A60E36C23F453
:1014AC008053E364E36C13F4807F03D1E36C43F06B
:1014BC000103E364204600F0A3F923686FF00C02EB
:1014CC001A6015F0400F02D016F0010F06D115F07E
:1014DC00806F02D016F0200F0CD170BDE36C43F47A
:1014EC008033E3642046FFF767FF23686FF0010247
:1014FC001A60ECE7236D43F00203236523686FF059
:10150C0020051D602046FFF758FF23681D60E4E7A7
:10151C0030B482B00023019390F84830012B00F0D6
:10152C00BE800246012380F848304B68062B2BD82E
:10153C000468206C03EB8303053B4FF01F0C0CFA83
:10154C0003FC20EA0C000D6805FA03F30343236443
:10155C000B68092B56D81468606903EB43034FF0F2
:10156C00070C0CFA03FC20EA0C008D6805FA03F357
:10157C00034363610B68103B012B71D9002082F887
:10158C00480002B030BC70470C2B0DD80568E86BD6
:10159C0003EB8303233B1F249C4020EA04000C68CC
:1015AC009C402043E863D3E7122B0DD80568A86B49
:1015BC0003EB8303413B1F249C4020EA04000C688E
:1015CC009C402043A863C3E7182B0DD80568686BB3
:1015DC0003EB83035F3B1F249C4020EA04000C6850
:1015EC009C4020436863B3E70568286B03EB8303D7
:1015FC007D3B1F249C4020EA04000C689C40204347
:10160C002863A5E7132B0DD81568286903EB430352
:10161C001E3B07249C4020EA04008C689C4020431D
:10162C002861A7E71D2B0DD81568E86803EB430369
:10163C003C3B07249C4020EA04008C689C402043DF
:10164C00E86097E71568E86D03EB43035A3B072402
:10165C009C4020EA04008C689C402043E86589E7A4
:10166C00104B5B6813F4000F88D10E48436843F4A9
:10167C00000343600B68102B80D10B4B1B680B498C
:10168C00A1FB03139B0C03EB83035B00019302E0B0
:10169C00019B013B0193019B002BF9D16EE70220CA
:1016AC006FE700BF002701401000002083DE1B43C2
:1016BC0030B583B00023019303681A6812F0400F11
:1016CC0035D104469A6842F001029A60194B1B68A6
:1016DC00194AA2FB03239B0C03EB4303019302E087
:1016EC00019B013B0193019B002BF9D100F0CEF83B
:1016FC00054623681B6813F0400F16D100F0C6F89E
:10170C00431B022BF5D923681B6813F0400FF0D153
:10171C00E36C43F01003E364236D43F00103236592
:10172C00002384F84830012002E0002000E0002073
:10173C0003B030BD1000002083DE1B43F8B50D460E
:10174C0090F84810012952D004461646012380F81F
:10175C004830FFF7ADFF0746002849D1E16C21F472
:10176C00E06121F0010141F48071E16423685B6860
:10177C0013F4806F05D0E36C23F4405343F480538F
:10178C00E364E36C13F4805F2ED0236D23F0060327
:10179C002365002384F84830636C164A9A62636CA4
:1017AC00154ADA62636C154A1A6323686FF02202D9
:1017BC001A602268536843F0806353602268936810
:1017CC0043F480739360216833462A465831606C29
:1017DC0000F022FE23689A6812F0405F08D19A68E4
:1017EC0042F080429A6003E000232365D1E7022790
:1017FC003846F8BD55130008BB130008C913000880
:10180C0070470000104B1B680BB90120704710B5D6
:10181C0004464FF47A70B0FBF3F30C4A1068B0FB3B
:10182C00F3F000F0FBFE68B90F2C01D901200AE09F
:10183C00002221464FF0FF3000F0D2FE044B1C601A
:10184C00002000E0012010BD080000201000002046
:10185C000C00002010B5032000F0B0FE0020FFF7B4
:10186C00D1FF10B10124204610BD0446FFF7BEFA8B
:10187C00F9E70000034A1368034909680B44136035
:10188C00704700BF7003002008000020014B18684F
:10189C00704700BF7003002038B50446FFF7F6FF11
:1018AC000546B4F1FF3F02D0044B1B681C44FFF704
:1018BC00EDFF401BA042FAD338BD00BF080000204A
:1018CC0010B483B01F4B9B6813F0F00328D11D4A52
:1018DC00526A12F0805F10D01B4A126802F4C05298
:1018EC00B2F5C05F1DD1B0F5404F1AD1174A13683D
:1018FC0043F004031360012313E012494A6A42F0D7
:10190C0080524A624A6A02F080520192019A0E4A4F
:10191C00126802F4C0524C6A24F080544C62DFE727
:10192C0000230A490A6822F001021A430A600A6875
:10193C0002F001029A4203D1002003B010BC7047A0
:10194C000120FAE70038024000700040003C0240E1
:10195C00002800F05E82F0B583B00446A24B9D686F
:10196C0005F00C059E6806F48036036813F0010F31
:10197C001DD0082D12D00C2D0ED06368012B35D044
:10198C00002B49D1984B1A6822F480321A601A68DD
:10199C0022F480221A602EE0002EEED0924B1B68AF
:1019AC0013F4003F03D06368002B00F034822368EB
:1019BC0013F0020F68D0042D55D00C2D51D0E368D4
:1019CC00002B00F0C780894B01221A60FFF75EFFE5
:1019DC000646854B1B6813F0020F40F0B280FFF7F0
:1019EC0055FF801B0228F4D903201DE27E4A1368A0
:1019FC0043F480331360636823B3FFF747FF074654
:101A0C00794B1B6813F4003FD1D1FFF73FFFC01B8C
:101A1C006428F5D9032007E2052B09D0724B1A680C
:101A2C0022F480321A601A6822F480221A60E2E7EB
:101A3C006D4B1A6842F480221A601A6842F48032A4
:101A4C001A60D8E7FFF722FF0746674B1B6813F4B1
:101A5C00003FACD0FFF71AFFC01B6428F5D9032058
:101A6C00E2E1002EABD1604B1B6813F0020F03D0E8
:101A7C00E368012B40F0D1815B4A536823F4F8539F
:101A8C00216943EA01235360236813F0100F3BD004
:101A9C00002D40F08580544B1B6813F4007F03D05D
:101AAC00A369002B00F0BB81206A4F4B5B6803F4E9
:101ABC006043984260D9FFF703FF002840F0B181E2
:101ACC00494A536823F46043216A0B4353605368BB
:101ADC0023F07F43E16943EA01635360236A5B0BA4
:101AEC005A1C4FF4004393403F4A9268C2F30312CE
:101AFC003F498A5CD3403F4A13603F4B1868FFF75D
:101B0C0081FE002840F09081236813F0080F00F04C
:101B1C009B806369002B00F08480344B0122C3F856
:101B2C008026FFF7B3FE06462F4B5B6B13F0020FBC
:101B3C0040F08A80FFF7AAFE801B0228F4D903200C
:101B4C0072E1294A536823F4F853216943EA0123CB
:101B5C00536099E7254B00221A60FFF797FE064663
:101B6C00214B1B6813F0020F8ED0FFF78FFE801BEA
:101B7C000228F5D9032057E11B4A536823F460432C
:101B8C0018435060536823F07F43E16943EA0163D3
:101B9C005360206AFFF794FE00289FD0012043E198
:101BAC00A3695BB3114B01221A62FFF76FFE064665
:101BBC000D4B1B6813F4007F06D1FFF767FE801BEB
:101BCC000228F5D903202FE1074A536823F4604318
:101BDC00216A0B435360536823F07F43E16943EA66
:101BEC000163536090E700BF003802400000474299
:101BFC0028410008100000200C0000208F4B002210
:101C0C001A62FFF743FE06468D4B1B6813F4007FE8
:101C1C003FF47AAFFFF73AFE801B0228F4D9032079
:101C2C0002E1864B0022C3F88026FFF72FFE064602
:101C3C00834B5B6B13F0020F06D0FFF727FE801B64
:101C4C000228F5D90320EFE0236813F0040F79D0B4
:101C5C007B4B5B6A13F0805F0BD1794B5A6A42F075
:101C6C0080525A625B6A03F080530193019B0126F8
:101C7C0000E00026734B1B6813F4807F0ED0A36822
:101C8C00012B1FD0002B35D16D4B5A6B22F4807277
:101C9C005A635A6B22F480625A6318E0694A1368DB
:101CAC0043F480731360FFF7F1FD0746654B1B6827
:101CBC0013F4807FE3D1FFF7E9FDC01B6428F5D94D
:101CCC000320B1E05E4A536B43F480735363A36803
:101CDC0033B3FFF7DBFD0746594B5B6B13F4007F07
:101CEC002FD1FFF7D3FDC01B41F288339842F3D9B3
:101CFC00032099E0052B09D0514B5A6B22F48072CA
:101D0C005A635A6B22F480625A63E0E74C4B5A6B6D
:101D1C0042F480625A635A6B42F480725A63D6E77B
:101D2C00FFF7B4FD0746464B5B6B13F4007F08D0FE
:101D3C00FFF7ACFDC01B41F288339842F3D9032066
:101D4C0072E0C6B9636A002B6DD00C2D4CD0022BFF
:101D5C0017D03A4B00221A66FFF798FD0446384B11
:101D6C001B6813F0007F3DD0FFF790FD001B02288D
:101D7C00F5D9032058E0324A536A23F0805353625A
:101D8C00E0E72E4B00221A66FFF780FD05462C4B30
:101D9C001B6813F0007F06D0FFF778FD401B02286C
:101DAC00F5D9032040E026498B6823F47D03A26A11
:101DBC00E06A0243206B024313438B601F4B0122EA
:101DCC001A66FFF763FD04461D4B1B6813F0007F7A
:101DDC0006D1FFF75BFD001B0228F5D9032023E099
:101DEC00002021E000201FE0012B1FD0144B9B682A
:101DFC0003F48031A26A91421AD103F47012E16AA1
:101E0C008A4217D103F44003226B934214D1002071
:101E1C000AE001207047012006E0012004E00120C7
:101E2C0002E0012000E0002003B0F0BD0120FBE740
:101E3C000120F9E70120F7E70120F5E70000474210
:101E4C00003802400070004008B5324B9A6802F02E
:101E5C000C03082B5AD00C2B0AD0042B58D02D4B2A
:101E6C005B68C3F3423301334FF40040984008BD24
:101E7C00C2F383432849C85CC2F381520132254B1B
:101E8C009B6813F4803F20D04FEA401CBCEB000C45
:101E9C006EEB0E0E4FEA8E1343EA9C634FEA8C11E5
:101EAC00B1EB0C0163EB0E03DB0043EA5173C90089
:101EBC0011EB000C43F10003590200234FEA4C20B4
:101ECC0041EADC51FEF734F9D1E74FEA401CBCEB98
:101EDC00000C6EEB0E0E4FEA8E1343EA9C634FEA36
:101EEC008C11B1EB0C0163EB0E03DB0043EA517375
:101EFC00C90011EB000C43F10003990200234FEAD7
:101F0C008C2041EA9C51FEF713F9B0E70348AEE789
:101F1C000348ACE7003802403841000800127A0050
:101F2C000024F400002800F0D18070B50C46054662
:101F3C006A4B1B6803F001038B420DD2012928D098
:101F4C00664A136823F0010323431360136803F0FC
:101F5C000103A34240F0BC802B6813F0020F06D0A3
:101F6C005F4A936823F0F003A9680B4393602B68D6
:101F7C0013F0010F72D06B68022B10D0032B32D0F0
:101F8C00012B37D0564A126812F4007F0DD1012074
:101F9C009BE0524A136843F004031360D0E7504AA5
:101FAC00126812F4003F00F095804D498A6822F0C7
:101FBC00030213438B60FFF769FC06466B68022B28
:101FCC001FD0032B2CD0012B39D0454B9B6813F021
:101FDC000C0F43D0FFF75AFC801B41F28833984218
:101FEC00F3D9032071E03E4A126812F0007FDCD175
:101FFC0001206AE03A4A126812F0020FD5D1012092
:10200C0063E0374B9B6803F00C03082B26D0FFF7DB
:10201C003DFC831B41F288329342F2D9032054E0F9
:10202C002F4B9B6803F00C030C2B17D0FFF72EFCE7
:10203C00801B41F288339842F2D9032045E0284BAB
:10204C009B6803F00C03042B08D0FFF71FFC801BCC
:10205C0041F288339842F2D9032036E01F4B1B68BB
:10206C0003F00103A3420AD91C4A136823F00103AD
:10207C0023431360136803F00103A3422CD12B6894
:10208C0013F0040F06D0164A936823F4E063E96852
:10209C000B4393602B6813F0080F07D0104A93681A
:1020AC0023F46053296943EAC1039360FFF7CCFE24
:1020BC000B4B9B68C3F303130A4AD35CD8400A4BFF
:1020CC0018600A4B1868FFF79DFB70BD0120704724
:1020DC000120FAE70120F8E70120F6E7003C024076
:1020EC000038024028410008100000200C0000209D
:1020FC00014B1868704700BF1000002008B5FFF7AF
:10210C00F7FF044B9B68C3F30223034AD35CD8400C
:10211C0008BD00BF003802402041000808B5FFF799
:10212C00E7FF044B9B68C3F3C223034AD35CD8403C
:10213C0008BD00BF003802402041000870B582B0D5
:10214C00002365E085685E000324B44025EA04059D
:10215C00CC68B4402C438460456825EA0C054C6877
:10216C00C4F300149C402C43446062E0DD08083545
:10217C0050F8254003F0070C4FEA8C0C4FF00F0E73
:10218C000EFA0CFE24EA0E0E0C6904FA0CF444EA66
:10219C000E0440F8254063E0062400E0002404FA15
:1021AC000EF42C430CF1020C5A4D45F82C405A4CB1
:1021BC00A568D44325EA0206D1F804C01CF4801F9C
:1021CC0001D042EA0506544DAE60ED6804EA0506FE
:1021DC00D1F804C01CF4001F01D042EA05064E4D94
:1021EC00EE606D6804EA0506D1F804C01CF4003FEB
:1021FC0001D042EA0506484D6E602D682C404E68B1
:10220C0016F4803F01D042EA0504434A14600133BE
:10221C000A6832FA03F47BD04FF0010C0CFA03FC81
:10222C001CEA0202F3D04C6804F00304013C012CBC
:10223C0088D94C6804F00304032C0CD0C4685D00EE
:10224C004FF0030C0CFA05FC24EA0C0C8C68AC4027
:10225C0044EA0C04C4604C6804F00304022C85D0DE
:10226C0004684FEA430E4FF0030C0CFA0EFC24EA00
:10227C000C0C4C6804F0030404FA0EF444EA0C044D
:10228C0004604C6814F4403FC1D0244C256A45F0DE
:10229C0001052562246A04F001040194019C4FEAB3
:1022AC00930C0CF102051B4C54F8255003F0030E53
:1022BC004FEA8E0E0F2404FA0EF425EA0405184C8E
:1022CC00A0423FF46BAF04F58064A04216D004F535
:1022DC008064A04214D004F58064A04212D004F5AE
:1022EC008064A04210D004F58064A0420ED004F5A6
:1022FC008064A0423FF450AF072450E701244EE71E
:10230C0002244CE703244AE7042448E7052446E763
:10231C0002B070BD000001400004014000380240D2
:10232C00000002400AB18161704709048161704765
:10233C0008B5054B5B69034200D108BD024B5861DF
:10234C00FEF7A2F9F9E700BF0004014010B4046CD9
:10235C0004F01C0C012404FA0CF4D0F83CC0CCF8AA
:10236C000440046863604368102B05D003689960CF
:10237C000368DA6010BC704703689A600368D96020
:10238C00F8E70000002838D010B4024601681C4B56
:10239C00994227D81B4B0B441B48A0FB03031B097A
:1023AC009B001364194BD363022382F82130086815
:1023BC006FF30E10536894682343D4682343146955
:1023CC0023435469234394692343D469234303432C
:1023DC000B6000209063012382F8213082F82000EA
:1023EC0010BC70470A4B0B440748A0FB03031B09A6
:1023FC009B001364074BD363D6E70120704700BFE3
:10240C0007640240F89FFDBFCDCCCCCC00600240ED
:10241C00F89BFDBF0064024038B5044690F82000DC
:10242C00012832D0012084F8200094F82100C0B299
:10243C00012804D0002384F82030022038BD02206B
:10244C0084F821000020A0632568286820F0010092
:10245C0028602046FFF77AFFE36A5BB122681368B5
:10246C0043F00E0313602268136843F001031360FA
:10247C000020E3E72268136823F00403136022684A
:10248C00136843F00A031360EDE70220D6E738B572
:10249C00C36B196804682568036C03F01C030422E1
:1024AC009A400A4215D015F0040F12D0236813F08D
:1024BC00200F03D1236823F004032360036C03F083
:1024CC001C02C16B042393404B60C36A03B1984751
:1024DC0038BD02229A400A421CD015F0020F19D0C6
:1024EC00236813F0200F06D1236823F00A0323601E
:1024FC00012380F82130036C03F01C02C16B022312
:10250C0093404B60002380F82030836A002BDFD08F
:10251C009847DDE7082202FA03F30B42D8D015F0F6
:10252C00080FD5D0236823F00E032360036C03F04F
:10253C001C03C16B012202FA03F34B60826380F827
:10254C002120002380F82030036B002BC0D098474B
:10255C00BEE70000002808DB0901C9B200F16040A9
:10256C0000F5614080F80013704700F00F0009017E
:10257C00C9B2014B1954704714ED00E000B500F0DE
:10258C000700C0F1070CBCF1040F28BF4FF0040C7E
:10259C00031D062B0FD9C31E4FF0FF3E0EFA0CF095
:1025AC0021EA000199400EFA03FE22EA0E0241EAEA
:1025BC0002005DF804FB0023EEE70000074AD36835
:1025CC0023F4E0631B041B0C000200F4E0600343E3
:1025DC0043F0BF6343F40033D360704700ED00E079
:1025EC0010B50446054BD868C0F30220FFF7C6FFB0
:1025FC0001462046FFF7AEFF10BD00BF00ED00E026
:10260C00002807DB00F01F02400901239340024A17
:10261C0042F82030704700BF00E100E00138B0F113
:10262C00807F0BD24FF0E0235861054AF02182F8ED
:10263C0023100020986107221A617047012070470F
:10264C0000ED00E02DE9F04782B0054688461746BC
:10265C001E46FFF71BF90A9B1B1A03EB0609FFF733
:10266C0015F98246284B1B68C3F3CB3309FB03F3E4
:10267C0001932B689C6838EA04040CBF01230023E7
:10268C00BB423DD0B6F1FF3FF3D0FFF7FFF8A0EB14
:10269C000A00484507D2019A02B14A46019B013B08
:1026AC0001939146E5E72A68536823F0E0035360F1
:1026BC006B68B3F5827F0BD0AB6AB3F5005F14D0B7
:1026CC00012385F85130002385F85030032018E0A1
:1026DC00AB68B3F5004F02D0B3F5806FECD12A682C
:1026EC00136823F040031360E6E72A68136823F4A9
:1026FC00005313602A68136843F400531360DFE738
:10270C00002002B0BDE8F0871000002010B584B0A6
:10271C000446164B1868164BA3FB0030400D4FF4C3
:10272C007A7303FB00F003906368B3F5827F0BD0E0
:10273C00039BBBB1039B013B039323689B6813F082
:10274C00800FF5D100200EE000920B460022802174
:10275C002046FFF777FF30B1636D43F020036365CC
:10276C00032000E0002004B010BD00BF10000020CA
:10277C00819F5E1600285AD010B50446436A33B9BF
:10278C004368B3F5827F05D00023C36102E00023C8
:10279C00036143610023A36294F85130002B40D0B5
:1027AC00022384F851302268136823F0400313602D
:1027BC00636803F48273A26802F404421343E26870
:1027CC0002F400621343226902F0020213436269AD
:1027DC0002F001021343A26902F400721343E2698E
:1027EC0002F038021343226A02F080021343A26AF9
:1027FC0002F40052216813430B60638B03F0040353
:10280C00626A02F01002216813434B602268D3699C
:10281C0023F40063D36100206065012384F85130F8
:10282C0010BD84F850302046FEF75EFBB8E701205F
:10283C0070472DE9F04383B01D4690F85030012BC2
:10284C0000F0D180044688469146012380F8503030
:10285C00FFF71CF8074694F85160F6B2012E40F0D1
:10286C00BA80B8F1000F00F0B780B9F1000F00F09A
:10287C00B380032384F8513000236365C4F830809F
:10288C00A4F83490A4F83690A363A387E387636419
:10289C002364A368B3F5004F1ED023681A6812F0A6
:1028AC00400F03D11A6842F040021A60E368B3F596
:1028BC00006F1CD0636813B1B9F1010F55D1226BB5
:1028CC00236812781A73236B01332363E38E9BB254
:1028DC00013B9BB2E38648E02268136823F0400377
:1028EC0013602268136843F480431360D5E7636870
:1028FC0013B1B9F1010F15D1226B23681288DA607C
:10290C00236B02332363E38E9BB2013B9BB2E386C2
:10291C0008E0FEF7BBFFC01BA84202D3B5F1FF3F96
:10292C0015D1A5B1E38E9BB2002B3CD023689A68DD
:10293C0012F0020FEDD0226B1288DA60236B023397
:10294C002363E38E9BB2013B9BB2E386EAE7012350
:10295C0084F8513003263FE0FEF798FFC01BA842D5
:10296C0002D3B5F1FF3F19D1C5B1E38E9BB2D3B100
:10297C0023689A6812F0020FEED0226B12781A7349
:10298C00236B01332363B4F836C01FFA8CFC0CF1B3
:10299C00FF3C1FFA8CFCA4F836C0E6E7012384F850
:1029AC005130032618E03A4629462046FFF7AEFE82
:1029BC0008B120236365A36833B901932368DA68EF
:1029CC0001929B680193019B636D2BB9012384F8E1
:1029DC005130002600E00226002384F850303046A7
:1029EC0003B0BDE8F0830226F9E700000368B0F1FC
:1029FC00804F0ED01E4A90420BD002F5806290425E
:102A0C0007D002F58062904203D002F57C429042DE
:102A1C0003D123F070034A681343B0F1804F16D0F2
:102A2C00134A904213D002F5806290420FD002F507
:102A3C00806290420BD002F57C42904207D002F5A6
:102A4C008062904203D002F58062904203D123F45D
:102A5C004073CA68134323F080030A69134303606D
:102A6C008B68C3620B68836201234361704700BFAC
:102A7C000004004030B4046A036A23F001030362CB
:102A8C004568826922F073020B681A4324F0020C29
:102A9C008B6843EA0C03456082614A6842630362B7
:102AAC0030BC704710B4036A026A22F01002026252
:102ABC004468826922F4E642D1F800C042EA0C2252
:102ACC0023F02003D1F808C043EA0C134460826160
:102ADC004A688263036210BC704710B4036A026ACE
:102AEC0022F4807202624468C26922F0730C0A6894
:102AFC0042EA0C0223F40073D1F808C043EA0C2319
:102B0C004460C2614A68C263036210BC704710B46F
:102B1C00036A026A22F4805202624468C26922F497
:102B2C00E642D1F800C042EA0C2223F40053D1F85B
:102B3C0008C043EA0C334460C2614A680264036211
:102B4C0010BC704710B4036A046A24F001040462D8
:102B5C00846924F0F00C4CEA021223F00A030B43B4
:102B6C008261036210BC704710B4036A046A24F0DB
:102B7C0010040462846924F4704C4CEA023223F091
:102B8C00A00343EA01138261036210BC704783689F
:102B9C0023F070030B4343F007038360704710B4BA
:102BAC00846824F47F4C42EA03220A4342EA0C0272
:102BBC00826010BC704701F01F014FF0010C0CFA41
:102BCC0001FC036A23EA0C030362036A8A40134381
:102BDC000362704700B310B5044690F83930B3B1B6
:102BEC00022384F83930214651F8040BFFF7FEFE1E
:102BFC00012384F83E3084F83A3084F83B3084F872
:102C0C003C3084F83D3084F83930002010BD80F819
:102C1C003830FEF79DF9E3E70120704790F8393022
:102C2C00DBB2012B27D1022380F839300268D3683C
:102C3C0043F00103D3600368B3F1804F10D0104A06
:102C4C0093420DD002F58062934209D002F5803296
:102C5C00934205D01A6842F001021A6000207047B6
:102C6C009A6802F00702062A07D01A6842F001029D
:102C7C001A6000207047012070470020704700BF89
:102C8C00000400400268D36823F00103D36003689A
:102C9C00196A41F21112114203D11A6822F0010291
:102CAC001A60012380F839300020704700B310B54A
:102CBC00044690F83930B3B1022384F839302146F8
:102CCC0051F8040BFFF792FE012384F83E3084F890
:102CDC003A3084F83B3084F83C3084F83D3084F84A
:102CEC003930002010BD80F83830FEF781F9E3E769
:102CFC000120704710B50446084631BB94F83A30B1
:102D0C00DBB2013B18BF0123002B52D1002835D177
:102D1C00022384F83A30012201462068FFF74BFF6A
:102D2C002368B3F1804F39D0244A934236D002F550
:102D3C008062934232D002F5803293422ED01A68D0
:102D4C0042F001021A60002034E0042908D008295E
:102D5C000DD094F83D30DBB2013B18BF0123D3E713
:102D6C0094F83B30DBB2013B18BF0123CCE794F85D
:102D7C003C30DBB2013B18BF0123C5E7042805D06A
:102D8C00082807D0022384F83D30C4E7022384F8D6
:102D9C003B30C0E7022384F83C30BCE79A6802F071
:102DAC000702062A07D01A6842F001021A600020B6
:102DBC0000E0012010BD0020FCE700BF0004004033
:102DCC0038B590F83830012B66D004460D460123F7
:102DDC0080F838300C2A5AD8DFE802F007595959D4
:102DEC001B5959593059595944000068FFF742FE94
:102DFC002268936943F0080393612268936923F076
:102E0C000403936122689369E9680B439361002082
:102E1C003EE00068FFF746FE2268936943F40063C6
:102E2C0093612268936923F48063936122689369A8
:102E3C00E96843EA01239361002029E00068FFF769
:102E4C004CFE2268D36943F00803D3612268D3692E
:102E5C0023F00403D3612268D369E9680B43D3617F
:102E6C00002015E00068FFF752FE2268D36943F496
:102E7C000063D3612268D36923F48063D361226831
:102E8C00D369E96843EA0123D361002000E0012003
:102E9C00002384F8383038BD0220FCE790F8383035
:102EAC00012B78D010B50446012380F8383002236A
:102EBC0080F839300268936823F47F4323F077035A
:102ECC0093600B68602B4CD023D8402B54D011D876
:102EDC00202B03D00AD80BB1102B05D11946206832
:102EEC00FFF755FE002028E0012026E0302BF5D01E
:102EFC00012022E0502B0AD1CA6849680068FFF70C
:102F0C0021FE50212068FFF742FE002015E0012031
:102F1C0013E0B3F5805F3AD0B3F5005F14D0702B9B
:102F2C0037D1CB684A6889680068FFF738FE226899
:102F3C00936843F0770393600020012384F83930C1
:102F4C00002384F8383010BDCB684A688968006863
:102F5C00FFF725FE2268936843F4804393600020BA
:102F6C00EBE7CA6849680068FFF7FEFD602120683E
:102F7C00FFF70DFE0020E0E7CA6849680068FFF71C
:102F8C00E1FD40212068FFF702FE0020D5E700207C
:102F9C00D3E70120D1E70220704770477047704794
:102FAC00704710B5044603681A6912F0020F11D06D
:102FBC00DA6812F0020F0DD06FF002021A610123D1
:102FCC00037603689B6913F0030F5ED0FFF7E6FFEF
:102FDC000023237623681A6912F0040F12D0DA68E2
:102FEC0012F0040F0ED06FF004021A610223237644
:102FFC0023689B6913F4407F4DD02046FFF7CEFF2A
:10300C000023237623681A6912F0080F12D0DA68AD
:10301C0012F0080F0ED06FF008021A610423237609
:10302C002368DB6913F0030F3CD02046FFF7B6FF93
:10303C000023237623681A6912F0100F12D0DA6875
:10304C0012F0100F0ED06FF010021A6108232376C5
:10305C002368DB6913F4407F2BD02046FFF79EFFDB
:10306C000023237623681A6912F0010F03D0DA6863
:10307C0012F0010F24D123681A6912F0400F03D00B
:10308C00DA6812F0400F22D110BDFFF786FF204600
:10309C00FFF785FF9CE72046FFF77FFF2046FFF7F1
:1030AC007EFFADE72046FFF778FF2046FFF777FF5E
:1030BC00BEE72046FFF771FF2046FFF770FFCFE712
:1030CC006FF001021A612046FDF764FBD3E76FF045
:1030DC0040021A612046FFF763FFD5E790F83820CD
:1030EC00012A2CD010B40346012280F83820022289
:1030FC0080F8392002685068946820F0700C0868D9
:10310C0040EA0C0050601A68B2F1804F0AD00D48AA
:10311C00824207D000F58060824203D000F58030F7
:10312C00824204D124F08004496821439160012239
:10313C0083F83920002083F8380010BC7047022037
:10314C00704700BF0004004010B5044602681369C4
:10315C0023F44053C1680B431361836802691A431B
:10316C0043691A43C3691A430168CB6823F41643B5
:10317C0023F00C031343CB600268536923F44073B0
:10318C0081690B4353610268244B9A4223D0FEF7AA
:10319C00B5FFE369B3F5004F20D000EB800202EBE2
:1031AC00820263689B00B2FBF3F21D48A0FB023164
:1031BC004909642303FB11231B013233A0FB0303D6
:1031CC005B0903F0F00202EB011203F00F0321681C
:1031DC0013448B6010BDFEF7A1FFDAE700EB800013
:1031EC0000EB800063685B00B0FBF3F00C4AA2FBC1
:1031FC0000314909642303FB1103DB003233A2FBCA
:10320C0003235B095A0002F4F87202EB011203F07B
:10321C000703216813448B60DCE700BF00380140D2
:10322C001F85EB512DE9F84305460F461646994686
:10323C00DDF820802B681C6837EA04040CBF0124DD
:10324C000024B4422DD1B8F1FF3FF3D0B8F1000FF8
:10325C0005D0FEF71BFBA0EB09004045EAD92A6814
:10326C0002F10C0353E8003F23F4D0730C3242E814
:10327C0000310029F3D12A6802F1140353E8003F0E
:10328C0023F00103143242E800310029F3D120234A
:10329C0085F8413085F84230002385F84030032012
:1032AC0000E00020BDE8F88360B310B5044690F848
:1032BC00413013B3242384F841302268D36823F4BB
:1032CC000053D3602046FFF73FFF2268136923F4B5
:1032DC00904313612268536923F02A0353612268D7
:1032EC00D36843F40053D36000206064202384F837
:1032FC00413084F84230606310BD80F84030FDF7F7
:10330C00F5FED7E7012070472DE9F04182B01E464B
:10331C0090F84130DBB2202B4BD104460D46904641
:10332C0000294AD00AB9012044E000234364212338
:10333C0080F84130FEF7AAFA0746A4F82480A4F8D6
:10334C002680A368B3F5805F02D04FF000080FE031
:10335C002369FBB14FF000080AE038F8023B226801
:10336C00C3F308035360E28C92B2013A92B2E28446
:10337C00E38C9BB28BB100963B4600228021204609
:10338C00FFF750FFD8B9002DE7D015F8012B2368B3
:10339C005A60E8E7A8460025EAE700963B4600227B
:1033AC0040212046FFF73EFF58B9202384F84130D6
:1033BC0000E0022002B0BDE8F0810120FAE7032012
:1033CC00F8E70320F6E77047FFF7FDFF0B480C49C1
:1033DC000C4A002302E0D458C4500433C4188C4265
:1033EC00F9D3094A094C002301E013600432A242CC
:1033FC00FBD300F055FAFDF7D5FB70470000002019
:10340C00700000205441000870000020C40400200B
:10341C00FEE70000002310B50446C0E90033C0E904
:10342C000433836081814366C2818361194608221B
:10343C005C3000F0E7F90D4B246263620C4BA36225
:10344C000C4BE3620C4B23630C4B9C4206D003F1F8
:10345C006802944202D0D0339C4205D104F158004A
:10346C00BDE8104000F040BA10BD00BF6136000846
:10347C0083360008BB360008DF36000874030020D2
:10348C00024A0349034800F069B800BF1400002049
:10349C00E93B00082400002041680C4B10B5994210
:1034AC00044601D000F09AFBA168094B994202D066
:1034BC00204600F093FBE168064B994204D020466D
:1034CC00BDE8104000F08ABB10BD00BF74030020A3
:1034DC00DC0300204404002010B50B4B0B4C0C4AB1
:1034EC0020461A6004210022FFF794FF04F16800C3
:1034FC0001220921FFF78EFF04F1D0000222BDE862
:10350C0010401221FFF786BFAC040020740300208A
:10351C008D340008014800F0E8B900BFB504002064
:10352C00014800F0E3B900BFB504002010B5044613
:10353C00FFF7F0FF236A1BB1BDE81040FFF7F0BFA7
:10354C00044B2362044B1B68002BF5D1FFF7C4FF1F
:10355C00F2E700BFA5340008AC0400202DE9F843C5
:10356C000746884614460026D4E90195B9F10109AD
:10357C0005D52468002CF7D13046BDE8F883AB891B
:10358C00012B07D9B5F90E30013303D02946384643
:10359C00C04706436835E9E7036A70B505460E4631
:1035AC0084680BB9FFF7C2FF636EDB0705D4A389F0
:1035BC00980502D4A06D00F098F9A389190702D5DB
:1035CC002369002B35D12146284600F0C5F880B37D
:1035DC004FF0FF35636EDA0705D4A3899B0502D43F
:1035EC00A06D00F083F9284670BD002B04DAA269A7
:1035FC009A4217DC0A2915D023685A1C22601970CC
:10360C00A36816F8011F013BA3600029EDD1002B24
:10361C0011DA22460A21284600F05FF80130D7D093
:10362C000A25D7E72246284600F057F80130E7D1A3
:10363C00CEE7013EE4E723685A1C22600A221A7086
:10364C00EEE70000024B01461868FFF7A5BF00BF6C
:10365C002000002010B50C46B1F90E1000F0FCF85B
:10366C000028ABBF636DA3891B1823F48053ACBF38
:10367C006365A38110BD2DE9F0411F468B8905467A
:10368C00DB050C46164605D502230022B1F90E10B7
:10369C0000F0D0F8A389324623F48053A381284646
:1036AC003B46B4F90E10BDE8F04100F0E7B810B598
:1036BC000C46B1F90E1000F0BDF8431CA38915BFE0
:1036CC00606523F4805343F48053A38118BFA38116
:1036DC0010BDB1F90E1000F09DB8F8B50E461446A9
:1036EC00054618B1036A0BB9FFF720FFA369A36065
:1036FC00A3891A0701D5236943B92146284600F04E
:10370C002BF818B14FF0FF373846F8BD2368226903
:10371C00F6B2981A63693746834205DC214628467F
:10372C0000F05CFA0028EDD1A368013BA36023688C
:10373C005A1C22601E706269431C9A4204D0A389F1
:10374C00DB07E1D50A2EDFD12146284600F046FAE8
:10375C000028D9D0D6E7000038B5294B05461868A3
:10376C000C4618B1036A0BB9FFF7E0FEB4F90C3044
:10377C00190722D4DA0607D409222A6043F0400341
:10378C004FF0FF30A38133E0580712D5616B41B184
:10379C0004F14403994202D0284600F0A9F8002312
:1037AC006363A38923F02403A3810023636023694B
:1037BC002360A38943F00803A38123694BB9A38930
:1037CC0003F42073B3F5007F03D02146284600F0A4
:1037DC0052FAB4F90C3013F001020AD00022A260A4
:1037EC0062695242A261226942B913F08000C5D1CC
:1037FC0038BD990758BF6269A260F4E70020F7E76B
:10380C002000002003460244934200D1704703F885
:10381C00011BF9E738B50023054D044608462B601B
:10382C0000F098FA431C02D12B6803B1236038BD19
:10383C00B004002038B50446084611460022054D58
:10384C002A601A4600F09EFA431C02D12B6803B181
:10385C00236038BDB004002038B504460846114634
:10386C000022054D2A601A4600F094FA431C02D13E
:10387C002B6803B1236038BDB004002038B5044672
:10388C00084611460022054D2A601A4600F098FAA7
:10389C00431C02D12B6803B1236038BDB004002057
:1038AC0070B500260C4D0D4C641BA410A64209D11A
:1038BC0000F0E8FB00260A4D0A4C641BA410A6423B
:1038CC0005D170BD55F8043B98470136EEE755F825
:1038DC00043B98470136F2E74C4100084C41000884
:1038EC004C41000850410008704770477047000079
:1038FC0038B50546002940D051F8043C0C1F002B6C
:10390C00B8BFE41800F0DEF81C4A136833B96360E2
:10391C0014602846BDE8384000F0DAB8A34208D954
:10392C00206821188B4201BF19685B680918216057
:10393C00EDE71A465B680BB1A342FAD9116850182F
:10394C00A0420BD120680144501883421160E0D191
:10395C0018685B68084410605360DAE702D90C23DE
:10396C002B60D6E7206821188B4201BF19685B6871
:10397C000918216063605460CBE738BDBC0400209B
:10398C0070B50F4E0C463168054611B900F0D2F9EE
:10399C0030602146284600F0CDF9431C03D14FF08E
:1039AC00FF34204670BDC41C24F00304A042F8D0A0
:1039BC00211A284600F0BEF90130F2D1EFE700BF22
:1039CC00B80400202DE9F843CD1C25F0030508357B
:1039DC000C2D38BF0C25002D064601DBA94204D95D
:1039EC000C2333600020BDE8F883DFF8D48000F0AE
:1039FC0069F8D8F800301C4644BB29463046FFF71E
:103A0C00BFFF431C044658D1D8F800402746002F6E
:103A1C0043D1002C4BD023683946304604EB0309C4
:103A2C0000F088F9814542D1216830466D1A29464B
:103A3C00FFF7A6FF01303AD023682B442360D8F857
:103A4C0000305A6862BBC8F800700FE02268521B45
:103A5C0020D40B2A17D96119A342256018BF5960CD
:103A6C00636808BFC8F8001062514B60304600F024
:103A7C002FF804F10B00231D20F00700C21A1CBF05
:103A8C001B1AA350AFE76268A3420CBFC8F8002012
:103A9C005A60EBE723466468AEE73C467F68B6E7BE
:103AAC001A465B68A342FBD100235360DEE70C236C
:103ABC003046336000F00CF894E70560D6E700BFA1
:103ACC00BC0400200148FFF710BF00BFB404002065
:103ADC000148FFF70BBF00BFB4040020B1F90C2064
:103AEC00F8B5160705460C4654D44B68002B02DC7F
:103AFC000B6C002B48DDE66A002E45D0002312F437
:103B0C0080522F68216A2B6030D0626DA3895907CF
:103B1C0005D56368D21A636B0BB1236CD21A0023E0
:103B2C002846E66A216AB047431CA38906D1296856
:103B3C001D292BD8284ACA40D60727D500226260F7
:103B4C002269D904226004D5421C01D12B6803B927
:103B5C006065616B2F60B9B104F14403994202D0E6
:103B6C002846FFF7C5FE002363630DE001232846BA
:103B7C00B0470246501CC9D12B68002BC6D01D2B58
:103B8C0001D0162B1DD12F60002021E043F0400303
:103B9C001BB21AE00F69002FF6D0930718BF002351
:103BAC000E6808BF4B69F61B0F608B60002EEBDDB7
:103BBC0033463A462846216AD4F828C0E047002804
:103BCC0007DCB4F90C3043F040034FF0FF30A38115
:103BDC00F8BD0744361AE9E70100402038B50B69F7
:103BEC0005460C4613B90025284638BD18B1036AA2
:103BFC000BB9FFF79BFCB4F90C30002BF3D0626EC1
:103C0C00D00704D4990502D4A06DFFF76EFE2846A8
:103C1C002146FFF763FF636E0546DA07E4D4A389F8
:103C2C009B05E1D4A06DFFF761FEDDE770B50C4696
:103C3C00B1F90E10154600291E4696B00CDAA38970
:103C4C00002113F0800F14BF40234FF48063002039
:103C5C0031602B6016B070BD6A4600F049F8002840
:103C6C00EDDB019901F47041A1F500535942594122
:103C7C004FF48063EBE78B89F7B59D0706460C463E
:103C8C0007D504F14703236023610123636103B06B
:103C9C00F0BD6A4601ABFFF7C9FF009F05463946E8
:103CAC003046FFF78FFE48B9B4F90C309A05EED4C4
:103CBC0023F0030343F00203A381E2E7A389C4E9E1
:103CCC00040743F08003A381019B20605BB1304665
:103CDC00B4F90E1000F01EF828B1A38923F00303E9
:103CEC0043F00103A381A3891D43A581CFE7000005
:103CFC0038B50023064D0446084611462B6000F0EB
:103D0C0031F8431C02D12B6803B1236038BD00BFCE
:103D1C00B004002038B50023054D044608462B603E
:103D2C0000F028F8431C02D12B6803B1236038BD86
:103D3C00B004002038B50023054D044608462B601E
:103D4C0000F030F8431C02D12B6803B1236038BD5E
:103D5C00B00400205822024B4FF0FF301A6070471D
:103D6C00B00400205822024B4FF0FF301A6070470D
:103D7C00B00400205822024B00201A60704700BF8C
:103D8C00B00400205822024B4FF0FF301A607047ED
:103D9C00B00400205822024B4FF0FF301A607047DD
:103DAC00B0040020044A05491368002B08BF0B46D9
:103DBC001844106018467047C0040020C804002046
:103DCC005822024B4FF0FF301A607047B0040020AD
:103DDC002DE9F047089D0E4604468E46002B4CD12B
:103DEC008A429446B2FA82F362D953B102FA03FCC6
:103DFC00C3F1200201FA03FE20FA02F242EA0E0E8F
:103E0C009C404FEA1C47BEFBF7F11FFA8CF607FBF0
:103E1C0011EE01FB06F0220C42EA0E4290420AD946
:103E2C001CEB020201F1FF3E80F00E81904240F249
:103E3C000B8102396244121AB2FBF7F007FB102215
:103E4C0000FB06F6A4B244EA0244A6420AD91CEBD3
:103E5C00040400F1FF3280F0F980A64240F2F680B3
:103E6C006444023840EA01400021A41B1DB1DC402F
:103E7C000023C5E90043BDE8F0878B4205D90DB19D
:103E8C00C5E9000100210846F5E7B3FA83F10029E2
:103E9C0042D1B34202D3824200F2EE80841A66EB26
:103EAC00030201209646002DE5D0C5E9004EE2E75D
:103EBC00002B40F08C80881A0121170C96B2B0FBB5
:103ECC00F7FE07FB1E00220C42EA004206FB0EF036
:103EDC00904208D91CEB02020EF1FF3802D290423C
:103EEC0000F2CC80C646121AB2FBF7F007FB102288
:103EFC0000FB06F6A4B244EA0244A64208D91CEB25
:103F0C00040400F1FF3202D2A64200F2B280104645
:103F1C00A41B40EA0E40A9E7C1F120078B4022FA0E
:103F2C0007FC4CEA030C26FA07FA4FEA1C48BAFBCA
:103F3C00F8FE06FA01F308FB1EAA1FFA8CF620FA0B
:103F4C0007F400FA01F90EFB06F023431C0C44EABB
:103F5C000A44A04202FA01F20BD91CEB04040EF144
:103F6C00FF3A80F08480A04240F28180AEF1020ED4
:103F7C006444241A98B2B4FBF8F308FB134403FB13
:103F8C0006F640EA0444A64208D91CEB040403F1EB
:103F9C00FF3068D2A64266D9023B644443EA0E4025
:103FAC00A41BA0FB02E6B4427346B04652D34FD0DA
:103FBC005DB1B9EB030264EB080404FA07F722FACB
:103FCC0001F31F43CC40C5E90074002153E702FA0A
:103FDC0003FCC3F12000C1404FEA1C47B1FBF7FEC4
:103FEC0007FB1E1124FA00F09E403043020C1FFA0E
:103FFC008CF642EA01420EFB06F1914204FA03F4FC
:10400C0009D91CEB02020EF1FF382ED291422CD9A9
:10401C00AEF1020E6244521AB2FBF7F107FB112209
:10402C0080B240EA024001FB06F2824208D91CEB46
:10403C00000001F1FF3814D2824212D902396044D7
:10404C00801A41EA0E413AE77146F4E6104609E758
:10405C00F145ADD2BEEB020366EB0C060138B0465F
:10406C00A6E74146ECE7034698E7C646D3E7D646B3
:10407C007FE7644402384BE7084614E7AEF1020EC2
:10408C00624430E7F8B500BFF8BC08BC9E467047E8
:0C409C00F8B500BFF8BC08BC9E46704799
:1040A8006164634F6B0D000062746E20310D000077
:1040B80062746E20320D000062746E20330D0000B1
:1040C80062746E20340D00005374617274696E67F7
:1040D8000D000000455441545F494E495449414C34
:1040E80049534154494F4E0D000000004554415476
:1040F8005F4A45550D000000455441545F564943F9
:10410800544F4952450D0000455441545F444546BB
:10411800414954450D00000000000000010203045D
:10412800000000000000000001020304060708095F
:0C413800030406080C10182030000000E2
:0841440098FCFF7F0100000060
:04414C00D90100088D
:04415000B1010008B1
:10415400010203043C000000010000001000000004
:1041640068FF1F000000000003000000740300202B
:10417400240000200000000074030020DC03002061
:1041840044040020000000000000000000000000C3
:10419400000000000000000000000000000000001B
:1041A400000000000000000000000000000000000B
:1041B40000000000000000000000000000000000FB
:04000005080033D5E7
:00000001FF
